:020000040800F2
:1000000000000520DD020008714400087544000866
:10001000794400087D440008814400080000000085
:1000200000000000000000000000000085440008FF
:1000300089440008000000008D4400089144000835
:10004000DD2C0008DD2C0008DD2C0008DD2C00086C
:10005000DD2C0008DD2C0008DD2C0008DD2C00085C
:10006000DD2C0008DD2C0008DD2C0008DD2C00084C
:10007000DD2C0008DD2C0008DD2C0008DD2C00083C
:10008000DD2C0008DD2C0008DD2C0008DD2C00082C
:10009000DD2C0008DD2C0008DD2C0008DD2C00081C
:1000A000DD2C0008DD2C0008DD2C0008DD2C00080C
:1000B000DD2C0008DD2C0008DD2C0008DD2C0008FC
:1000C000DD2C0008DD2C0008DD2C0008DD2C0008EC
:1000D000DD2C0008DD2C0008DD2C0008DD2C0008DC
:1000E00099440008FD280008DD2C0008DD2C0008DC
:1000F000DD2C0008DD2C0008DD2C0008DD2C0008BC
:10010000DD2C0008DD2C0008DD2C0008DD2C0008AB
:10011000DD2C0008DD2C0008DD2C0008DD2C00089B
:10012000DD2C0008DD2C0008DD2C0008DD2C00088B
:10013000DD2C0008DD2C0008DD2C0008DD2C00087B
:10014000DD2C0008DD2C0008DD2C0008DD2C00086B
:10015000DD2C0008DD2C0008DD2C0008DD2C00085B
:10016000DD2C0008DD2C0008DD2C0008DD2C00084B
:10017000DD2C0008DD2C0008DD2C0008000000004C
:10018000DD2C0008DD2C0008DD2C0008DD2C00082B
:10019000DD2C0008DD2C0008DD2C0008DD2C00081B
:1001A000DD2C0008DD2C0008DD2C0008DD2C00080B
:1001B000DD2C0008DD2C0008DD2C0008DD2C0008FB
:1001C000DD2C0008DD2C000800B583B002F0EEFC49
:1001D000304B314A1360314A1360314B314A03E0EE
:1001E00011681960043304322F498B42F8D32A4B2B
:1001F0001A682E4B9A4204D1284B1A682C4B9A420B
:1002000000D0FEE7234B2B4A13602B4A13602B4B85
:1002100002E000221A600433294A9342F9D3254BA5
:100220001B6813B9244B1B6803B1FEE702F0CAFC3C
:10023000694601A802F054FC224C234B1C1BA4105D
:10024000002504E01F4B53F8253098470135AC4298
:10025000F8DC1E4C1E4B1C1BA410002504E01B4B9D
:1002600053F8253098470135AC42F8DC00990198E5
:1002700004F000F80546174C174B1C1BA41004E0B3
:10028000013C144B53F824309847002CF8DC2846E6
:1002900002F0F8FBBABADECA000000208C00002091
:1002A00000000020546404089000002078563412A6
:1002B00032547698900000206405002090000020C1
:1002C00068050020340400083404000834040008E1
:1002D00044040008440400084404000808B5FFF77B
:1002E00073FF00BF00BEFEE71EF0040F0CBFEFF36C
:1002F0000880EFF309807146414A10472DE9F0412B
:1003000082B004468846134B5E6B9F6B9D6A1B6BE5
:1003100013F0020F0DD00F4BDB6A002B09DA4BF6FE
:10032000AB6102F0CBFC20B14FF00042094BDA6226
:100330000CE0094802F0DCFBCDF800803B46324679
:100340002946204602F042FC00BEFEE702B0BDE8AE
:10035000F08100BF00ED00E05859000800BEFEE744
:100360001EF0040F0CBFEFF30880EFF30980714615
:10037000244A10472DE9F04182B004468846084BD4
:100380005E6B9F6B9D6A074802F0B2FBCDF8008060
:100390003B4632462946204602F018FC00BEFEE7E6
:1003A00000ED00E0685900081EF0040F0CBFEFF3E9
:1003B0000880EFF309807146134A10472DE9F04198
:1003C00082B004468846084B5E6B9F6B9D6A074867
:1003D00002F08EFBCDF800803B463246294620468F
:1003E00002F0F4FB00BEFEE700ED00E074590008E7
:1003F00000BEFEE700BEFEE700BEFEE7704700005D
:0C040000FD02000875030008BD030008A1
:10040C005464040800000020900000205464040888
:10041C000000001000000010900000206805002073
:10042C00000000100000001015480008D948000812
:08043C005D490008E1490008D8
:1004500008B5074A136843F400731360032000F0E3
:1004600025F8002002F06EF901F0DEF8002008BD4A
:10047000003C0240024A136801331360704700BF1A
:10048000EC030020014B1868704700BFEC0300200C
:1004900010B582B00190FFF7F5FF0446FFF7F2FFB9
:1004A000001B019B9842F9D302B010BD064AD368E5
:1004B00023F4E0631B041B0C000200F4E06018430B
:1004C000024B0343D360704700ED00E00000FA05E3
:1004D00030B4144BDB68C3F30223C3F10704042CCC
:1004E00028BF04241D1D062D01D9DD1E00E00025B6
:1004F000012303FA04F4013C2140A940AB40013B35
:100500001A400A43002806DA00F00F001201D2B2A6
:10051000054B1A5403E01201D2B2044B1A5430BCFA
:10052000704700BF00ED00E014ED00E000E400E0E3
:10053000420900F01F00012303FA00F0014B43F8C9
:100540002200704700E100E00138B0F1807F0AD25C
:10055000064B5860F021064A82F82310002098606C
:1005600007221A6070470120704700BF10E000E0CA
:1005700000ED00E0042805D1054A136843F00403A8
:1005800013607047024A136823F004031360704736
:1005900010E000E00268D3B2103B0949A1FB03134D
:1005A0001B090849C95CC165032B04D9064B1340DC
:1005B0000433836502E0044B13408365806D70470C
:1005C000ABAAAAAAF457000800FCFFFF836A82695D
:1005D000BAB9012B09D013B1022B0CD034E0C36A95
:1005E00013F0807F32D100207047C36AB3F1C07F1F
:1005F0002ED000207047C36A13F0807F2AD10020DC
:100600007047B2F5005F13D1032B03D8DFE803F086
:100610002404240A00207047C36A13F0807F1DD190
:1006200000207047C36AB3F1C07F19D00020704723
:10063000022B17D9032B01D000207047C36A13F097
:10064000807F11D100207047002070470120704743
:10065000012070470120704701207047012070473A
:1006600001207047012070470120704770B5044693
:10067000FFF708FF002C5AD00546002384F83430D9
:10068000022384F835302268136823F001031360D5
:100690000AE0FFF7F7FE401B052805D92023636514
:1006A000032084F8350070BD23681A6812F0010F2A
:1006B000EFD11A681F4810406168A2681143E268D0
:1006C00011432269114362691143A2691143E2692E
:1006D0000A43216A114340EA0102616A042903D1F5
:1006E000E06A216B01430A431A602668756925F0A8
:1006F0000705636A1D43042B0BD1A36A1D432046E3
:10070000FFF764FF28B140236365012084F83500BA
:1007100070BD75612046FFF73DFFE26D3F239340BA
:10072000836000206065012384F8353070BD0120AE
:1007300070BD00BF3F8010E030B338B5044690F87C
:100740003530DBB2022B21D00268136823F001039D
:100750001360036800251D6003685D6003689D6089
:100760000368DD6003681D61036821225A61FFF799
:1007700011FFE26D3F2393408360656584F8355037
:1007800084F83450284638BD01207047022038BD17
:10079000F0B407687E6C06F04046264D95FAA5F544
:1007A000B5FA85F503FA05F5049C2C4334437C64C3
:1007B0000368DA634368B3F5403F36D101F07F4404
:1007C00001F47F0501F47F43C9B282681AB92B4353
:1007D0002343194326E0012A03D145EA03021143CA
:1007E00020E0022A07D1EA0C9C0AD30243EA441310
:1007F00043EAD10116E0032A0AD1E40FEA0CDD0A2C
:10080000930243EA451343EAC43343EAD10109E0C2
:10081000240F2E0D1A0B360246EA021646EA04355C
:1008200045EA11110368996301E00368D960F0BCDF
:10083000704700BF0000FF3F704700BF002845D051
:1008400010B5044690F8513013F0FF0F04D1002387
:1008500080F85030FFF7F0FF022384F85130216810
:100860000B6823F44032636813430B6021684B6BC1
:1008700023F00702A36813434B6321680B6C144AEF
:100880001A40E36813430B642068436B23F4801120
:1008900023694FF4801292FAA2F2B2FA82F29340E4
:1008A0000B4343632068436B23F4001163694FF4E7
:1008B000001292FAA2F2B2FA82F293400B4343631F
:1008C00000206065012384F8513010BD012070477D
:1008D00000C0FFFF10B582B090F85040012C12D03C
:1008E0000446012084F85000022084F85100049846
:1008F00000902046FFF74CFF2268136843F0010385
:100900001360002000E0022002B010BD70B582B07C
:1009100004460D460023019303681B6813F0010F82
:100920003CD0FFF7AFFD064633E05A680192019ACA
:1009300012F0210F19D0019A12F0200F03D0626D2E
:1009400042F002026265019A12F0010F03D0626D5B
:1009500042F00102626521229A60042384F851303A
:10096000002384F8503001206FE0B5F1FF3F10D034
:1009700025B1FFF787FD801B85420AD2636D43F0E6
:1009800020036365032084F85100002384F850306D
:100990005BE023685A6812F0020FC6D02368DA6958
:1009A00012F0200F03D15B6A13F0200F44D0FFF741
:1009B00069FD06463BE05A680192019A12F0290F40
:1009C00021D0019A12F0080F03D0626D42F00402A8
:1009D0006265019A12F0200F03D0626D42F00202AC
:1009E0006265019A12F0010F03D0626D42F00102BC
:1009F000626529229A60042384F85130002384F828
:100A00005030012021E0B5F1FF3F10D025B1FFF7B4
:100A100039FD801B85420AD2636D43F02003636574
:100A2000032084F85100002384F850300DE023683F
:100A30005A6812F0100FBED0236812229A60012368
:100A400084F85130002084F8500002B070BD00BF1F
:100A500090F85030012B7ED070B4012380F85030D4
:100A6000022380F851304A000A44D30003445E6AEE
:100A70009C6A4FF4403292FAA2F2B2FA82F29440A7
:100A800034431A6B4FF4801595FAA5F5B5FA85F540
:100A9000AA4022435C6B4FF4001393FAA3F3B3FA1A
:100AA00083F304FA03F31343093E012E08D801EB44
:100AB0004104E2000244D26A02F07F421A430CE091
:100AC00001EB4104E2000244D26A4FF07F4494FA01
:100AD000A4F4B4FA84F4A2401A43D1B90468656A54
:100AE0001F4B2B401A43626204684A000A44D30039
:100AF00003441A6AA2615B6A093B012B23D802688E
:100B000001EB4101CB000344DB6A23F07F43936296
:100B100019E00468E569124B2B401A43E26104684E
:100B20004A000A44D30003441A6A22615B6A093B03
:100B3000012B08D8026801EB4101CB000344DB6ABA
:100B400023F07F431362012380F85130002380F8A3
:100B50005030184601E00220704770BC704700BF5B
:100B6000F0FFCC0042EA811242EA0323009A43EAF2
:100B70000243C366704700BF704700BF002800F003
:100B8000A58070B504460E46437C13F0FF0F01D1DB
:100B9000FFF7F2FF032363742268D2F8303443F086
:100BA0008073C2F83034FFF76DFC054606E0FFF7AE
:100BB00069FC401BB0F57A7F00F28A802368D3F885
:100BC0000C2412F4805FF2D0D3F83014424A0A4069
:100BD000C3F830242168D1F8300432687368DB022E
:100BE00043EA8202B36842EA03430343C1F8303464
:100BF0002268D2F8303443F00103C2F83034FFF7F2
:100C000041FC054605E0FFF73DFC401BB0F57A7F4F
:100C100060D82368D3F80C2412F4807FF3D0D3F883
:100C2000A02042F00602C3F8A0202268D2F8943037
:100C300023F00303C2F894302268D2F8941063685A
:100C40000B4343F00103C2F894302268D2F8A43079
:100C500023F00303C2F8A4302268D2F8A410E3689A
:100C60000B43C2F8A4302268936823F0FF0393601B
:100C700022689168A3680B439360726802B90122ED
:100C8000164B03FB02F3B26803FA02F2316846F234
:100C9000A81303FB01F3B2FBF3F32168D1F8182486
:100CA00022F03F02C1F818242168D1F81824134318
:100CB000C1F8183423680020C3F8C4002368C3F8BF
:100CC000C800A06160610123637470BD012070479A
:100CD000032070BD032070BD0386FCFF00093D00AA
:100CE000704700BF58B310B504460323437402682D
:100CF000D2F8043423F00803C2F8043402685368BD
:100D000023F0010353600268D2F8A03023F00603F9
:100D1000C2F8A0300268D2F8303423F00103C2F8E0
:100D200030340268D2F8303423F08073C2F83034A3
:100D3000FFF7D6FF002060616074207410BD0120B1
:100D4000704700BF037C012B00F0208130B40123E9
:100D500003740268536B23F0010353630268D2F8F3
:100D6000003423F00103C2F800340268936B23F0CF
:100D7000030393630268946BCB6823439363026815
:100D8000D46B844B2340D3630268D46B0B69234339
:100D9000D3630468226C804B1A4022640468256C7B
:100DA0004A692A4322640268546C234053640268EF
:100DB000546C8B69234353640268D36823F00303A4
:100DC000D3600268D4680B682343D3600268536918
:100DD00023F007035361046865694B6A0A6A1A4382
:100DE000CB6913432B4363610268136923F00F033C
:100DF0001361026814694B68234313610268D2F8D7
:100E0000003423F00E03C2F800340268D2F8003434
:100E10004C6843EA4403C2F800344B68032B09D101
:100E20000268136923F480731361026814698B6884
:100E3000234313610468A26C584B1A40A2640468EF
:100E4000A56C8A6A2A43A2640268D46C2340D364E6
:100E50000268D46CCB6A2343D3640268146D504B90
:100E6000234013650268146D0B6B234313650468FC
:100E7000626D4C4B1A4062650468656D4A6B2A438B
:100E800062650468A26D1A40A2650468A56D8A6B4C
:100E90002A43A2650268D46D2340D3650268D46DED
:100EA000CB6B2343D3650268146E3A4B2340136621
:100EB0000268146E0B6C234313660268936B23F471
:100EC000004393630268946B4B6C23439363026803
:100ED000936923F47F039361026893698C6C43EAFE
:100EE000044393610268936923F0FF0393610268EE
:100EF0009469CB6C234393610268936B23F4005392
:100F000093630268946B0B6D234393630268936B46
:100F100023F4805393630268946B4B6D2343936374
:100F20000268936B23F4006393630268946B8B6D88
:100F3000234393630268936B23F480639363026893
:100F4000946BCB6D234393630268936B23F400731C
:100F500093630268946B0B6E234393630268936BF5
:100F600023F4807393630268946B4B6E2343936303
:100F70000268936B23F4804393630268946B8B6ED7
:100F80002343936300230374184601E00220704753
:100F900030BC704700C0FFFF00E0FFFF00F0FFFF24
:100FA0000080FFFF00FCFFFF037C012B11D0012319
:100FB00003740268536843F0010353600268D2F877
:100FC000043443F00803C2F80434002303741846C1
:100FD00070470220704700BF2DE9F04383B0047CC6
:100FE000012C22D0994690460F46054601230374F2
:100FF000FFF748FA064609E0FFF744FA801BB0F510
:101000007A7F03D900232B7403200FE02868446FF4
:1010100014F0010FF0D00A9B00934B46424639462C
:10102000FFF7A0FD0020287400E0022003B0BDE817
:10103000F08300BF2DE9F04383B00B9E047C012CAC
:101040004AD01F4691468846054601230374FFF7A0
:1010500019FA044609E0FFF715FA001BB0F57A7F8C
:1010600003D900232B74032037E02868406F10F069
:10107000010FF0D0002420E07CB92A68335D0A9982
:1010800041EA0323611C715C43EA0143A11C715CCA
:1010900043EA0163136703340FE02A68335D611C80
:1010A000715C43EA0123A11C715C43EA0143E11C2A
:1010B000715C43EA016313670434BC42DCD37B1CDC
:1010C000C3F307220092DBB24A4641462868FFF785
:1010D00049FD0020287400E0022003B0BDE8F08341
:1010E000F0B583B00024D8E00123A3400A6803EAE6
:1010F0000205AB4240F0D0804A68122A18BF022A8B
:1011000010D1E608083650F826C004F00702970010
:101110000F22BA402CEA020E0A69BA404EEA0202D5
:1011200040F82620026867000326BE40F64302EA24
:10113000060E4A6802F00302BA404EEA020202605A
:101140004A6802F1FF3E112A18BFBEF1010F01D912
:10115000122A10D1826806EA020ECA68BA404EEA24
:1011600002028260426822EA03034A68C2F3001264
:10117000A2401A434260C3681E408B68BB403343A1
:10118000C3604B6813F0805F00F08680454B5A6C5B
:1011900042F480425A645B6C03F480430193019BE8
:1011A000A608B21C404B53F8227004F003039B00C6
:1011B0000F229A4027EA02073C4A904225D002F5C6
:1011C0008062904223D002F58062904221D002F5E5
:1011D000806290421FD002F5806290421DD002F5DD
:1011E000806290421BD002F58062904219D002F5D5
:1011F0008062904217D002F58062904215D002F5CD
:101200008062904213D1092212E0002210E00122F4
:101210000EE002220CE003220AE0042208E005228C
:1012200006E0062204E0072202E0082200E00A228B
:1012300002FA03F33B4302361B4A42F826301C4BAA
:101240001A68EB4302EA03064F6817F4803F01D0A7
:1012500045EA0206164A1660526803EA02064F681B
:1012600017F4003F01D045EA0206114A5660926821
:1012700003EA02064F6817F4801F01D045EA020610
:101280000B4A9660D26813404E6816F4001F01D0D6
:1012900045EA0203064AD36001340F2C7FF624AFDF
:1012A00003B0F0BD003802400038014000000240A9
:1012B000003C01400AB181617047090481617047B7
:1012C00008B5044B5B69034203D0024B586103F03D
:1012D00017F808BD003C0140F0B54D680468E368AC
:1012E000C3F30B431D44D2011444D4F8883003F4F3
:1012F0007043C4F88830046816190B68E468C4F3B6
:101300000B442344013343EA0543C6F88830CD68D3
:101310000468E368C3F30A031D441444D4F88C3012
:1013200003F47043C4F88C30046816198B68E468C1
:10133000C4F30A042344013343EA0543C6F88C305E
:1013400003681344D3F8944024F00704C3F894408E
:10135000036813440C69C3F8944091F831E091F8A4
:1013600032308F6906681644D6F89C400025C6F8CE
:101370009C500668164491F8304044EA0E2444EA32
:10138000034343EA0763C6F89C3003681344D3F869
:10139000984024F0FF04C3F89840036813444C6954
:1013A000C3F8984003681344D3F8A0602D4C344030
:1013B000C3F8A04003681344CE690C6A3443C3F8F1
:1013C000A04003681344D3F8AC40C3F8AC500368A2
:1013D00013444C6AC3F8AC400B695BB1012B0BD0D2
:1013E000022B18BF042B09D0032B09D0072B09D1DE
:1013F000022708E0042706E0032704E0022702E0B2
:10140000022700E0012704681444D4F8B03003F048
:10141000E023C4F8B0300468144404F184058C6AF5
:1014200004FB07F64B680C681C1B04FB07F3033333
:1014300043EA0643EB6203681344D3F8B4500A4C02
:101440002C40C3F8B44003681344C96AC3F8B4100D
:1014500003681A44D2F8843043F00103C2F88430A0
:10146000F0BD00BFF8F8FFFF00F8FFFF704700BFB6
:10147000002878D038B5044690F8A13013F0FF0F5B
:1014800004D1002380F8A030FFF7F0FF022384F896
:10149000A1302268936923F07043936121688869C1
:1014A0006368A2681343E2681A4323691343034342
:1014B0008B6121688A682D4B1A408A6065692168B2
:1014C0008868A26942EA054202438A602168CA68C4
:1014D0001A40CA60E5692168C868226A42EA054282
:1014E0000243CA6021680A691A400A61656A216874
:1014F0000869A26A42EA054202430A612268516908
:101500000B405361E06A22685169236B43EA004350
:101510000B43536194F8353094F836201204206858
:10152000C16A01F07F41C1622168C86A42EA0322B0
:1015300094F8343013430343CB622268536B43F077
:10154000040353632268536B43F00203536322681E
:10155000936943F0010393610020C4F8A4000123C0
:1015600084F8A13038BD0120704700BF00F800F0BA
:1015700090F8A030012B27D02DE9F04196460F4678
:1015800006464FF0010880F8A080022380F8A130C1
:10159000342404FB020438340D460FCD0FC40FCDA4
:1015A0000FC40FCD0FC42B682360724639463046F6
:1015B000FFF792FE3368C3F8248086F8A1800020EC
:1015C00086F8A000BDE8F081022070474B6A0BB19D
:1015D0004FF00053C3600B6A13B94FF0804300E033
:1015E00000238360CB6913B94FF0004300E0002370
:1015F00043604B6B013B83614A6B8B6B1344013B34
:1016000003624A6B8B6B1A440B6C1344013B83627D
:101610004A6B8B6B1A440B6C1344CA6B1344013B2B
:1016200003630020704700BF704700BF10B582B051
:101630001C4B1A6C42F080521A641B6C03F08053EE
:101640000193019B184A136843F480331360FEF73B
:1016500019FF044605E0FEF715FF001BB0F57A7F81
:101660001AD8114B5B6813F4803FF4D00E4A13680C
:1016700043F400331360FEF705FF044605E0FEF770
:1016800001FF001BB0F57A7F08D8074B5B6813F4A5
:10169000003FF4D0002002E0032000E0032002B06D
:1016A00010BD00BF003802400070004070B582B02D
:1016B0000446036813F0010F65D0A44B9B6803F048
:1016C0000C03042B0AD0A14B9B6803F00C03082BDE
:1016D0000DD19E4B5B6813F4800F08D09B4B1B68A9
:1016E00013F4003F4FD06368002B4CD1DBE16368FB
:1016F000B3F5803F05D1954A136843F480331360F6
:1017000020E04BB9914B1A6822F480321A601A68B3
:1017100022F480221A6015E0B3F5A02F09D18B4B7B
:101720001A6842F480221A601A6842F480321A6001
:1017300008E0864B1A6822F480321A601A6822F494
:1017400080221A6063687BB1FEF79CFE054605E0C7
:10175000FEF798FE401B642800F2A7817B4B1B68B4
:1017600013F4003FF4D00EE0FEF78CFE054605E0D2
:10177000FEF788FE401B642800F29981734B1B68BA
:1017800013F4003FF4D1236813F0020F5ED06F4BC7
:101790009B6813F00C0F0AD06C4B9B6803F00C0392
:1017A000082B1BD1694B5B6813F4800F16D1674B74
:1017B0001B6813F0020F03D0E368012B40F079811E
:1017C0006248036823F0F8012369F82292FAA2F232
:1017D000B2FA82F293400B43036037E0E3680BB345
:1017E0005A4A136843F001031360FEF74BFE0546A7
:1017F00005E0FEF747FE401B022800F25C81534BD8
:101800001B6813F0020FF4D05048036823F0F8016E
:101810002369F82292FAA2F2B2FA82F293400B43C1
:10182000036013E0494A136823F001031360FEF7D5
:1018300029FE054605E0FEF725FE401B022800F2C2
:101840003C81424B1B6813F0020FF4D1236813F064
:10185000080F2AD06369A3B13C4A536F43F00103D8
:101860005367FEF70FFE054605E0FEF70BFE401B33
:10187000022800F22481354B5B6F13F0020FF4D085
:1018800013E0324A536F23F001035367FEF7FAFD6A
:10189000054605E0FEF7F6FD401B022800F2118127
:1018A0002A4B5B6F13F0020FF4D1236813F0040F7F
:1018B00000F08480254B1B6C13F0805F0BD1234B11
:1018C0001A6C42F080521A641B6C03F0805301932F
:1018D000019B012500E000251D4B1B6813F4807F50
:1018E00013D11B4A136843F480731360FEF7CAFDDB
:1018F000064605E0FEF7C6FD801B642800F2E38083
:10190000134B1B6813F4807FF4D0A368012B05D11F
:101910000E4A136F43F00103136724E04BB90B4BDE
:101920001A6F22F001021A671A6F22F004021A6776
:1019300019E0052B0ED1054B1A6F42F004021A670D
:101940001A6F42F001021A670DE000BF0038024032
:1019500000700040644B1A6F22F001021A671A6F80
:1019600022F004021A67A3688BB1FEF78BFD0646CE
:1019700007E0FEF787FD801B41F28833984200F2B2
:10198000A480594B1B6F13F0020FF2D010E0FEF74A
:1019900079FD064607E0FEF775FD801B41F28833AE
:1019A000984200F29480504B1B6F13F0020FF2D15B
:1019B00025B14D4A136C23F080531364A369002BA7
:1019C00000F08780484A926802F00C02082A00F072
:1019D0008280022B52D1444A136823F08073136033
:1019E000FEF750FD054604E0FEF74CFD401B0228C3
:1019F00073D83D4B1B6813F0007FF5D1E169236A72
:101A00001943636A47F6C07292FAA2F2B2FA82F2FE
:101A100093401943A36A5B085A1E4FF4403393FA6C
:101A2000A3F3B3FA83F302FA03F30B43E26A4FF032
:101A3000706191FAA1F1B1FA81F18A401343226BEE
:101A40004FF0E04191FAA1F1B1FA81F18A401343DC
:101A5000254A5360136843F080731360FEF712FD4C
:101A6000044604E0FEF70EFD001B022837D81E4B8B
:101A70001B6813F0007FF5D0002033E01A4A13688A
:101A800023F080731360FEF7FDFC044604E0FEF7CC
:101A9000F9FC001B022824D8134B1B6813F0007FAD
:101AA000F5D100201EE001201CE003201AE00320F5
:101AB00018E0012016E0032014E0032012E00320C8
:101AC00010E003200EE003200CE003200AE00320D6
:101AD00008E0002006E0012004E0032002E00320EB
:101AE00000E0032002B070BD00380240244B9B6828
:101AF00003F00C03042B3FD0082B01D02148704782
:101B000010B41F4B586800F03F005B6813F4800F5F
:101B100010D01D4BB3FBF0F0194B5A6847F6C0715B
:101B20000A4091FAA1F3B3FA83F322FA03F303FB19
:101B300000F310E0134BB3FBF0F0114B5A6847F67B
:101B4000C07402EA040194FAA4F2B2FA82F221FA11
:101B500002F202FB00F30A4A506800F440324FF4EC
:101B6000403090FAA0F0B0FA80F022FA00F0013094
:101B70004000B3FBF0F001E00348704710BC704731
:101B8000003802400024F40040787D0170B5604BBD
:101B90001B6803F00F038B420BD25D4A136823F0DE
:101BA0000F030B431360136803F00F03994240F0D7
:101BB0009E80036813F0020F06D0564CA36823F0F2
:101BC000F00283681343A3600D460446036813F0D4
:101BD000010F4DD04268012A05D14E4B1B6813F40A
:101BE000003F0DD185E0022A05D14A4B1B6813F056
:101BF000007F05D17FE0474B1B6813F0020F7CD0BC
:101C000044498B6823F0030313438B60FEF73AFCCF
:101C100006466368012B0ED106E0FEF733FC801BFD
:101C200041F2883398426AD83A4B9B6803F00C0320
:101C3000042BF2D11CE0022B15D106E0FEF722FCAA
:101C4000801B41F2883398425BD8324B9B6803F08B
:101C50000C03082BF2D10BE0FEF714FC801B41F2C1
:101C6000883398424FD82B4B9B6813F00C0FF3D15D
:101C7000274B1B6803F00F039D420AD2244A1368C6
:101C800023F00F032B431360136803F00F039D42EF
:101C90003BD1236813F0040F06D01E498B6823F450
:101CA000E052E36813438B60236813F0080F07D0FA
:101CB000184A936823F46043216943EAC10393609F
:101CC000FFF714FF134B9B6803F0F002F02393FA25
:101CD000A3F3B3FA83F322FA03F30F4AD35CD84099
:101CE0000E4B1860002000F02DFD002070BD01207B
:101CF00070BD012070BD012070BD012070BD0320AA
:101D000070BD032070BD032070BD012070BD00BFF9
:101D1000003C024000380240845900080C000020BA
:101D2000014B1868704700BF0C000020F0B583B06D
:101D30000446036813F0010F0CD04E4B9A6822F44E
:101D400000029A609968426B0A439A60436B1BB128
:101D5000002702E0002700E00127236813F4002F8A
:101D600010D04449D1F88C3023F44012E36B134374
:101D7000C1F88C30E36BB3F5801F00D101271BB194
:101D8000002502E0002500E00125236813F4801FF0
:101D90000FD03849D1F88C3023F44002236C134320
:101DA000C1F88C30236CB3F5800F00D1012703B943
:101DB0000125236813F0807F00D0012713F0200F46
:101DC0006AD02C4B1A6C42F080521A641B6C03F0E0
:101DD00080530193019B284A136843F48073136076
:101DE000FEF750FB064605E0FEF74CFB801B64281F
:101DF00000F29B83204B1B6813F4807FF4D01D4BB3
:101E00001B6F13F4407326D0226B02F4407293428E
:101E100021D0184B1A6F22F44072196F41F48031AF
:101E20001967196F21F4803119671A671B6F13F056
:101E3000010F10D0FEF726FB064607E0FEF722FB57
:101E4000801B41F28833984200F27183094B1B6F6B
:101E500013F0020FF2D0236B03F44072B2F5407F0F
:101E60000ED10448826822F4F811044A1A400A4349
:101E700082600AE00038024000700040FFFCFF0F63
:101E8000974A936823F4F8139360954A116F236B74
:101E9000C3F30B030B431367236813F0100F0CD02D
:101EA0008F4BD3F88C2022F08072C3F88C20D3F8AB
:101EB0008C10A26B0A43C3F88C20236813F4804F64
:101EC00008D08749D1F8903023F44032636E134331
:101ED000C1F89030236813F4004F08D08049D1F83E
:101EE000903023F44022A36E1343C1F8903023684E
:101EF00013F4803F08D07A49D1F8903023F440128F
:101F0000E36E1343C1F89030236813F4003F08D008
:101F10007349D1F8903023F44002236F1343C1F882
:101F20009030236813F0400F08D06D49D1F89030FD
:101F300023F00302636C1343C1F89030236813F05D
:101F4000800F08D06649D1F8903023F00C02A36CC2
:101F50001343C1F89030236813F4807F08D06049A0
:101F6000D1F8903023F03002E36C1343C1F8903085
:101F7000236813F4007F08D05949D1F8903023F03A
:101F8000C002236D1343C1F89030236813F4806FAF
:101F900008D05349D1F8903023F44072636D134355
:101FA000C1F89030236813F4006F08D04C49D1F881
:101FB000903023F44062A36D1343C1F8903023683E
:101FC00013F4805F08D04649D1F8903023F4405292
:101FD000E36D1343C1F89030236813F4005F08D019
:101FE0003F49D1F8903023F44042236E1343C1F8A7
:101FF0009030236813F4800F08D03949D1F890301D
:1020000023F08062A36F1343C1F89030236813F468
:10201000001F0DD03249D1F8903023F00062E36FF9
:102020001343C1F89030E36FB3F1006F00D1012585
:10203000236813F0080F00D0012513F4802F08D077
:102040002749D1F8903023F04072636F1343C1F8F1
:102050009030236813F4000F09D02149D1F8903053
:1020600023F08052D4F880301343C1F890302368B5
:1020700013F0806F09D01A49D1F8903023F0005244
:10208000D4F884301343C1F89030236813F0006F04
:1020900009D01349D1F88C3023F00072D4F888307D
:1020A0001343C1F88C30236813F0805F09D00C49CA
:1020B000D1F88C3023F08062D4F88C301343C1F80F
:1020C0008C3027B92368B3F1007F40F02781044AA0
:1020D000136823F080631360FEF7D4F9064607E027
:1020E00000380240FEF7CEF9801B642800F22182FE
:1020F000904B1B6813F0006FF4D1236813F0010FAD
:102100003BD0636BCBBB8B48D0F8846006F4403681
:102110004FF4403292FAA2F3B3FA83F3DE40D0F8E0
:10212000841001F070674FF0706393FAA3F1B1FA75
:1021300081F127FA01F1676847F6C07E9EFAAEFE8C
:10214000BEFA8EFE07FA0EF792FAA2F2B2FA82F205
:1021500006FA02F23A4393FAA3F3B3FA83F301FACD
:1021600003F31A43A3684FF0E04191FAA1F1B1FAE9
:1021700081F18B401343C0F88430236813F4002F9F
:1021800003D0E26BB2F5801F06D013F4801F47D056
:10219000236CB3F5800F43D16648D0F8842002F455
:1021A00040324FF4403E9EFAAEF3B3FA83F322FA84
:1021B00003F6D0F8841001F0E0414FF0E04393FAC9
:1021C000A3F2B2FA82F2D14047F6C07797FAA7F7A6
:1021D000B7FA87F7626802FA07F79EFAAEF2B2FA28
:1021E00082F206FA02F247EA0206E2684FF07067EE
:1021F00097FAA7F7B7FA87F7BA40324393FAA3F3EF
:10220000B3FA83F301FA03F31343C0F88430D0F830
:102210008C3023F01F02636A013B1343C0F88C30FB
:10222000236813F0807F3BD0424ED6F8840000F044
:1022300070604FF0706292FAA2F3B3FA83F3D84061
:10224000D6F8841001F0E04E4FF0E04797FAA7F17E
:10225000B1FA81F32EFA03F1636847F6C07E9EFA65
:10226000AEFEBEFA8EFE03FA0EFE4FF4403393FA32
:10227000A3F3B3FA83FC236903FA0CF34EEA0303D6
:1022800092FAA2F2B2FA82F200FA02F21A4397FA32
:10229000A7F3B3FA83F301FA03F31343C6F88430C8
:1022A000236813F0007F25D0626847F6C07393FA65
:1022B000A3F3B3FA83F39A4023694FF4403191FAC0
:1022C000A1F1B1FA81F18B401343E2684FF07061E4
:1022D00091FAA1F1B1FA81F18A401A43A3684FF053
:1022E000E04191FAA1F1B1FA81F18B401343114A17
:1022F000C2F884300F4A136843F080631360FEF71E
:10230000C1F8064605E0FEF7BDF8801B642800F220
:102310001281084B1B6813F0006FF4D0002D00F001
:102320000C81044A136823F080531360FEF7AAF867
:10233000054607E000380240FEF7A4F8401B642879
:1023400000F2FD80804B1B6813F0005FF4D123681E
:1023500013F4002F01D0E26B2AB113F4801F47D091
:10236000236C002B44D17848D0F8885005F44035D0
:102370004FF4403292FAA2F3B3FA83F3DD40D0F87F
:10238000881001F0E0464FF0E04393FAA3F1B1FA70
:1023900081F126FA01F1676947F6C07696FAA6F64A
:1023A000B6FA86F607FA06F692FAA2F2B2FA82F2C4
:1023B00005FA02F246EA0205A2694FF0706696FA43
:1023C000A6F6B6FA86F6B2402A4393FAA3F3B3FA16
:1023D00083F301FA03F31343C0F88830D0F88C304C
:1023E00023F4F853A26A013A43EA0223C0F88C307E
:1023F000236813F4001F3DD0E36FB3F1006F39D1B0
:10240000514ED6F8880000F070604FF0706292FA7A
:10241000A2F3B3FA83F3D840D6F8881001F0E04174
:102420004FF0E04595FAA5F3B3FA83F3D940676915
:1024300047F6C07393FAA3F3B3FA83F307FA03FEE4
:10244000236A4FF4403797FAA7F7B7FA87F7BB40EC
:102450004EEA030392FAA2F2B2FA82F200FA02F210
:102460001A4395FAA5F3B3FA83F301FA03F313437E
:10247000C6F88830236813F0080F41D0324DD5F8E4
:10248000882002F070624FF0706191FAA1F3B3FA04
:1024900083F322FA03F6D5F8883003F440334FF47F
:1024A000403090FAA0F2B2FA82F223FA02F267699F
:1024B00047F6C07393FAA3F3B3FA83F39F4090FAFD
:1024C000A0F3B3FA83F302FA03F33B4391FAA1F2C8
:1024D000B2FA82F206FA02F21343E2694FF0E041E7
:1024E00091FAA1F1B1FA81F18A401343C5F888301D
:1024F000D5F88C3023F44032E36A1343C5F88C30AE
:10250000114A136843F080531360FDF7BBFF044684
:1025100004E0FDF7B7FF001B642812D80A4B1B68C4
:1025200013F0005FF5D000200CE003200AE0032048
:1025300008E0032006E0032004E0002002E003207E
:1025400000E0032003B0F0BD00380240704700BF38
:1025500010B504460368DA6812F4807F0BD09B68DC
:1025600013F4805F07D000F095F92268D368DBB2DE
:1025700063F4C073D3602368DA6812F4007F0CD070
:102580009B6813F4005F08D0204600F083F82268AF
:10259000D368DBB263F42073D3604FF40032024B94
:1025A0005A610123637710BD003C014038B50368D0
:1025B000DA6812F0400F14D104464FF0FF32DA60AF
:1025C000FDF760FF054605E0FDF75CFF401BB0F539
:1025D0007A7F08D82368DB6813F0400FF4D000201E
:1025E00038BD002038BD032038BD00BF002849D0C9
:1025F00038B50446437F13F0FF0F03D10023037760
:10260000FFF7A4FF022363772368CA225A62236874
:1026100053225A622046FFF7C9FF024630B12368B1
:10262000FF225A620423637701222EE02168886822
:10263000174B03408B6020688568636821691943E4
:1026400063690B432B4383602368E1681961216848
:102650000B69A06843EA00430B612168CB6823F053
:102660008003CB602168CB6C23F00803CB64216826
:10267000C86CA3690343CB642368FF21596201231B
:10268000637702E0012210467047104638BD00BF54
:10269000BFFF8FFF704700BF704700BFE8B138B57C
:1026A00004460D4690F82C3013F0FF0F04D10023A0
:1026B00080F82D30FFF7F0FF022384F82C30211D25
:1026C000206800F023F962682946206800F05AF972
:1026D000012384F82C30002038BD0120704700BF52
:1026E00038B590F82C30DBB2022B14D00D460446DE
:1026F000022380F82C30006800F092F92B68022B3E
:1027000004D1052384F82C30002038BD012384F83F
:102710002C30002038BD022038BD00BF90F82C308E
:10272000DBB2022B0CD010B50446022380F82C300B
:10273000006800F0A1F9012384F82C30002010BDBE
:1027400002207047F0B5B3B0054600233193012253
:1027500024922A934FF480332593474B0C9324A85B
:10276000FEF7A4FF00287CD132A8202340F8C83D02
:10277000FFF7DCFA0446002875D1404A136F43F492
:10278000004313673E4E3F4B33600027776063235F
:10279000B3600923F36037617761B7613046FFF7B3
:1027A00025FF3068CA23436253234362836823F4BE
:1027B00080738360C368DBB263F4C073C360319716
:1027C0000AE0319A531C31932F4B1B682F49A1FB10
:1027D0000313B2EB531F48D0C36813F0010FF0D0BE
:1027E0000123C361836843F480738360836843F487
:1027F00080538360264B1A6842F400321A609A684C
:1028000042F400329A601E4B1868C36813F0400F00
:1028100014D14FF0FF33C360002331930AE0319AA3
:10282000531C3193184B1B681849A1FB0313B2EBDF
:10283000531F1CD0C36813F0400FF0D00022426039
:1028400002600F4B1B68D96821F08001D960FF211D
:10285000596229462920FDF73BFE2920FDF768FE35
:1028600006E0012404E0012402E0012400E0012448
:10287000204633B0F0BD00BF00031900003802400D
:10288000F0030020002800400C000020ABAAAAAAF8
:10289000003C014010B582B0044600230193FDF7CF
:1028A000E9FD2368CA225A62236853225A622368C8
:1028B0004FF0FF32DA600AE0019A531C01930D4B8E
:1028C0001B680D48A0FB0303B2EB531F04D0216823
:1028D000CB6813F0400FEFD000234B6022681360E9
:1028E0002268D36823F08003D3602368FF225A62F2
:1028F00002B010BD0C000020ABAAAAAA08B502487D
:10290000FFF726FE08BD00BFF003002030B40B68BF
:10291000012B16D003681A4C1C404A688B681A4376
:10292000CB681A430B691A434B691A438B691A43E4
:10293000CB691A430B6A13434A6A13432343036068
:102940001AE0046824F4F842CC690B6A1C434B6A11
:10295000234342EA03044368094D1D404A688B68DB
:102960001A43CB681A430B691A434B6913438A69AC
:1029700013432B4304604360002030BC704700BF0A
:102980000080FFFFF0B5012A20D0836803F0704E6D
:102990000B685A1E4E68013E42EA06178D68013DDB
:1029A00047EA0526CC68013C46EA04350A69013A43
:1029B00045EA02444B69013B44EA03528B69013BFF
:1029C00042EA03634EEA0303836024E08368134A08
:1029D0001A40CF68013F4B69013B1B0543EA0733AF
:1029E00042EA0307C36803F0704E0B685E1E4C6832
:1029F000013C46EA04158A68013A45EA02240B695B
:102A0000013B44EA03428B69013B42EA03634EEA1D
:102A100003038760C3600020F0BD00BFFF0F0FFFFE
:102A200070B582B004461546002301930A684B68CE
:102A300013438A68013A43EA4213CA6843EA4223CD
:102A40000193019B0361FDF71DFD064608E0B5F10A
:102A5000FF3F05D055B1FDF715FD801B854207D31B
:102A6000A36913F0200FF2D1002002E0032000E060
:102A7000032002B070BD00BF436943EA41014161D8
:102A800000207047FEE700BF08B5034800F048F893
:102A90000120FFF7F7FF00BFFC57000808B50D4BFA
:102AA0001B6813B90C4A0B4B1A600A4B1A68C31CFB
:102AB00023F00303134409498B4206D902F086F937
:102AC0000C2303604FF0FF3008BD02490B60104635
:102AD00008BD00BF940000206805002000FC042011
:102AE00001230360014B0B60704700BF040000200E
:102AF0000FB400B583B004AB53F8042B01938021CD
:102B0000064802F04DFB002803DD0146034800F0B3
:102B100049F803B05DF804EB04B070479C00002056
:102B200010B5044602F0CCFA0146204600F03AF80F
:102B30000121024800F036F810BD00BFD45800084B
:102B40002DE9F04385B004460F46435613BB0425D8
:102B500028462146ABBE04461FE03546102E28BF4E
:102B60001025002306E014F9011B04AA1A4402F8F8
:102B7000101C0133AB42F6D304AA1344002203F81D
:102B8000102CE9464FF0040840464946ABBE80464B
:102B9000761B00E00E46002EDFD1384605B0BDE8BA
:102BA000F08300BF08B5FFF7CBFF08BD08B500F004
:102BB00097F8024B024A9A6008BD00BF00ED00E0A2
:102BC0000000000808B500F0ABF808BDF8B50446F1
:102BD0000D4617461E462648FFF78AFF21682548FE
:102BE000FFF786FF61682448FFF782FFA16823484A
:102BF000FFF77EFFE1682248FFF77AFF216921484D
:102C0000FFF776FF61692048FFF772FFA1691F484F
:102C1000FFF76EFFE1691E48FFF76AFF1D48FFF7E7
:102C200067FF29461C48FFF763FF1C4CE16A1C48FC
:102C3000FFF75EFF216B1B48FFF75AFFE16B1A4855
:102C4000FFF756FF15F0800F03D039461748FFF7FE
:102C50004FFF15F4004F03D031461548FFF748FFEA
:102C60001448FFF745FF06991348FFF741FFF8BDE9
:102C70003C5800084C5800085C5800086C58000884
:102C80007C5800088C5800089C580008AC58000874
:102C9000BC580008CC580008D858000800ED00E0E7
:102CA000E8580008F85800080859000818590008A2
:102CB00028590008385900084059000883691A88C3
:102CC0008A4207D10268033A012A05D80233836198
:102CD000012070470020704700207047FEE7000089
:102CE0000B4B1A6842F001021A60002199601868C3
:102CF000084A02401A60084A5A601A6822F4802280
:102D00001A60D9604FF00062044B9A60704700BFB0
:102D100000380240FFFFF6FE1030002400ED00E016
:102D2000224B9B6803F00C03042B07D0082B09D01F
:102D3000002B2DD11E4A1F4B1A602CE01E4A1D4B42
:102D40001A6028E0194B5A685B6803F03F0312F4DD
:102D5000800F09D0184AB2FBF3F2144B5B68C3F33F
:102D6000881303FB02F208E0114AB2FBF3F30F4AA7
:102D70005168C1F3881101FB03F20C4B5B68C3F38C
:102D8000014301335B00B2FBF3F30A4A136002E034
:102D9000074A084B1A60054B9B68C3F30313074AA5
:102DA000D15C044A1368CB4013607047003802407E
:102DB0000024F4000C00002040787D0184590008B4
:102DC00008B5FDF765FB08BD11207047F0B583B06D
:102DD00004460D4616461F460F484FF440334360E5
:102DE00000238360089BC3600C4B0360FDF726FD46
:102DF00080B921460848FDF72BFE58B900973346A5
:102E00002A4609990448FDF765FD18B90A210248C8
:102E1000FDF77CFD03B0F0BD3004002000B002409F
:102E200070B586B0144B1A6B42F400721A631B6BB8
:102E300003F400730093009B4FF4004501950126B5
:102E400002960396032304930C4C01A92046FEF737
:102E500047F9002229462046FEF72CFA1420FDF7F8
:102E600017FB324629462046FEF724FA0A20FDF7D2
:102E70000FFB06B070BD00BF0038024000240240C6
:102E8000014B1868704700BF10000020014B186804
:102E9000704700BF1C00002070B58EB004460E467F
:102EA00000250195FFF7ECFF02900395FFF7EEFF79
:102EB000049005950A96FF23069307958DF83450E4
:102EC0008DF835508DF836504FF4C06308930723C2
:102ED0000993FFF7D5FF0B90FFF7D8FF0C90224620
:102EE00001A90A48FEF744FB094A6100081983005A
:102EF00013444FF0FF305860064898600C44A3001C
:102F00004FF07F41D1500EB070BD00BF880400204B
:102F10008C01002014000020014B1860704700BF96
:102F20001C010020034B1B6803EB43039A00024B78
:102F3000985070471C0100208C010020044B1B6836
:102F400003EB43039A00034B1A449060704700BFA1
:102F50001C0100208C010020044B1B6803EB430381
:102F60009A00034B1A449068704700BF1C01002070
:102F70008C010020F0B583B007460B4B1C6834234E
:102F80000A4A03FB0423DD6DFFF77AFF0646FFF7CD
:102F90007DFF0197002300930346324629462046D1
:102FA000FFF714FF03B0F0BD1C01002088040020CF
:102FB00000B583B0054B196800230093292315221F
:102FC0000348FEF709F803B05DF804FB2001002078
:102FD0001404002000B583B0012808D80B784A7883
:102FE0000092152200210848FDF7F6FF08E00B5C6F
:102FF000019100930346392200210348FEF71AF895
:1030000003B05DF804FB00BF1404002000B585B0D8
:10301000274B5A6C42F080625A645A6C02F080620C
:103020000192019A5A6A42F080625A625A6A22F008
:1030300080625A621A6B42F400021A631A6B02F43D
:1030400000020292029A1A6942F400021A611A6995
:1030500022F400021A615A6C42F000625A645A6CFF
:1030600002F000620392039A5A6A42F000625A62C6
:103070005A6A22F000625A62002203215820FDF7AA
:1030800027FA5820FDF754FA002203215A20FDF7B1
:103090001FFA5A20FDF74CFA002203216220FDF7A7
:1030A00017FA6220FDF744FA05B05DF804FB00BF93
:1030B000003802402DE9F04784B00746FFF7B0FE24
:1030C000FFF782FE112840F0AD80FFF79FFF574CBD
:1030D000574B23602046FDF705FE6423019305232B
:1030E0000293002303930123E3600423A3600DEB09
:1030F00003012046FDF742FD47B94FF4F0724D4BF6
:103100001A604FF448724C4B1A6007E04FF4487253
:10311000484B1A604FF4F072474B1A60DFF8149175
:10312000D9F80030DFF81081D8F80020434C002592
:103130002560052161602562E56165620221E1602B
:1031400040F6FF71A161656123618F21A16240F2A8
:103150001111E16203F22F114FF2244303FB01F33B
:103160003749A1FB03135B0B23630C236363A36346
:10317000E36322644FF4004363641023A364E564B3
:103180004FF4005323654FF4805363654FF400639D
:10319000A3654FF48063E3654FF4007323664FF437
:1031A00080736366DFF884A021465046FDF7CAFDB0
:1031B000244E3E237361B623F361D9F8003003F146
:1031C000B602726203F59772F2623366D8F8003085
:1031D00073661D48082303604FF4C07343610723DF
:1031E000C361C562FEF7A2FD86F8345086F83550FB
:1031F00086F836503561154B336021463046FEF770
:10320000E5F93046FEF734F95046FDF7CDFE00F003
:103210004DFA0F48FFF792FE3946284600F00CFBA6
:10322000284600E0012004B0BDE8F0871404002027
:10323000006C0140100000201C0000202001002034
:10324000E31C754C88040020A401002000680140A4
:103250001400002008B50120FFF72CFF08BD00BFB7
:10326000F8B507460C461646064B1A683421064B3D
:1032700001FB0233DD6DFFF703FE00FB047045F830
:103280002060F8BD1C010020880400202DE9F04FCB
:1032900083B081460F460092324B1B6803EB430319
:1032A0009A00314B1A449368DA8801929D8805F19F
:1032B000070B4FEAEB0BC5EBCB085FFA88F84FF032
:1032C000000A48E00AFB0BF3009A1A44BBF1010F15
:1032D00003D0BBF1020F03D008E0009AD65C0DE0EA
:1032E0000099CE5C537843EA062607E00099CE5C4D
:1032F00053781B0243EA064396781E43002424E0D9
:103300002B1B4344013B012202FA03F333420DD04D
:10331000144B1B6803EB43039A0009EB0400124BA8
:103320009A58394680B2FFF79BFF0DE00D4B1B68A2
:1033300003EB43039A000C4B1A4409EB0400526858
:10334000394680B2FFF78CFF0134AC42D8D3013745
:10335000BFB20AF1010A019B9A45B3D303B0BDE89D
:10336000F08F00BF1C0100208C01002038B50A4BF3
:103370001B6803EB43039C00084B1C44A3681C68B8
:10338000203ADD8802FB05F29B880733DB1003FB44
:103390000242FFF77BFF38BD1C0100208C0100209A
:1033A0002DE9F04105460F4616469846134600247F
:1033B00001E0013413465A1C1B78002BF9D1FFF7AA
:1033C0005FFD294B1B6803EB43039A00274B1A440C
:1033D00093689B88B0FBF3F0B8F1010F03D0B8F10C
:1033E000020F07D00BE0001B00FB03F005EB5005BC
:1033F000ADB204E0041B14FB03F0451BADB22BB2CD
:10340000002B00DC0125002412E042463946284604
:10341000FFF7ACFF144B1B6803EB43039A00134BFD
:103420001A4493689B881D44ADB201360134A4B29E
:1034300096F80080FFF724FD0B4B1B6803EB43035A
:103440009A000A4B1A4493689B8803FB140080B2CD
:1034500018F1000218BF0122984238BF0022002A4A
:10346000D3D1BDE8F08100BF1C0100208C010020F9
:1034700038B504460D46FFF76FFDC18811FB04F116
:1034800003232A4689B20020FFF78AFF38BD00BF18
:103490002DE9F04383B081464FF00008CDF8048059
:1034A000204C0126266010276760A660C4F80C80B7
:1034B0001D4D4FF6FF7221462846FFF711F93046A1
:1034C000FCF7E6FF022323606760A660C4F80C8067
:1034D0004FF6FF7221462846FFF702F903232360C7
:1034E00067600823A360C4F80C804FF6FF72214682
:1034F0002846FFF7F5F84FF40C730193042323607B
:103500006760A660019BE3604FF6FF722146284684
:10351000FFF7E6F849462846FFF700F903B0BDE893
:10352000F08300BF3402002030050020F0B58FB0DA
:103530000646554B9A6B42F001029A639A6B02F071
:1035400001020192019A1A6B42F480021A631A6B0B
:1035500002F480020292029A1A6B42F008021A6385
:103560001A6B02F008020392039A1A6B42F01002DF
:103570001A631A6B02F010020492049A1A6B42F05A
:1035800020021A631A6B02F020020592059A1A6B48
:1035900042F040021A631A6B02F040020692069A49
:1035A0001A6B42F080021A631A6B02F080020792D3
:1035B000079A1A6B42F480721A631B6B03F48073D0
:1035C0000893089B02230A9301230B9303270C976C
:1035D0000C230D930EAC4CF2037344F8143D2146BA
:1035E0002A48FDF77DFD4FF683730993214628484D
:1035F000FDF776FD4FF63F03099321462548FDF779
:103600006FFD48F23713099321462348FDF768FD03
:103610004FF62C73099321462048FDF761FD40F2D7
:10362000FF63099321461E48FDF75AFD1D4C0025F6
:1036300065608023A3604FF40073E3604FF4806300
:1036400023614FF4805363614FF48043A361E561CC
:103650004FF4003323626562A762E5622563124B73
:1036600023603463A6632046FDF766F82046FCF726
:10367000FDFF2A460F213820FCF72AFF3820FCF7EF
:1036800057FF0FB0F0BD00BF00380240000C0240F1
:10369000001002400014024000180240001C0240CA
:1036A00000200240600200201064024038B51B4C2C
:1036B0001B4B23601B4D02232B60072169600422F2
:1036C000AA60E9602B616B61AB6100216160A16060
:1036D000E26020232361402363614FF4C073A36140
:1036E000E1614FF4006323624FF480536362A1628F
:1036F0002046FFF71BFF29462046FEF7CFFF18B1F3
:103700000122094B1A7002E00022074B1A7040F2A6
:103710000360FFF7BDFE044B187838BD300500206C
:10372000400100A0440200202000002030B583B0FA
:1037300005463C4B1B681B693B4A1078984728702C
:10374000002868D16BE0374B1B685B6961000DEBAB
:10375000010201A80144344800789847334B1B7894
:1037600013F0080F0AD002AA02EB440232F8041C3C
:1037700032F8080C22F8040C22F8081C13F0020F8F
:1037800009D002AA02EB440131F8040C40F21F32C6
:10379000121A21F8042C13F0040F09D002AB03EB2A
:1037A000440232F8081C40F2DF135B1A22F8083C8E
:1037B00002AB03EB440333F8040C1D4B53F82430E5
:1037C000984202D9C31A9AB201E01B1A9AB202AB0C
:1037D00003EB440333F8081C164B53F8243099428A
:1037E00002D9CB1A9BB201E05B1A9BB21344052BA2
:1037F00005DD0F4B43F824000E4B43F824100C4B0F
:1038000053F8242005EB44035A800A4A52F8242036
:10381000DA80013400E000242B789C4293D300200E
:1038200003B030BDD4020020C8020020C90200202D
:10383000C0020020CC0200202DE9F84F83468946C3
:10384000C04C21460020FFF7C5FBBF490320FFF70E
:10385000C1FBBE4D29460020FFF7BCFBBC4902203E
:10386000FFF7B8FB29460020FFF7B4FBB949002059
:10387000FFF7B0FB0A20FFF7A3FAB7490020FFF7D4
:10388000A9FBB6490020FFF7A5FB0A20FFF798FA2D
:10389000B3490020FFF79EFBB2490020FFF79AFBD7
:1038A000B1490020FFF796FBDFF8948341460020E2
:1038B000FFF790FBAD490020FFF78CFBAC490020DF
:1038C000FFF788FB21460020FFF784FBA949002071
:1038D000FFF780FBA84E31460020FFF77BFBA7498E
:1038E0000020FFF777FBA64F39460020FFF772FB59
:1038F000A4490020FFF76EFBA3490020FFF76AFBF5
:10390000A2490020FFF766FBA1490020FFF762FBF8
:1039100041460020FFF75EFB21460020FFF75AFBDF
:103920009C490220FFF756FB9B490020FFF752FB02
:103930009A490020FFF74EFB99490020FFF74AFB08
:1039400098490020FFF746FB97490020FFF742FB0C
:1039500096490020FFF73EFB31460020FFF73AFB77
:1039600093490020FFF736FB39460020FFF732FB72
:1039700090490020FFF72EFB8F490020FFF72AFB1C
:103980008E490220FFF726FB29460020FFF722FB85
:103990008B490620FFF71EFBDFF8A8A25146002046
:1039A000FFF718FB87490E20FFF714FB864900201C
:1039B000FFF710FB85490E20FFF70CFBDFF888822C
:1039C00041460020FFF706FB81490A20FFF702FB72
:1039D000804F39460020FFF7FDFA7F490020FFF7AE
:1039E000F9FA29460020FFF7F5FA7C490A20FFF78B
:1039F000F1FA7B490020FFF7EDFA7A490F20FFF733
:103A0000E9FA51460020FFF7E5FA77490F20FFF762
:103A1000E1FA6D490020FFF7DDFA74490A20FFF74B
:103A2000D9FA41460020FFF7D5FA71490F20FFF778
:103A3000D1FA39460020FFF7CDFA6E490F20FFF783
:103A4000C9FA6D490020FFF7C5FA6C490A20FFF753
:103A5000C1FA6B490020FFF7BDFA6A490A20FFF757
:103A6000B9FA29460020FFF7B5FA67490A20FFF79F
:103A7000B1FA5B490020FFF7ADFA64490F20FFF768
:103A8000A9FA51460020FFF7A5FA61490F20FFF778
:103A9000A1FA4D490020FFF79DFA5E490A20FFF781
:103AA00099FA41460020FFF795FA5B490F20FFF78E
:103AB00091FA39460020FFF78DFA58490F20FFF799
:103AC00089FA31460020FFF785FA55490020FFF7B3
:103AD00081FA54490020FFF77DFA53490020FFF78F
:103AE00079FA21460020FFF775FA50490320FFF7C5
:103AF00071FA21460020FFF76DFA21460020FFF7FA
:103B000069FA4B491020FFF765FA21460020FFF7BC
:103B100061FA48491020FFF75DFA47490020FFF796
:103B200059FA7820FFF74CF9BBF1000F00F08E80B6
:103B3000BBF1020F40F08E8040490020FFF74AFAA7
:103B400088E000BFA87400086C740008AC7400081A
:103B5000CC740008B0740008B4740008B87400088D
:103B6000BC740008C0740008C474000854760008CF
:103B70004C7400085074000854740008587400080D
:103B80005C7400086074000874740008A074000875
:103B9000D07400087C7400088075000884750008E3
:103BA000887500088C7500089075000894750008E9
:103BB000987500089C750008A075000880740008BE
:103BC000847400088C74000864740008347500085C
:103BD000C87500089C740008B4750008D475000806
:103BE00070740008E0750008F075000800760008A1
:103BF0000C7600081C7600080C7500082C7600086E
:103C0000787400083876000844760008EC740008E0
:103C1000FC74000844750008107500082075000841
:103C2000B8750008BC750008C0750008307500083C
:103C30005C750008D4740008E87400085875000822
:103C4000C8740008A47500086874000818490020AA
:103C5000FFF7C0F9B9F1010F0BD116490020FFF7AA
:103C6000B9F915490420FFF7B5F914490420FFF705
:103C7000B1F913490020FFF7ADF912490020FFF711
:103C8000A9F911490020FFF7A5F910490020FFF715
:103C9000A1F90F490020FFF79DF90E490020FFF719
:103CA00099F90D490020FFF795F90020BDE8F88F3C
:103CB000787500087C75000870750008507500085C
:103CC000A4740008C475000850760008A8750008A0
:103CD000AC750008A8740008B075000808B54FF06E
:103CE0007F40FFF71FF90248FFF728F908BD00BF22
:103CF0001400002008B5FFF7ADFA4FF04041002056
:103D0000FFF7CAF8FFF754F90020FFF705F94FF065
:103D1000FF30FFF72FF908BD08B50A6002228A605C
:103D200000224A60FDF7DCF908BD00BF30B583B062
:103D3000174B1A6B42F020021A631A6B02F0200232
:103D40000092009A1A6B42F400721A631B6B03F420
:103D500000730193019B0F4D80220F492846FFF706
:103D6000DBFF0E4C10220E492046FFF7D5FF022242
:103D70000C492046FFF7D0FF40220B492846FFF7A9
:103D8000CBFF012209492046FFF7C6FF03B030BD33
:103D90000038024000140240EC02002000240240DF
:103DA000D80200202C030020140300200003002070
:103DB00000B593B0012300934FF4803301930223A5
:103DC00006934FF480020792192208924FF4C872AA
:103DD00009920A9309230B9307230C936846FDF776
:103DE00065FC00B1FEE7FDF721FC00B1FEE70F2303
:103DF0000D9302230E9300230F934FF4A0531093BF
:103E00004FF48053119307210DA8FDF7BFFE00B1B9
:103E1000FEE7FDF785FF094BA3FB00308009FCF7A7
:103E200093FB0420FCF7A6FB002211464FF0FF3065
:103E3000FCF74EFB13B05DF804FB00BFD34D6210DE
:103E400010B4BFF34F8FBFF36F8F1A4B0021C3F82D
:103E500050125A6942F400325A61BFF34F8FBFF3D8
:103E60006F8FC3F88410BFF34F8FD3F88040C4F333
:103E70004E3000E01846C4F3C90200E01A4643F68B
:103E8000E07303EA401343EA82730A49C1F86032DF
:103E9000531E002AF2D1431E0028EBD1BFF34F8FEF
:103EA0004B6943F480334B61BFF34F8FBFF36F8F88
:103EB00010BC704700ED00E008B5FFF7C1FFFCF74C
:103EC000C7FAFFF775FF08BD042830D8DFE800F017
:103ED000031D0B14260001EB8101C8000244154BA1
:103EE00053F822007047C1EB411001EB80008118AC
:103EF000114B53F821007047C1EB411301EB8303D1
:103F000099180E4B53F821007047C1EB411301EB98
:103F1000830111440A4B53F821007047C1EB411350
:103F200001EB83011144074B53F821007047002037
:103F3000704700BF58760008A87802087C83010803
:103F4000CC6C0308588F0008F8B50546C160002402
:103F500004614461846100F12003046244620463EB
:103F60008362C3624FF0FF330360FEF789FF0421D1
:103F700000F024FF6860FEF783FF042100F01EFFBD
:103F8000A860FEF77DFF84421BD26E68FEF77EFFBD
:103F9000042100F013FF46F824006B6853F8243026
:103FA00003B9FEE7AE68FEF771FF042100F006FFDB
:103FB00046F82400AB6853F8243003B1FEE701341F
:103FC000DFE700273E46FEF75BFF87421CD2002456
:103FD000FEF75CFF844214D22A6821463846FFF778
:103FE0003FF96B6853F826302A6843F82420AB6801
:103FF00053F826304FF0FF3243F824200134A4B2A6
:10400000E6E70137BFB2DDE72846F8BD10B401800E
:1040100042808380BDF80430C3809DF8083003726D
:1040200010BC7047F8B50646016000252F46FEF724
:1040300027FF854214D20024FEF728FF84420CD2C9
:1040400033685B6853F8273053F82420214628460C
:10405000FFF706F90134A4B2EEE70135ADB2E5E7AA
:10406000F8BD00BF10B582B00446022301937D2342
:104070000093FFF7CBFF204602B010BD10B50446F9
:104080000021FFF761FF204610BD00BFF0B583B0EF
:1040900004460D460123009342680368D31A9B101F
:1040A00001930BB9694600E001A90E681E4423681C
:1040B000D21AB6EBA20F03D3B6F1804F03D204E0BD
:1040C0006FF0404601E06FF040464EB1B6F1804FD0
:1040D00001D300F002FAB00000F0EEF9074600E06C
:1040E0000027636822689B1A2A68DF4200D0FA50D2
:1040F000216865686D1AAB0803D02A46384600F07F
:10410000F2FE3D440435206808B100F0D3F9276081
:10411000656007EB8606A66003B0F0BD2DE9F041AF
:1041200082B0044601918B88CD88002D18BF002BEA
:104130000CBF012500250E881E44FEF7A1FE864215
:1041400028BF45F00105019B5888DB88C618FEF79B
:104150009DFE864234BF284645F0010000286FD1FD
:10416000019D2F8839463E46AB883B44994213DA7D
:104170006E883346EA88324493420ADAA26852F8DB
:10418000212052F82320B2F1FF3F5AD101339BB2D4
:10419000F0E7013189B2E6E7019B19889A880A4461
:1041A00096422CDA5D88019A5188D3880B449D424F
:1041B00023DAA3684FEA860853F82620AF00636924
:1041C00021695B1A9B1042F82530019B19885A8897
:1041D000AA1A711A07D49888814204DA002A02DBED
:1041E000D888824200DBFEE7187AFFF76DFE63682D
:1041F00053F80830D8510135D5E70136CCE704F142
:10420000100043688268934206D0019A03B11A6095
:1042100043680433436002E001A9FFF737FF0A4B0C
:104220001B6833B9042000F047F900230360064BF4
:1042300018602146044B1868FFF7F4FE012000E0E7
:10424000002002B0BDE8F0812803002008B5FFF788
:1042500065FF08BD38B504460A2000F02DF9054673
:1042600028221146FFF7FEFE29462046FFF7EEFF03
:1042700038BD00BF10B5FFF71FFEFFF73BFDFFF78E
:104280002DFDFFF753FD342000F016F90446FFF72B
:10429000F5FE2046FFF7DEFFFEE700BF70B582B0F7
:1042A00005460E4619B9914203D1002302E00023CE
:1042B00000E0012313B1114800F012F9941B01949E
:1042C0000F2C07D9002201A9284600F0BDF928606B
:1042D000019BAB602868012C03D196F90030037074
:1042E00004E01CB12246314600F0F2FD019B6B60F8
:1042F0002A680021D15402B070BD00BF04780208C2
:10430000B0F5005F40F0A58030B599B000200123E2
:104310000370FFF70BFA002840F0998000235D88B6
:10432000DC884C4B1B6833B9042000F0C5F800232F
:104330000360484B1860474B1B681A686AB1936862
:1043400053F8253053F82410536912699A1A9210C1
:104350008A4202D8404800F0C9F808AB06933F49AA
:104360004FF000030A4606A8FFF798FF0A226946A5
:10437000284600F048FD0A2203A9204600F043FD2C
:104380000EAB0C93684600F09BFE4FF000030DEB64
:10439000000269460CA8FFF781FF14AB129303A833
:1043A00000F08EFE4FF0000303AA024403A912A8F6
:1043B000FFF774FF079BC3F1FF4303F5FF0303F50A
:1043C000FF437F33032B02D8254800F08CF80422EA
:1043D000244906A800F0A3F90D9A0C9900F09FF962
:1043E00043686FF000429A4202D11D4800F07BF80A
:1043F00001221D4900F093F94368C3F1FF4303F51F
:10440000FF0303F5FF437F33032B02D8144800F06A
:104410006AF80422154900F082F9139A129900F003
:104420007EF906990120FFF723F8129814AB984201
:1044300001D000F03FF80C980EAB984201D000F08C
:1044400039F8069808AB984201D000F033F819B05B
:1044500030BD704728030020307802083858000823
:104460007C780208947802089C780208A0780208F8
:10447000704700BFFEE700BFFEE700BFFEE700BFDA
:10448000FEE700BF704700BF704700BF704700BF26
:1044900008B5FBF7EFFF08BD08B5054B5B6913F4E2
:1044A000005F03D04FF40050FCF70AFF08BD00BFC7
:1044B000003C014000F0B2BC10B5002814BF044617
:1044C0000124204600F0A2FC30B900F04BF908B9F5
:1044D000FEF7DAFA8047F4E710BD08B5FEF7D4FA24
:1044E00008B5FEF7D1FA08B5FEF7CEFA0FB480B5DD
:1044F00082B000AF07F1100454F8045B284600F0C6
:10450000DFFD00F20E2323F00703ADEB030D00F5F2
:10451000007123462A4668467C6000F04FF8FEF79B
:10452000B3FA000080B59CB000AF0E1A80466C2232
:104530000E49381D00F0CCFC06F17A0323F0070386
:10454000ADEB030D6B22391D751C684600F0C0FCF5
:104550006D44324641460DF16B0000F0B9FC00237A
:1045600085F86A306846FFF7BBFF00BFF0600408BB
:104570002DE9F04184B004AF88B0012302930223F7
:1045800001930D4B1B680093064600230AA888463A
:1045900000F0F0F8404504AD044607D8C0F118011A
:1045A00002462944304600F093FC01E04FF0FF340E
:1045B0002046BD46BDE8F0812400002001392DE9E8
:1045C000F04106461546471804462A789AB3BC427D
:1045D0002DD2252A23D16A78732A05D07A2A0ED0C3
:1045E000252A1CD101351AE0191D1B68013B13F85F
:1045F000012FCAB1BC421AD004F8012BF7E7AA7800
:10460000752A0CD11A68391B204603F10408FFF7FC
:10461000AFFF00280BDD044403354346D5E72A7875
:10462000227001350134D0E702350B46CDE7214633
:104630003046FFF777FF2270A01BBDE8F0810AB17A
:1046400000F046BC7047000008B50B68B3F1004F9E
:1046500002D30A48FFF747FF934209D95200934219
:1046600006D2B2F1004F2ABF6FF000430A600B6020
:104670000868BDE808400130FFF71EBF5C61040810
:10468000034653F8080B984201D0FFF713BF704759
:10469000012A10B502D10A78027010BDFFF7CFFFD2
:1046A00010BD2DE9F3470A9D99464368C1EB030805
:1046B0002B449B1A1746C2EB08080268019300F1CD
:1046C00008039A420E4614BF82680F2201A90446CD
:1046D000FFF7BAFF82461EB132462168FFF7D8FFC6
:1046E000B9F1000F06D02DB12A4649460AEB060063
:1046F000FFF7CEFFB8F1000F07D0216837447019DB
:10470000424639445044FFF7C3FF2046FFF7B8FF45
:10471000019BC4F800A0A36002B0BDE8F08773B5A8
:1047200004462646406856F8083BB34218BFA668C0
:1047300000EB020508BF0F26B54204D852B1184459
:10474000FFF7A6FF06E000920B4600220146204636
:10475000FFF7A7FF23686560002220465A5502B084
:1047600070BD0000024B1868BFF35F8F704700BF39
:10477000400300202DE9F04114469DF82020DDF88B
:1047800018801D460746079BB2B1064620462946BB
:104790000A22002300F086F942442046137906F8E5
:1047A000013D294600230A2200F07CF904460D460B
:1047B00054EA0503EAD129E003F04A02402A10D165
:1047C000064604F007034344EA081B7906F8013D56
:1047D000E30843EA45731C46154654EA0503F0D145
:1047E00014E013F4804F14BF1422042206464244FE
:1047F00004F00F032909D35C06F8013D230943EABD
:1048000005731C460D4654EA0503F1D1B81BBDE8FB
:10481000F0810000244B1A68D0075CBF01221A60A7
:10482000224B1A68D1075CBF01221A60204B1A681C
:10483000D2075CBF01221A601E4B1A68D0075CBF0A
:1048400001221A601C4B1A68D1075CBF01221A6052
:104850001A4B1A68D2075CBF01221A60184B1A68FB
:10486000D0075CBF01221A60164B1A68D1075CBFE3
:1048700001221A60144B1A68D2075CBF01221A6029
:10488000124B1A68D0075CBF01221A60104B1A68DD
:10489000D1075CBF01221A600E4B1A68D2075CBFB9
:1048A00001221A60704700BF700300206C030020D3
:1048B0006803002064030020600300205C030020E4
:1048C0005803002054030020500300204C03002014
:1048D0004803002044030020184B1A68D1075CBF2E
:1048E00001221A60164B1A68D2075CBF01221A60B7
:1048F000144B1A68D0075CBF01221A60124B1A6869
:10490000D1075CBF01221A60104B1A68D2075CBF46
:1049100001221A600E4B1A68D0075CBF01221A6090
:104920000C4B1A68D1075CBF01221A600A4B1A6847
:10493000D2075CBF01221A60704700BF90030020BD
:104940008C030020880300208403002080030020C3
:104950007C0300207803002074030020184B1A68A1
:10496000D1075CBF01221A60164B1A68D2075CBFE0
:1049700001221A60144B1A68D0075CBF01221A602A
:10498000124B1A68D1075CBF01221A60104B1A68DB
:10499000D2075CBF01221A600E4B1A68D0075CBFB9
:1049A00001221A600C4B1A68D1075CBF01221A6001
:1049B0000A4B1A68D2075CBF01221A60704700BF19
:1049C000B0030020AC030020A8030020A4030020B3
:1049D000A00300209C0300209803002094030020E3
:1049E000244B1A68D0075CBF01221A60224B1A6858
:1049F000D1075CBF01221A60204B1A68D2075CBF46
:104A000001221A601E4B1A68D0075CBF01221A608F
:104A10001C4B1A68D1075CBF01221A601A4B1A6836
:104A2000D2075CBF01221A60184B1A68D0075CBF1E
:104A300001221A60164B1A68D1075CBF01221A6066
:104A4000144B1A68D2075CBF01221A60124B1A6815
:104A5000D0075CBF01221A60104B1A68D1075CBFF7
:104A600001221A600E4B1A68D2075CBF01221A603D
:104A7000704700BFE0030020DC030020D8030020C3
:104A8000D4030020D0030020CC030020C803002062
:104A9000C4030020C0030020BC030020B803002092
:104AA000B403002053B94AB9002908BF00281CBF2D
:104AB0004FF0FF314FF0FF3000F07EB9ADF1080C40
:104AC0006DE904CE00F006F8DDF804E0DDE902232C
:104AD00004B070472DE9F0478C460E460446089D09
:104AE000002B50D18A4217466CD9B2FA82FEBEF131
:104AF000000F0BD0CEF1200420FA04F401FA0EF6D8
:104B000044EA060C02FA0EF700FA0EF44FEA1749CF
:104B1000220CBCFBF9F01FFA87F809FB10C642EA29
:104B2000064600FB08F3B34209D9F61900F1FF323B
:104B300080F02281B34240F21F8102383E44F61ACF
:104B4000A2B2B6FBF9F309FB136642EA064403FB83
:104B500008F8A04509D9E41903F1FF3280F00A8171
:104B6000A04540F20781023B3C44C8EB040443EA01
:104B700000400021002D62D024FA0EF400232C60A6
:104B80006B60BDE8F0878B4207D9002D55D000211E
:104B900085E841000846BDE8F087B3FA83F10029B3
:104BA00040F09080B34202D3824200F2F880841A2F
:104BB00066EB03060120B446002D40D085E81010B6
:104BC000BDE8F08712B90127B7FBF2F7B7FA87FE05
:104BD000BEF1000F35D1F31B4FEA17481FFA87FCCF
:104BE0000121B3FBF8F0220C08FB103642EA06461E
:104BF0000CFB00F3B34207D9F61900F1FF3202D2E1
:104C0000B34200F2CE801046F61AA2B2B6FBF8F319
:104C100008FB136642EA06440CFB03FCA44507D9D3
:104C2000E41903F1FF3202D2A44500F2B580134625
:104C3000CCEB040443EA00409CE729462846BDE843
:104C4000F087CEF1200106FA0EF307FA0EF720FAEC
:104C500001F94FEA1748CE4049EA0309B6FBF8FAD2
:104C60004FEA194408FB1A661FFA87FC44EA064318
:104C70000AFB0CF29A4200FA0EF40AD9DB190AF187
:104C8000FF3180F087809A4240F28480AAF1020AC4
:104C90003B449B1A1FFA89F9B3FBF8F108FB113367
:104CA00049EA034301FB0CF69E4207D9DB1901F1E7
:104CB000FF326BD29E4269D902393B449B1B41EAC9
:104CC0000A418EE7C1F1200E22FA0EF48B402343F5
:104CD00020FA0EF706FA01F44FEA134C26FA0EF604
:104CE0003C43B6FBFCF9270C0CFB19661FFA83F852
:104CF00047EA064609FB08F7B74202FA01F200FA52
:104D000001FA08D9F61809F1FF3041D2B7423FD96C
:104D1000A9F102091E44F61BA0B2B6FBFCF40CFB81
:104D2000146640EA064704FB08F8B84507D9FF189F
:104D300004F1FF3028D2B84526D9023C1F4444EA8A
:104D40000940C8EB0707A0FB02894F4544464E4681
:104D500014D329D065B3BAEB040367EB060707FA4F
:104D60000EFECB40CF404EEA030385E888000021C9
:104D7000BDE8F0871346F8E61046E0E6B8EB02041B
:104D800069EB03060138E5E70446D8E7114695E7E5
:104D90008146C0E78A467CE7023B3C4448E7084638
:104DA0000AE702383E442FE7C245E7D33E46D1E743
:104DB0002946BDE8F08700BF704700BF024B0A4696
:104DC0000146186800F0B2B888000020014B18684E
:104DD000704700BF88000020931E222B10B50C46A0
:104DE00002D90020087010BD0A2A06D1002804DA72
:104DF0002D230B704042012100E00021214400F0EE
:104E000067F9204610BDFFF7E7BF0000024B0146DF
:104E1000186800F0E7B800BF88000020024B014688
:104E2000186800F091B800BF880000200000000062
:104E300001F0FF01102A2BDB10F0070F08D010F84B
:104E4000013B013A8B422DD010F0070F42B3F6D14F
:104E5000F0B441EA012141EA014122F007047FF068
:104E600000070023F0E80256083C85EA010586EABF
:104E7000010685FA47F5A3FA87F586FA47F6A5FAFB
:104E800087F68EB9EED1F0BC01F0FF0102F0070207
:104E900032B110F8013B013A83EA010313B1F8D1B2
:104EA0000020704701387047002D06BF3546033893
:104EB000073815F0010F07D1013015F4807F02BFCC
:104EC000013015F4C03F0130F0BC0138704700BF1D
:104ED00010B5431E0A44914204D011F8014B03F867
:104EE000014FF8E710BD884210B501EB020301D86D
:104EF000421E0BE09842FBD28118D21AD34204D052
:104F000013F8014D01F8014DF8E710BD994204D0A6
:104F100011F8014B02F8014FF8E710BD02440346B7
:104F2000934202D003F8011BFAE7704738B502FB41
:104F300001F4214600F056F8054618B1224600213A
:104F4000FFF7ECFF284638BD38B50546002946D0A6
:104F500051F8043C0C1F002BB8BFE41800F02EF9E8
:104F60001F4A1368114613B96360146032E0A3420C
:104F70000ED92268A018834204BF18685B6863607A
:104F800004BF121822600C6024E0A24203D813462A
:104F90005A68002AF9D118681918A1420BD1216862
:104FA000014458188242196014D1106852685A603E
:104FB000014419600EE002D90C232B600AE021683D
:104FC0006018824204BF10685268626004BF09180A
:104FD00021605C602846BDE8384000F0F0B838BD7C
:104FE000E803002070B5CD1C25F0030508350C2D15
:104FF00038BF0C25002D064601DBA94202D90C233F
:10500000336046E000F0DAF8234B1C681A4621466C
:10501000A1B10B685B1B0ED40B2B03D90B60CC1812
:10502000CD501EE08C420DBF63684B686360136017
:1050300018BF0C4615E00C464968E9E7174C236891
:105040001BB9304600F02CF820602946304600F0AD
:1050500027F8431C18D0C41C24F00304A0420DD12F
:105060002560304600F0ABF804F10B00231D20F062
:105070000700C31A0ED05A42E25070BD211A3046C2
:1050800000F00EF80130EBD10C233360304600F015
:1050900096F8002070BD00BFE8030020E403002064
:1050A00038B5064C0023054608462360FDF7F6FC9C
:1050B000431C02D1236803B12B6038BD10040020CB
:1050C000034613F8012B002AFBD1181A0138704748
:1050D000F0B51C4C8BB003460F466D4604F1200E14
:1050E000206861682E4603C6083474453546F7D1FA
:1050F00021793171911E2068306022294FF0000023
:1051000001D938701CE07D1EB3FBF2F40AAE02FB3D
:1051100014333344411C13F8283C05F8013F23465F
:105120000CB10846F0E77C543A18C11A8B4206DAF3
:10513000F95C1478FC5402F801190133F5E738469C
:105140000BB0F0BD0464040830B5141E05469BB0D6
:10515000184604DA8B232B604FF0FF301DE04FF42C
:105160000273ADF80C3014BF04F1FF3323460293F1
:1051700005934FF6FF7300910491ADF80E3002468F
:105180001E9B6946284600F075F8431CBCBF8B2364
:105190002B6014B1009B00221A701BB030BD0000C0
:1051A00007B5009313460A46014603480068FFF717
:1051B000CBFF03B05DF804FB880000207047704708
:1051C0002DE9F0478E689E4282460C4691469846ED
:1051D0003ED88A8912F4906F3AD0256809696F1A0F
:1051E0006569022305EB450595FBF3F57B1C4344FC
:1051F0009D4238BF1D4653050FD52946FFF7F2FEE5
:10520000064698B13A462169FFF762FEA38923F466
:10521000906343F08003A38113E02A4600F0BAFABA
:10522000064670B921695046FFF78EFE0C23CAF876
:105230000030A38943F04003A3814FF0FF30BDE865
:10524000F087266165613E44ED1B2660A5604646F9
:10525000464528BF4646324649462068FFF743FE8A
:10526000A3689B1BA36023681E4426600020BDE842
:10527000F08700002DE9F04F9DB0804603938B89A5
:105280001C060D4616460DD50B695BB94021FFF78C
:10529000A9FE2860286118B90C23C8F80030CDE0B9
:1052A00040236B610023099320238DF82930DFF818
:1052B0009CB130238DF82A3037463C4614F8013B28
:1052C0001BB9B7EB060910D003E0252BF9D0274610
:1052D000F3E74B46324629464046FFF771FF01305F
:1052E00000F0A780099B4B4409933B78002B00F00A
:1052F000A08000234FF0FF3204930793059206939A
:105300008DF853301A930126052221784E48FFF775
:105310008FFD671C049B38B14B4A801A06FA00F0D7
:10532000184304903C46EFE7D90644BF20228DF88D
:1053300053201A0744BF2B228DF8532022782A2AA3
:1053400003D0079A00210A200BE0039A111D12686E
:105350000391002A10DA524243F0020007920490AF
:105360000BE0274601343B78303B092B03D800FB88
:1053700002320121F5E701B107923B782E2B1ED1B5
:105380007B782A2B0AD1039B1A1D1B680392002BE2
:10539000B8BF4FF0FF330237059310E000230593A9
:1053A000781C19460A24074601303A78303A092A0F
:1053B00003D804FB01210123F5E703B10591032282
:1053C00039782248FFF734FD40B14023CBEB000091
:1053D00003FA00F0049B18430490013739781C4805
:1053E0008DF8281006227E1CFFF722FD88B1194B8C
:1053F00033B9039B073323F007030833039314E007
:1054000003AB00932A46144B04A94046AFF3008037
:1054100007E003AB00932A460F4B04A9404600F077
:1054200093F8B0F1FF3F824603D0099B53440993A0
:1054300042E7AB895B0601D4099801E04FF0FF30E9
:105440001DB0BDE8F08F00BF296404082F64040874
:105450003364040800000000C15100082DE9F04742
:1054600091461F460A698B68DDF820809342B8BFD9
:105470001346C9F8003091F8432006460C4612B195
:105480000133C9F800302368990642BFD9F80030CB
:105490000233C9F80030256815F0060510D104F173
:1054A000190A07E00123524639463046C047013009
:1054B0001AD00135E368D9F800209B1A9D42F1DB30
:1054C00094F843302268003318BF012392060FD5A9
:1054D000E1185A1C302081F84300224494F845100A
:1054E00082F84310023303E04FF0FF30BDE8F0874D
:1054F00004F1430239463046C0470130F4D02268F7
:10550000D9F80050E36802F00602042A08BF5D1BC8
:105510002269A3680CBF25EAE57500259342C4BF44
:105520009B1AED184FF000091A344D4509D001239C
:10553000224639463046C0470130D5D009F101092D
:10554000F3E70020BDE8F0872DE9F04317460A7E17
:1055500085B06E2A984606460C460C9B01F1430E18
:1055600000F0AE8011D8632A22D009D8002A00F0BA
:10557000BB80582A40F0CA8081F84520834955E015
:10558000642A1ED0692A1CD0C0E0732A00F0B080C3
:1055900009D86F2A2ED0702A40F0B8800A6842F0ED
:1055A00020020A603EE0752A24D0782A3AD0ADE085
:1055B0001A6801F14205111D1960136884F8423020
:1055C000A8E021681A6811F0800F02D0111D19603F
:1055D00008E011F0400F02F10401196002D0B2F9A5
:1055E000003000E01368002B3CDA2D225B4284F887
:1055F000432037E021681A6811F0800F02D0111D96
:10560000196007E011F0400F02F10401196001D0A8
:10561000138800E01368227E5C496F2A14BF0A22B7
:1056200008221BE078225A4984F84520226818682D
:1056300012F0800F00F104051D6003D1550601D55D
:10564000038800E00368D00744BF42F020022260D4
:105650001BB9226822F0200222601022002084F868
:10566000430001E049490A226568A560002D08DB76
:10567000206820F0040020602BB9002D7DD17546F4
:105680000CE0002B79D07546B3FBF2F002FB10332F
:10569000CB5C05F8013D03460028F5D1082A0BD163
:1056A0002368DA0708D5236962689A42DEBF30238F
:1056B00005F8013C05F1FF35C5EB0E0323612EE033
:1056C00008681A68496910F0800F03D0101D18602F
:1056D000136808E010F0400F02F10400186013682E
:1056E00001D0198000E0196000232361754616E09F
:1056F0001A68111D19601568626800212846FFF7B5
:1057000097FB08B1401B6060636804E004F1420548
:1057100084F8422001232361002384F84330CDF82C
:1057200000803B4603AA21463046FFF797FE013032
:1057300002D14FF0FF3026E023692A463946304631
:10574000C0470130F5D023689B0710D5002504F130
:10575000190907E001234A4639463046C04701305F
:10576000E7D00135E368039A9B1A9D42F2DBE068BB
:10577000039B9842B8BF184605E00B7884F8423086
:1057800004F142058AE705B0BDE8F08334630408FC
:105790003A640408F8B5074615460E4621B9114685
:1057A000BDE8F840FFF71EBC1AB9FFF7CDFB28464D
:1057B000F8BD00F015F885420ED929463846FFF7A6
:1057C00011FC044650B131462A46FFF781FB3146B1
:1057D0003846FFF7B9FB01E03046F8BD2046F8BD7A
:1057E00051F8040C0028BEBF091851F8043CC01839
:1057F00004387047000610160006101661626F72BA
:105800007428292C2065786974696E672E2E2E0005
:105810006D61696E28617267633D25642C20617239
:1058200067763D5B000000002C20000022257322DB
:10583000000000005D293B0A000000005374616312
:105840006B206672616D653A0A00000020523020BC
:105850003D2020253038580A000000002052312019
:105860003D2020253038580A000000002052322008
:105870003D2020253038580A0000000020523320F7
:105880003D2020253038580A0000000020523132D7
:10589000203D20253038580A00000000204C5220BE
:1058A0003D2020253038580A0000000020504320B9
:1058B0003D2020253038580A000000002050535267
:1058C000203D20253038580A000000004653522F52
:1058D0004641523A0A0000002043465352203D20E0
:1058E00020253038580A00002048465352203D20D9
:1058F00020253038580A00002044465352203D20CD
:1059000020253038580A00002041465352203D20BF
:1059100020253038580A0000204D4D464152203D88
:1059200020253038580A00002042464152203D20B0
:1059300020253038580A00004D6973630A000000C2
:10594000204C522F4558435F52455455524E3D20EE
:10595000253038580A0000005B4861726446617562
:105960006C745D0A000000005B4275734661756CE3
:10597000745D0A005B55736167654661756C745DA3
:105980000A00000000000000000000000102030403
:1059900006070809000000000000000000000000E9
:1059A00000000000000000000000000000000000F7
:1059B00000000000000000000000000000000000E7
:1059C00000000000000000000000000000000000D7
:1059D00000000000000000000000000000000000C7
:1059E0000000038000038000038000038000038028
:1059F000000380000380000380000380000100009A
:105A0000010000000000000000038000038000008F
:105A10000000000000000000000000000000000086
:105A2000000000000000000000000000000E7000F8
:105A30000E70000E700004200004200004200004FA
:105A40002000000000000000000000000000000036
:105A50000000000000000000000000000000000046
:105A60000000000000000000000000000000000036
:105A70000000066000066000066000066000066028
:105A8000003FF8003FF8000660000CC0003FF8003F
:105A90003FF8000CC0000CC0000CC0000CC0000C93
:105AA000C000000000000000000000000000000036
:105AB0000000000000000001800001800007B0002D
:105AC0000FF0001870001870001C00000F80000715
:105AD000E00000F0001830001C30001C70001FE0D7
