:020000040800F2
:1000000000000520DD020008E5020008E902000802
:100010005D03000861030008A90300080000000058
:10002000000000000000000000000000F1030008D4
:10003000F503000800000000F9030008FD030008B4
:10004000392C0008392C0008392C0008392C0008FC
:10005000392C0008392C0008392C0008392C0008EC
:10006000392C0008392C0008392C0008392C0008DC
:10007000392C0008392C0008392C0008392C0008CC
:10008000392C0008392C0008392C0008392C0008BC
:10009000392C0008392C0008392C0008392C0008AC
:1000A000392C0008392C0008392C0008392C00089C
:1000B000392C0008392C0008392C0008392C00088C
:1000C000392C0008392C0008392C0008392C00087C
:1000D000392C0008392C0008392C0008392C00086C
:1000E000392C00088D280008392C0008392C00080C
:1000F000392C0008392C0008392C0008392C00084C
:10010000392C0008392C0008392C0008392C00083B
:10011000392C0008392C0008392C0008392C00082B
:10012000392C0008392C0008392C0008392C00081B
:10013000392C0008392C0008392C0008392C00080B
:10014000392C0008392C0008392C0008392C0008FB
:10015000392C0008392C0008392C0008392C0008EB
:10016000392C0008392C0008392C0008392C0008DB
:10017000392C0008392C0008392C00080000000038
:10018000392C0008392C0008392C0008392C0008BB
:10019000392C0008392C0008392C0008392C0008AB
:1001A000392C0008392C0008392C0008392C00089B
:1001B000392C0008392C0008392C0008392C00088B
:1001C000392C0008392C000800B583B002F09CFCE3
:1001D000304B314A1360314A1360314B314A03E0EE
:1001E00011681960043304322F498B42F8D32A4B2B
:1001F0001A682E4B9A4204D1284B1A682C4B9A420B
:1002000000D0FEE7234B2B4A13602B4A13602B4B85
:1002100002E000221A600433294A9342F9D3254BA5
:100220001B6813B9244B1B6803B1FEE702F078FC8E
:10023000694601A802F012FC224C234B1C1BA4109F
:10024000002504E01F4B53F8253098470135AC4298
:10025000F8DC1E4C1E4B1C1BA410002504E01B4B9D
:1002600053F8253098470135AC42F8DC00990198E5
:1002700003F09CFD0546174C174B1C1BA41004E013
:10028000013C144B53F824309847002CF8DC2846E6
:1002900002F0C0FBBABADECA0000002088000020CD
:1002A000000000206C6500088C0000207856341295
:1002B000325476988C000020A80400208C00002086
:1002C000AC0400203404000834040008340400089E
:1002D00034040008340400083404000808B5FFF7AB
:1002E00073FF00BF00BEFEE71EF0040F0CBFEFF36C
:1002F0000880EFF309807146414A10472DE9F0412B
:1003000082B004468846134B5E6B9F6B9D6A1B6BE5
:1003100013F0020F0DD00F4BDB6A002B09DA4BF6FE
:10032000AB6102F079FC20B14FF00042094BDA6278
:100330000CE0094802F09AFBCDF800803B463246BB
:100340002946204602F0F0FB00BEFEE702B0BDE801
:10035000F08100BF00ED00E00C48000800BEFEE7A1
:100360001EF0040F0CBFEFF30880EFF30980714615
:10037000244A10472DE9F04182B004468846084BD4
:100380005E6B9F6B9D6A074802F070FBCDF80080A2
:100390003B4632462946204602F0C6FB00BEFEE739
:1003A00000ED00E01C4800081EF0040F0CBFEFF346
:1003B0000880EFF309807146134A10472DE9F04198
:1003C00082B004468846084B5E6B9F6B9D6A074867
:1003D00002F04CFBCDF800803B46324629462046D1
:1003E00002F0A2FB00BEFEE700ED00E02848000896
:1003F00000BEFEE700BEFEE700BEFEE7704700005D
:0C040000FD02000875030008BD030008A1
:10040C006C650008000000208C0000206C65000862
:10041C0000000010000000108C000020AC04002034
:08042C000000001000000010A8
:1004400008B5074A136843F400731360032000F0F3
:1004500025F80F2002F03EF901F0B4F8002008BDA5
:10046000003C0240024A136801331360704700BF2A
:1004700030030020014B1868704700BF3003002094
:1004800010B582B00190FFF7F5FF0446FFF7F2FFC9
:10049000001B019B9842F9D302B010BD064AD368F5
:1004A00023F4E0631B041B0C000200F4E06018431B
:1004B000024B0343D360704700ED00E00000FA05F3
:1004C00030B4144BDB68C3F30223C3F10704042CDC
:1004D00028BF04241D1D062D01D9DD1E00E00025C6
:1004E000012303FA04F4013C2140A940AB40013B45
:1004F0001A400A43002806DA00F00F001201D2B2B7
:10050000054B1A5403E01201D2B2044B1A5430BC0A
:10051000704700BF00ED00E014ED00E000E400E0F3
:10052000420900F01F00012303FA00F0014B43F8D9
:100530002200704700E100E00268D3B2103B094995
:10054000A1FB03131B090849C95CC165032B04D92E
:10055000064B13400433836502E0044B134083656C
:10056000806D7047ABAAAAAAE846000800FCFFFF0E
:10057000836A8269BAB9012B09D013B1022B0CD05E
:1005800034E0C36A13F0807F32D100207047C36A21
:10059000B3F1C07F2ED000207047C36A13F0807F74
:1005A0002AD100207047B2F5005F13D1032B03D886
:1005B000DFE803F02404240A00207047C36A13F024
:1005C000807F1DD100207047C36AB3F1C07F19D06E
:1005D00000207047022B17D9032B01D00020704751
:1005E000C36A13F0807F11D100207047002070474C
:1005F000012070470120704701207047012070479B
:10060000012070470120704701207047012070478A
:1006100070B50446FFF72EFF002C5AD00546002384
:1006200084F83430022384F835302268136823F0CC
:10063000010313600AE0FFF71DFF401B052805D9E1
:1006400020236365032084F8350070BD23681A6891
:1006500012F0010FEFD11A681F4810406168A268BC
:100660001143E26811432269114362691143A2698F
:100670001143E2690A43216A114340EA0102616AB7
:10068000042903D1E06A216B01430A431A602668FA
:10069000756925F00705636A1D43042B0BD1A36A16
:1006A0001D432046FFF764FF28B140236365012006
:1006B00084F8350070BD75612046FFF73DFFE26D9F
:1006C0003F239340836000206065012384F8353028
:1006D00070BD012070BD00BF3F8010E030B338B561
:1006E000044690F83530DBB2022B21D00268136843
:1006F00023F001031360036800251D6003685D603B
:1007000003689D600368DD6003681D610368212242
:100710005A61FFF711FFE26D3F23934083606565E7
:1007200084F8355084F83450284638BD012070478D
:10073000022038BDF0B407687E6C06F04046264DB6
:1007400095FAA5F5B5FA85F503FA05F5049C2C4351
:1007500034437C640368DA634368B3F5403F36D1C1
:1007600001F07F4401F47F0501F47F43C9B2826840
:100770001AB92B432343194326E0012A03D145EA42
:100780000302114320E0022A07D1EA0C9C0AD3029B
:1007900043EA441343EAD10116E0032A0AD1E40FE5
:1007A000EA0CDD0A930243EA451343EAC43343EA01
:1007B000D10109E0240F2E0D1A0B360246EA02166B
:1007C00046EA043545EA11110368996301E00368BC
:1007D000D960F0BC704700BF0000FF3F704700BF0A
:1007E000002845D010B5044690F8513013F0FF0FA3
:1007F00004D1002380F85030FFF7F0FF022384F883
:10080000513021680B6823F44032636813430B6056
:1008100021684B6B23F00702A36813434B632168E5
:100820000B6C144A1A40E36813430B642068436B53
:1008300023F4801123694FF4801292FAA2F2B2FAE3
:1008400082F293400B4343632068436B23F400110F
:1008500063694FF4001292FAA2F2B2FA82F2934064
:100860000B43436300206065012384F8513010BDC1
:100870000120704700C0FFFF10B582B090F85040D3
:10088000012C12D00446012084F85000022084F884
:100890005100049800902046FFF74CFF226813682F
:1008A00043F001031360002000E0022002B010BDFD
:1008B00070B582B004460D460023019303681B689F
:1008C00013F0010F3CD0FFF7D5FD064633E05A6820
:1008D0000192019A12F0210F19D0019A12F0200F03
:1008E00003D0626D42F002026265019A12F0010FBC
:1008F00003D0626D42F00102626521229A600423F6
:1009000084F85130002384F8503001206FE0B5F1B5
:10091000FF3F10D025B1FFF7ADFD801B85420AD205
:10092000636D43F020036365032084F851000023C6
:1009300084F850305BE023685A6812F0020FC6D08A
:100940002368DA6912F0200F03D15B6A13F0200FDD
:1009500044D0FFF78FFD06463BE05A680192019AAA
:1009600012F0290F21D0019A12F0080F03D0626D06
:1009700042F004026265019A12F0200F03D0626D0A
:1009800042F002026265019A12F0010F03D0626D1B
:1009900042F00102626529229A60042384F85130F2
:1009A000002384F85030012021E0B5F1FF3F10D042
:1009B00025B1FFF75FFD801B85420AD2636D43F0CE
:1009C00020036365032084F85100002384F850302D
:1009D0000DE023685A6812F0100FBED0236812226F
:1009E0009A60012384F85130002084F8500002B04E
:1009F00070BD00BF90F85030012B7ED070B4012341
:100A000080F85030022380F851304A000A44D30065
:100A100003445E6A9C6A4FF4403292FAA2F2B2FA40
:100A200082F2944034431A6B4FF4801595FAA5F581
:100A3000B5FA85F5AA4022435C6B4FF4001393FA94
:100A4000A3F3B3FA83F304FA03F31343093E012E2D
:100A500008D801EB4104E2000244D26A02F07F426E
:100A60001A430CE001EB4104E2000244D26A4FF069
:100A70007F4494FAA4F4B4FA84F4A2401A43D1B99E
:100A80000468656A1F4B2B401A43626204684A007F
:100A90000A44D30003441A6AA2615B6A093B012B32
:100AA00023D8026801EB4101CB000344DB6A23F049
:100AB0007F43936219E00468E569124B2B401A43A7
:100AC000E26104684A000A44D30003441A6A2261BE
:100AD0005B6A093B012B08D8026801EB4101CB009E
:100AE0000344DB6A23F07F431362012380F8513013
:100AF000002380F85030184601E00220704770BC97
:100B0000704700BFF0FFCC0042EA811242EA0323A3
:100B1000009A43EA0243C366704700BF704700BFB4
:100B2000002800F0A58070B504460E46437C13F003
:100B3000FF0F01D1FFF7F2FF032363742268D2F89D
:100B4000303443F08073C2F83034FFF793FC05462D
:100B500006E0FFF78FFC401BB0F57A7F00F28A8039
:100B60002368D3F80C2412F4805FF2D0D3F8301449
:100B7000424A0A40C3F830242168D1F83004326870
:100B80007368DB0243EA8202B36842EA0343034329
:100B9000C1F830342268D2F8303443F00103C2F88F
:100BA0003034FFF767FC054605E0FFF763FC401BA8
:100BB000B0F57A7F60D82368D3F80C2412F4807FD4
:100BC000F3D0D3F8A02042F00602C3F8A020226898
:100BD000D2F8943023F00303C2F894302268D2F89C
:100BE000941063680B4343F00103C2F89430226809
:100BF000D2F8A43023F00303C2F8A4302268D2F85C
:100C0000A410E3680B43C2F8A4302268936823F071
:100C1000FF03936022689168A3680B439360726836
:100C200002B90122164B03FB02F3B26803FA02F287
:100C3000316846F2A81303FB01F3B2FBF3F321681A
:100C4000D1F8182422F03F02C1F818242168D1F805
:100C500018241343C1F8183423680020C3F8C400D3
:100C60002368C3F8C800A06160610123637470BD8C
:100C700001207047032070BD032070BD0386FCFF78
:100C800000093D00704700BF58B310B50446032368
:100C900043740268D2F8043423F00803C2F8043421
:100CA0000268536823F0010353600268D2F8A03051
:100CB00023F00603C2F8A0300268D2F8303423F0E3
:100CC0000103C2F830340268D2F8303423F0807364
:100CD000C2F83034FFF7D6FF0020606160742074E2
:100CE00010BD0120704700BF037C012B00F0208164
:100CF00030B4012303740268536B23F00103536380
:100D00000268D2F8003423F00103C2F8003402680C
:100D1000936B23F0030393630268946BCB682343C4
:100D200093630268D46B844B2340D3630268D46B13
:100D30000B692343D3630468226C804B1A402264FE
:100D40000468256C4A692A4322640268546C234073
:100D500053640268546C8B69234353640268D368FC
:100D600023F00303D3600268D4680B682343D36085
:100D70000268536923F007035361046865694B6A8D
:100D80000A6A1A43CB6913432B43636102681369F0
:100D900023F00F031361026814694B682343136146
:100DA0000268D2F8003423F00E03C2F8003402685F
:100DB000D2F800344C6843EA4403C2F800344B686C
:100DC000032B09D10268136923F48073136102684D
:100DD00014698B68234313610468A26C584B1A4052
:100DE000A2640468A56C8A6A2A43A2640268D46C6F
:100DF0002340D3640268D46CCB6A2343D364026873
:100E0000146D504B234013650268146D0B6B234324
:100E100013650468626D4C4B1A4062650468656D29
:100E20004A6B2A4362650468A26D1A40A265046891
:100E3000A56D8A6B2A43A2650268D46D2340D365F1
:100E40000268D46DCB6B2343D3650268146E3A4BB2
:100E5000234013660268146E0B6C2343136602680A
:100E6000936B23F4004393630268946B4B6C2343AE
:100E700093630268936923F47F0393610268936923
:100E80008C6C43EA044393610268936923F0FF0387
:100E9000936102689469CB6C234393610268936BFE
:100EA00023F4005393630268946B0B6D23439363A5
:100EB0000268936B23F4805393630268946B4B6DC9
:100EC000234393630268936B23F400639363026884
:100ED000946B8B6D234393630268936B23F480635D
:100EE00093630268946BCB6D234393630268936BA7
:100EF00023F4007393630268946B0B6E2343936334
:100F00000268936B23F4807393630268946B4B6E57
:100F1000234393630268936B23F4804393630268D3
:100F2000946B8B6E2343936300230374184601E094
:100F30000220704730BC704700C0FFFF00E0FFFF99
:100F400000F0FFFF0080FFFF00FCFFFF037C012B90
:100F500011D0012303740268536843F00103536006
:100F60000268D2F8043443F00803C2F804340023C2
:100F70000374184670470220704700BF2DE9F04304
:100F800083B0047C012C22D0994690460F4605463A
:100F900001230374FFF76EFA064609E0FFF76AFAC9
:100FA000801BB0F57A7F03D900232B7403200FE058
:100FB0002868446F14F0010FF0D00A9B00934B4651
:100FC00042463946FFF7A0FD0020287400E00220C9
:100FD00003B0BDE8F08300BF2DE9F04383B00B9E62
:100FE000047C012C4AD01F469146884605460123C1
:100FF0000374FFF73FFA044609E0FFF73BFA001BD2
:10100000B0F57A7F03D900232B74032037E02868DA
:10101000406F10F0010FF0D0002420E07CB92A6866
:10102000335D0A9941EA0323611C715C43EA014381
:10103000A11C715C43EA0163136703340FE02A6863
:10104000335D611C715C43EA0123A11C715C43EABE
:101050000143E11C715C43EA016313670434BC4241
:10106000DCD37B1CC3F307220092DBB24A46414625
:101070002868FFF749FD0020287400E0022003B033
:10108000BDE8F083F0B583B00024D8E00123A3408D
:101090000A6803EA0205AB4240F0D0804A68122A8F
:1010A00018BF022A10D1E608083650F826C004F00E
:1010B000070297000F22BA402CEA020E0A69BA40D2
:1010C0004EEA020240F82620026867000326BE406E
:1010D000F64302EA060E4A6802F00302BA404EEAFC
:1010E000020202604A6802F1FF3E112A18BFBEF1F7
:1010F000010F01D9122A10D1826806EA020ECA68CD
:10110000BA404EEA02028260426822EA03034A6859
:10111000C2F30012A2401A434260C3681E408B68AB
:10112000BB403343C3604B6813F0805F00F08680A0
:10113000454B5A6C42F480425A645B6C03F4804322
:101140000193019BA608B21C404B53F8227004F097
:1011500003039B000F229A4027EA02073C4A904271
:1011600025D002F58062904223D002F58062904241
:1011700021D002F5806290421FD002F58062904239
:101180001DD002F5806290421BD002F58062904231
:1011900019D002F58062904217D002F58062904229
:1011A00015D002F58062904213D1092212E000228C
:1011B00010E001220EE002220CE003220AE00422E9
:1011C00008E0052206E0062204E0072202E00822E9
:1011D00000E00A2202FA03F33B4302361B4A42F8BC
:1011E00026301C4B1A68EB4302EA03064F6817F4DB
:1011F000803F01D045EA0206164A1660526803EAAB
:1012000002064F6817F4003F01D045EA0206114A72
:101210005660926803EA02064F6817F4801F01D0F7
:1012200045EA02060B4A9660D26813404E6816F4EF
:10123000001F01D045EA0203064AD36001340F2C97
:101240007FF624AF03B0F0BD003802400038014003
:1012500000000240003C01400369194201D0012016
:1012600070470020704700BF0AB1816170470904D0
:1012700081617047F0B54D680468E368C3F30B43C0
:101280001D44D2011444D4F8883003F47043C4F8E8
:101290008830046816190B68E468C4F30B442344CF
:1012A000013343EA0543C6F88830CD680468E36833
:1012B000C3F30A031D441444D4F88C3003F4704380
:1012C000C4F88C30046816198B68E468C4F30A0407
:1012D0002344013343EA0543C6F88C3003681344C2
:1012E000D3F8944024F00704C3F8944003681344EF
:1012F0000C69C3F8944091F831E091F832308F696D
:1013000006681644D6F89C400025C6F89C5006682E
:10131000164491F8304044EA0E2444EA034343EA79
:101320000763C6F89C3003681344D3F8984024F050
:10133000FF04C3F89840036813444C69C3F898400D
:1013400003681344D3F8A0602D4C3440C3F8A04088
:1013500003681344CE690C6A3443C3F8A0400368A1
:101360001344D3F8AC40C3F8AC50036813444C6A40
:10137000C3F8AC400B695BB1012B0BD0022B18BF3B
:10138000042B09D0032B09D0072B09D1022708E031
:10139000042706E0032704E0022702E0022700E01A
:1013A000012704681444D4F8B03003F0E023C4F8F3
:1013B000B0300468144404F184058C6A04FB07F619
:1013C0004B680C681C1B04FB07F3033343EA06431A
:1013D000EB6203681344D3F8B4500A4C2C40C3F8B2
:1013E000B44003681344C96AC3F8B41003681A44CC
:1013F000D2F8843043F00103C2F88430F0BD00BF5E
:10140000F8F8FFFF00F8FFFF704700BF002878D012
:1014100038B5044690F8A13013F0FF0F04D1002333
:1014200080F8A030FFF7F0FF022384F8A130226893
:10143000936923F070439361216888696368A268A7
:101440001343E2681A432369134303438B61216802
:101450008A682D4B1A408A60656921688868A2698C
:1014600042EA054202438A602168CA681A40CA609B
:10147000E5692168C868226A42EA05420243CA60F7
:1014800021680A691A400A61656A21680869A26AC6
:1014900042EA054202430A61226851690B405361E6
:1014A000E06A22685169236B43EA00430B435361AE
:1014B00094F8353094F8362012042068C16A01F09F
:1014C0007F41C1622168C86A42EA032294F834303D
:1014D00013430343CB622268536B43F0040353630B
:1014E0002268536B43F0020353632268936943F00D
:1014F000010393610020C4F8A400012384F8A13003
:1015000038BD0120704700BF00F800F090F8A0300F
:10151000012B27D02DE9F04196460F4606464FF0A5
:10152000010880F8A080022380F8A130342404FB55
:10153000020438340D460FCD0FC40FCD0FC40FCDAC
:101540000FC42B682360724639463046FFF792FE7F
:101550003368C3F8248086F8A180002086F8A000B4
:10156000BDE8F081022070474B6A0BB14FF0005389
:10157000C3600B6A13B94FF0804300E0002383601F
:10158000CB6913B94FF0004300E0002343604B6B7D
:10159000013B83614A6B8B6B1344013B03624A6BD3
:1015A0008B6B1A440B6C1344013B83624A6B8B6B4D
:1015B0001A440B6C1344CA6B1344013B03630020B1
:1015C000704700BF704700BF10B582B01C4B1A6C4B
:1015D00042F080521A641B6C03F080530193019B0C
:1015E000184A136843F480331360FEF743FF044640
:1015F00005E0FEF73FFF001BB0F57A7F1AD8114BCC
:101600005B6813F4803FF4D00E4A136843F4003350
:101610001360FEF72FFF044605E0FEF72BFF001BCB
:10162000B0F57A7F08D8074B5B6813F4003FF4D01D
:10163000002002E0032000E0032002B010BD00BF44
:10164000003802400070004070B582B00446036864
:1016500013F0010F65D0A44B9B6803F00C03042B1F
:101660000AD0A14B9B6803F00C03082B0DD19E4BB5
:101670005B6813F4800F08D09B4B1B6813F4003F8A
:101680004FD06368002B4CD1DBE16368B3F5803F3A
:1016900005D1954A136843F48033136020E04BB9B9
:1016A000914B1A6822F480321A601A6822F4802260
:1016B0001A6015E0B3F5A02F09D18B4B1A6842F4DC
:1016C00080221A601A6842F480321A6008E0864B61
:1016D0001A6822F480321A601A6822F480221A6092
:1016E00063687BB1FEF7C6FE054605E0FEF7C2FE65
:1016F000401B642800F2A7817B4B1B6813F4003F5A
:10170000F4D00EE0FEF7B6FE054605E0FEF7B2FEA9
:10171000401B642800F29981734B1B6813F4003F4F
:10172000F4D1236813F0020F5ED06F4B9B6813F067
:101730000C0F0AD06C4B9B6803F00C03082B1BD1D9
:10174000694B5B6813F4800F16D1674B1B6813F06D
:10175000020F03D0E368012B40F0798162480368EF
:1017600023F0F8012369F82292FAA2F2B2FA82F287
:1017700093400B43036037E0E3680BB35A4A1368A6
:1017800043F001031360FEF775FE054605E0FEF722
:1017900071FE401B022800F25C81534B1B6813F062
:1017A000020FF4D05048036823F0F8012369F822AF
:1017B00092FAA2F2B2FA82F293400B43036013E072
:1017C000494A136823F001031360FEF753FE0546F0
:1017D00005E0FEF74FFE401B022800F23C81424B21
:1017E0001B6813F0020FF4D1236813F0080F2AD0FE
:1017F0006369A3B13C4A536F43F001035367FEF79B
:1018000039FE054605E0FEF735FE401B022800F2D2
:101810002481354B5B6F13F0020FF4D013E0324A92
:10182000536F23F001035367FEF724FE054605E0DE
:10183000FEF720FE401B022800F211812A4B5B6F4D
:1018400013F0020FF4D1236813F0040F00F084802A
:10185000254B1B6C13F0805F0BD1234B1A6C42F0AD
:1018600080521A641B6C03F080530193019B012585
:1018700000E000251D4B1B6813F4807F13D11B4A29
:10188000136843F480731360FEF7F4FD064605E029
:10189000FEF7F0FD801B642800F2E380134B1B6809
:1018A00013F4807FF4D0A368012B05D10E4A136F87
:1018B00043F00103136724E04BB90B4B1A6F22F07E
:1018C00001021A671A6F22F004021A6719E0052B49
:1018D0000ED1054B1A6F42F004021A671A6F42F0DC
:1018E00001021A670DE000BF00380240007000409E
:1018F000644B1A6F22F001021A671A6F22F0040279
:101900001A67A3688BB1FEF7B5FD064607E0FEF740
:10191000B1FD801B41F28833984200F2A480594BFC
:101920001B6F13F0020FF2D010E0FEF7A3FD064686
:1019300007E0FEF79FFD801B41F28833984200F2DA
:101940009480504B1B6F13F0020FF2D125B14D4A1A
:10195000136C23F080531364A369002B00F087807D
:10196000484A926802F00C02082A00F08280022B9A
:1019700052D1444A136823F080731360FEF77AFD56
:10198000054604E0FEF776FD401B022873D83D4B68
:101990001B6813F0007FF5D1E169236A1943636A7C
:1019A00047F6C07292FAA2F2B2FA82F29340194359
:1019B000A36A5B085A1E4FF4403393FAA3F3B3FAB9
:1019C00083F302FA03F30B43E26A4FF0706191FA7A
:1019D000A1F1B1FA81F18A401343226B4FF0E0414B
:1019E00091FAA1F1B1FA81F18A401343254A53607B
:1019F000136843F080731360FEF73CFD044604E077
:101A0000FEF738FD001B022837D81E4B1B6813F069
:101A1000007FF5D0002033E01A4A136823F080736A
:101A20001360FEF727FD044604E0FEF723FD001BCC
:101A3000022824D8134B1B6813F0007FF5D1002037
:101A40001EE001201CE003201AE0032018E0012022
:101A500016E0032014E0032012E0032010E003202E
:101A60000EE003200CE003200AE0032008E0002041
:101A700006E0012004E0032002E0032000E0032050
:101A800002B070BD00380240244B9B6803F00C0389
:101A9000042B3FD0082B01D02148704710B41F4BB6
:101AA000586800F03F005B6813F4800F10D01D4BA6
:101AB000B3FBF0F0194B5A6847F6C0710A4091FA2F
:101AC000A1F3B3FA83F322FA03F303FB00F310E06C
:101AD000134BB3FBF0F0114B5A6847F6C07402EA9F
:101AE000040194FAA4F2B2FA82F221FA02F202FBA1
:101AF00000F30A4A506800F440324FF4403090FA44
:101B0000A0F0B0FA80F022FA00F001304000B3FB00
:101B1000F0F001E00348704710BC70470038024005
:101B20000024F40040787D0170B5604B1B6803F021
:101B30000F038B420BD25D4A136823F00F030B4354
:101B40001360136803F00F03994240F09E8003680E
:101B500013F0020F06D0564CA36823F0F0028368FE
:101B60001343A3600D460446036813F0010F4DD0E4
:101B70004268012A05D14E4B1B6813F4003F0DD17A
:101B800085E0022A05D14A4B1B6813F0007F05D17E
:101B90007FE0474B1B6813F0020F7CD044498B68F1
:101BA00023F0030313438B60FEF764FC064663686F
:101BB000012B0ED106E0FEF75DFC801B41F288335D
:101BC00098426AD83A4B9B6803F00C03042BF2D17D
:101BD0001CE0022B15D106E0FEF74CFC801B41F205
:101BE000883398425BD8324B9B6803F00C03082B78
:101BF000F2D10BE0FEF73EFC801B41F288339842A5
:101C00004FD82B4B9B6813F00C0FF3D1274B1B685D
:101C100003F00F039D420AD2244A136823F00F03F6
:101C20002B431360136803F00F039D423BD12368DD
:101C300013F0040F06D01E498B6823F4E052E368CA
:101C400013438B60236813F0080F07D0184A93687A
:101C500023F46043216943EAC1039360FFF714FF53
:101C6000134B9B6803F0F002F02393FAA3F3B3FA4B
:101C700083F322FA03F30F4AD35CD8400E4B18606B
:101C80000F2000F027FD002070BD012070BD012055
:101C900070BD012070BD012070BD032070BD032008
:101CA00070BD032070BD012070BD00BF003C02402C
:101CB00000380240384800080C000020F0B583B01E
:101CC0000446036813F0010F0CD04E4B9A6822F4BF
:101CD00000029A609968426B0A439A60436B1BB199
:101CE000002702E0002700E00127236813F4002FFB
:101CF00010D04449D1F88C3023F44012E36B1343E5
:101D0000C1F88C30E36BB3F5801F00D101271BB104
:101D1000002502E0002500E00125236813F4801F60
:101D20000FD03849D1F88C3023F44002236C134390
:101D3000C1F88C30236CB3F5800F00D1012703B9B3
:101D40000125236813F0807F00D0012713F0200FB6
:101D50006AD02C4B1A6C42F080521A641B6C03F050
:101D600080530193019B284A136843F480731360E6
:101D7000FEF780FB064605E0FEF77CFB801B64282F
:101D800000F29B83204B1B6813F4807FF4D01D4B23
:101D90001B6F13F4407326D0226B02F440729342FF
:101DA00021D0184B1A6F22F44072196F41F4803120
:101DB0001967196F21F4803119671A671B6F13F0C7
:101DC000010F10D0FEF756FB064607E0FEF752FB68
:101DD000801B41F28833984200F27183094B1B6FDC
:101DE00013F0020FF2D0236B03F44072B2F5407F80
:101DF0000ED10448826822F4F811044A1A400A43BA
:101E000082600AE00038024000700040FFFCFF0FD3
:101E1000974A936823F4F8139360954A116F236BE4
:101E2000C3F30B030B431367236813F0100F0CD09D
:101E30008F4BD3F88C2022F08072C3F88C20D3F81B
:101E40008C10A26B0A43C3F88C20236813F4804FD4
:101E500008D08749D1F8903023F44032636E1343A1
:101E6000C1F89030236813F4004F08D08049D1F8AE
:101E7000903023F44022A36E1343C1F890302368BE
:101E800013F4803F08D07A49D1F8903023F44012FF
:101E9000E36E1343C1F89030236813F4003F08D079
:101EA0007349D1F8903023F44002236F1343C1F8F3
:101EB0009030236813F0400F08D06D49D1F890306E
:101EC00023F00302636C1343C1F89030236813F0CE
:101ED000800F08D06649D1F8903023F00C02A36C33
:101EE0001343C1F89030236813F4807F08D0604911
:101EF000D1F8903023F03002E36C1343C1F89030F6
:101F0000236813F4007F08D05949D1F8903023F0AA
:101F1000C002236D1343C1F89030236813F4806F1F
:101F200008D05349D1F8903023F44072636D1343C5
:101F3000C1F89030236813F4006F08D04C49D1F8F1
:101F4000903023F44062A36D1343C1F890302368AE
:101F500013F4805F08D04649D1F8903023F4405202
:101F6000E36D1343C1F89030236813F4005F08D089
:101F70003F49D1F8903023F44042236E1343C1F817
:101F80009030236813F4800F08D03949D1F890308D
:101F900023F08062A36F1343C1F89030236813F4D9
:101FA000001F0DD03249D1F8903023F00062E36F6A
:101FB0001343C1F89030E36FB3F1006F00D10125F6
:101FC000236813F0080F00D0012513F4802F08D0E8
:101FD0002749D1F8903023F04072636F1343C1F862
:101FE0009030236813F4000F09D02149D1F89030C4
:101FF00023F08052D4F880301343C1F89030236826
:1020000013F0806F09D01A49D1F8903023F00052B4
:10201000D4F884301343C1F89030236813F0006F74
:1020200009D01349D1F88C3023F00072D4F88830ED
:102030001343C1F88C30236813F0805F09D00C493A
:10204000D1F88C3023F08062D4F88C301343C1F87F
:102050008C3027B92368B3F1007F40F02781044A10
:10206000136823F080631360FEF704FA064607E066
:1020700000380240FEF7FEF9801B642800F221823E
:10208000904B1B6813F0006FF4D1236813F0010F1D
:102090003BD0636BCBBB8B48D0F8846006F44036F2
:1020A0004FF4403292FAA2F3B3FA83F3DE40D0F851
:1020B000841001F070674FF0706393FAA3F1B1FAE6
:1020C00081F127FA01F1676847F6C07E9EFAAEFEFD
:1020D000BEFA8EFE07FA0EF792FAA2F2B2FA82F276
:1020E00006FA02F23A4393FAA3F3B3FA83F301FA3E
:1020F00003F31A43A3684FF0E04191FAA1F1B1FA5A
:1021000081F18B401343C0F88430236813F4002F0F
:1021100003D0E26BB2F5801F06D013F4801F47D0C6
:10212000236CB3F5800F43D16648D0F8842002F4C5
:1021300040324FF4403E9EFAAEF3B3FA83F322FAF4
:1021400003F6D0F8841001F0E0414FF0E04393FA39
:10215000A3F2B2FA82F2D14047F6C07797FAA7F716
:10216000B7FA87F7626802FA07F79EFAAEF2B2FA98
:1021700082F206FA02F247EA0206E2684FF070675E
:1021800097FAA7F7B7FA87F7BA40324393FAA3F35F
:10219000B3FA83F301FA03F31343C0F88430D0F8A1
:1021A0008C3023F01F02636A013B1343C0F88C306C
:1021B000236813F0807F3BD0424ED6F8840000F0B5
:1021C00070604FF0706292FAA2F3B3FA83F3D840D2
:1021D000D6F8841001F0E04E4FF0E04797FAA7F1EF
:1021E000B1FA81F32EFA03F1636847F6C07E9EFAD6
:1021F000AEFEBEFA8EFE03FA0EFE4FF4403393FAA3
:10220000A3F3B3FA83FC236903FA0CF34EEA030346
:1022100092FAA2F2B2FA82F200FA02F21A4397FAA2
:10222000A7F3B3FA83F301FA03F31343C6F8843038
:10223000236813F0007F25D0626847F6C07393FAD5
:10224000A3F3B3FA83F39A4023694FF4403191FA30
:10225000A1F1B1FA81F18B401343E2684FF0706154
:1022600091FAA1F1B1FA81F18A401A43A3684FF0C3
:10227000E04191FAA1F1B1FA81F18B401343114A87
:10228000C2F884300F4A136843F080631360FEF78E
:10229000F1F8064605E0FEF7EDF8801B642800F231
:1022A0001281084B1B6813F0006FF4D0002D00F072
:1022B0000C81044A136823F080531360FEF7DAF8A8
:1022C000054607E000380240FEF7D4F8401B6428BA
:1022D00000F2FD80804B1B6813F0005FF4D123688F
:1022E00013F4002F01D0E26B2AB113F4801F47D002
:1022F000236C002B44D17848D0F8885005F4403541
:102300004FF4403292FAA2F3B3FA83F3DD40D0F8EF
:10231000881001F0E0464FF0E04393FAA3F1B1FAE0
:1023200081F126FA01F1676947F6C07696FAA6F6BA
:10233000B6FA86F607FA06F692FAA2F2B2FA82F234
:1023400005FA02F246EA0205A2694FF0706696FAB3
:10235000A6F6B6FA86F6B2402A4393FAA3F3B3FA86
:1023600083F301FA03F31343C0F88830D0F88C30BC
:1023700023F4F853A26A013A43EA0223C0F88C30EE
:10238000236813F4001F3DD0E36FB3F1006F39D120
:10239000514ED6F8880000F070604FF0706292FAEB
:1023A000A2F3B3FA83F3D840D6F8881001F0E041E5
:1023B0004FF0E04595FAA5F3B3FA83F3D940676986
:1023C00047F6C07393FAA3F3B3FA83F307FA03FE55
:1023D000236A4FF4403797FAA7F7B7FA87F7BB405D
:1023E0004EEA030392FAA2F2B2FA82F200FA02F281
:1023F0001A4395FAA5F3B3FA83F301FA03F31343EF
:10240000C6F88830236813F0080F41D0324DD5F854
:10241000882002F070624FF0706191FAA1F3B3FA74
:1024200083F322FA03F6D5F8883003F440334FF4EF
:10243000403090FAA0F2B2FA82F223FA02F267690F
:1024400047F6C07393FAA3F3B3FA83F39F4090FA6D
:10245000A0F3B3FA83F302FA03F33B4391FAA1F238
:10246000B2FA82F206FA02F21343E2694FF0E04157
:1024700091FAA1F1B1FA81F18A401343C5F888308D
:10248000D5F88C3023F44032E36A1343C5F88C301E
:10249000114A136843F080531360FDF7EBFF0446C5
:1024A00004E0FDF7E7FF001B642812D80A4B1B6805
:1024B00013F0005FF5D000200CE003200AE00320B9
:1024C00008E0032006E0032004E0002002E00320EF
:1024D00000E0032003B0F0BD00380240704700BFA9
:1024E00010B504460368DA6812F4807F0BD09B684D
:1024F00013F4805F07D000F095F92268D368DBB24F
:1025000063F4C073D3602368DA6812F4007F0CD0E0
:102510009B6813F4005F08D0204600F083F822681F
:10252000D368DBB263F42073D3604FF40032024B04
:102530005A610123637710BD003C014038B5036840
:10254000DA6812F0400F14D104464FF0FF32DA601F
:10255000FDF790FF054605E0FDF78CFF401BB0F549
:102560007A7F08D82368DB6813F0400FF4D000208E
:1025700038BD002038BD032038BD00BF002849D039
:1025800038B50446437F13F0FF0F03D100230377D0
:10259000FFF7A4FF022363772368CA225A622368E5
:1025A00053225A622046FFF7C9FF024630B1236822
:1025B000FF225A620423637701222EE02168886893
:1025C000174B03408B602068856863682169194355
:1025D00063690B432B4383602368E16819612168B9
:1025E0000B69A06843EA00430B612168CB6823F0C4
:1025F0008003CB602168CB6C23F00803CB64216897
:10260000C86CA3690343CB642368FF21596201238B
:10261000637702E0012210467047104638BD00BFC4
:10262000BFFF8FFF704700BF704700BFE8B138B5EC
:1026300004460D4690F82C3013F0FF0F04D1002310
:1026400080F82D30FFF7F0FF022384F82C30211D95
:10265000206800F023F962682946206800F05AF9E2
:10266000012384F82C30002038BD0120704700BFC2
:1026700038B590F82C30DBB2022B14D00D4604464E
:10268000022380F82C30006800F092F92B68022BAE
:1026900004D1052384F82C30002038BD012384F8B0
:1026A0002C30002038BD022038BD00BF90F82C30FF
:1026B000DBB2022B0CD010B50446022380F82C307C
:1026C000006800F0A1F9012384F82C30002010BD2F
:1026D00002207047F0B5B3B00546002331930122C4
:1026E00024922A934FF480332593474B0C9324A8CC
:1026F000FEF7AAFF00287CD132A8202340F8C83D6D
:10270000FFF7DCFA0446002875D1404A136F43F402
:10271000004313673E4E3F4B3360002777606323CF
:10272000B3600923F36037617761B7613046FFF723
:1027300025FF3068CA23436253234362836823F42E
:1027400080738360C368DBB263F4C073C360319786
:102750000AE0319A531C31932F4B1B682F49A1FB80
:102760000313B2EB531F48D0C36813F0010FF0D02E
:102770000123C361836843F480738360836843F4F7
:1027800080538360264B1A6842F400321A609A68BC
:1027900042F400329A601E4B1868C36813F0400F71
:1027A00014D14FF0FF33C360002331930AE0319A14
:1027B000531C3193184B1B681849A1FB0313B2EB50
:1027C000531F1CD0C36813F0400FF0D000224260AA
:1027D00002600F4B1B68D96821F08001D960FF218E
:1027E000596229462920FDF76BFE2920FDF798FE46
:1027F00006E0012404E0012402E0012400E00124B9
:10280000204633B0F0BD00BF00031900003802407D
:1028100034030020002800400C000020ABAAAAAA24
:10282000003C014010B582B0044600230193FDF73F
:1028300019FE2368CA225A62236853225A62236807
:102840004FF0FF32DA600AE0019A531C01930D4BFE
:102850001B680D48A0FB0303B2EB531F04D0216893
:10286000CB6813F0400FEFD000234B602268136059
:102870002268D36823F08003D3602368FF225A6262
:1028800002B010BD0C000020ABAAAAAA08B50248ED
:10289000FFF726FE08BD00BF3403002030B40B68EC
:1028A000012B16D003681A4C1C404A688B681A43E7
:1028B000CB681A430B691A434B691A438B691A4355
:1028C000CB691A430B6A13434A6A134323430360D9
:1028D0001AE0046824F4F842CC690B6A1C434B6A82
:1028E000234342EA03044368094D1D404A688B684C
:1028F0001A43CB681A430B691A434B6913438A691D
:1029000013432B4304604360002030BC704700BF7A
:102910000080FFFFF0B5012A20D0836803F0704EDD
:102920000B685A1E4E68013E42EA06178D68013D4B
:1029300047EA0526CC68013C46EA04350A69013AB3
:1029400045EA02444B69013B44EA03528B69013B6F
:1029500042EA03634EEA0303836024E08368134A78
:102960001A40CF68013F4B69013B1B0543EA07331F
:1029700042EA0307C36803F0704E0B685E1E4C68A2
:10298000013C46EA04158A68013A45EA02240B69CB
:10299000013B44EA03428B69013B42EA03634EEA8E
:1029A00003038760C3600020F0BD00BFFF0F0FFF6F
:1029B00070B582B004461546002301930A684B683F
:1029C00013438A68013A43EA4213CA6843EA42233E
:1029D0000193019B0361FDF74DFD064608E0B5F14B
:1029E000FF3F05D055B1FDF745FD801B854207D35C
:1029F000A36913F0200FF2D1002002E0032000E0D1
:102A0000032002B070BD00BF436943EA4101416148
:102A100000207047FEE700BF08B50D4B1B6813B9D7
:102A20000C4A0B4B1A600A4B1A68C31C23F00303B1
:102A3000134409498B4206D901F0C6F90C230360FF
:102A40004FF0FF3008BD02490B60104608BD00BFC3
:102A500090000020AC04002000FC0420012303604F
:102A6000014B0B60704700BF040000200FB400B59D
:102A700083B004AB53F8042B01938021064801F086
:102A8000D5F9002803DD0146034800F039F803B00A
:102A90005DF804EB04B07047980000202DE9F04386
:102AA00085B004460F46435613BB042528462146ED
:102AB000ABBE04461FE03546102E28BF102500236C
:102AC00006E014F9011B04AA1A4402F8101C013391
:102AD000AB42F6D304AA1344002203F8102CE946B3
:102AE0004FF0040840464946ABBE8046761B00E0E6
:102AF0000E46002EDFD1384605B0BDE8F08300BF9A
:102B000008B5FFF7CBFF08BD08B500F097F8024BFA
:102B1000024A9A6008BD00BF00ED00E00000000816
:102B200008B500F0ABF808BDF8B504460D461746E9
:102B30001E462648FFF79AFF21682548FFF796FFB3
:102B400061682448FFF792FFA1682348FFF78EFFD2
:102B5000E1682248FFF78AFF21692148FFF786FFD5
:102B600061692048FFF782FFA1691F48FFF77EFFD8
:102B7000E1691E48FFF77AFF1D48FFF777FF2946F6
:102B80001C48FFF773FF1C4CE16A1C48FFF76EFFFF
:102B9000216B1B48FFF76AFFE16B1A48FFF766FFDE
:102BA00015F0800F03D039461748FFF75FFF15F483
:102BB000004F03D031461548FFF758FF1448FFF780
:102BC00055FF06991348FFF751FFF8BDF04600087E
:102BD0000047000810470008204700083047000859
:102BE0004047000850470008604700087047000849
:102BF000804700088C47000800ED00E09C47000873
:102C0000AC470008BC470008CC470008DC47000878
:102C1000EC470008F447000883691A888A4207D104
:102C20000268033A012A05D8023383610120704704
:102C30000020704700207047FEE700000B4B1A6829
:102C400042F001021A60002199601868084A0240A7
:102C50001A60084A5A601A6822F480221A60D96001
:102C60004FF00062044B9A60704700BF003802408A
:102C7000FFFFF6FE1030002400ED00E0224B9B68C1
:102C800003F00C03042B07D0082B09D0002B2DD107
:102C90001E4A1F4B1A602CE01E4A1D4B1A6028E08A
:102CA000194B5A685B6803F03F0312F4800F09D098
:102CB000184AB2FBF3F2144B5B68C3F3881303FBAF
:102CC00002F208E0114AB2FBF3F30F4A5168C1F374
:102CD000881101FB03F20C4B5B68C3F30143013322
:102CE0005B00B2FBF3F30A4A136002E0074A084BA9
:102CF0001A60054B9B68C3F30313074AD15C044A6F
:102D00001368CB4013607047003802400024F40081
:102D10000C00002040787D013848000808B5FDF718
:102D2000AFFB08BD11207047F0B583B004460D46D7
:102D300016461F460F484FF440334360002383601C
:102D4000089BC3600C4B0360FDF74AFD80B9214628
:102D50000848FDF74FFE58B9009733462A460999AF
:102D60000448FDF789FD18B90A210248FDF7A0FDC6
:102D700003B0F0BD5803002000B0024070B586B02B
:102D8000144B1A6B42F400721A631B6B03F400734A
:102D90000093009B4FF4004501950126029603968F
:102DA000032304930C4C01A92046FEF76BF9002283
:102DB00029462046FEF758FA1420FDF761FB3246FB
:102DC00029462046FEF750FA0A20FDF759FB06B0C7
:102DD00070BD00BF0038024000240240014B18685B
:102DE000704700BF10000020014B1868704700BFFB
:102DF0001C00002070B58EB004460E4600250195DB
:102E0000FFF7ECFF02900395FFF7EEFF04900595A6
:102E10000A96FF23069307958DF834508DF83550A8
:102E20008DF836504FF4C063089307230993FFF7DA
:102E3000D5FF0B90FFF7D8FF0C90224601A90A4856
:102E4000FEF764FB094A61000819830013444FF040
:102E5000FF305860064898600C44A3004FF07F4153
:102E6000D1500EB070BD00BFB0030020880100201B
:102E700014000020014B1860704700BF18010020AB
:102E8000034B1B6803EB43039A00024B98507047B7
:102E90001801002088010020044B1B6803EB43034A
:102EA0009A00034B1A449060704700BF180100203D
:102EB00088010020044B1B6803EB43039A00034B7B
:102EC0001A449068704700BF180100208801002054
:102ED000F0B583B007460B4B1C6834230A4A03FB4A
:102EE0000423DD6DFFF77AFF0646FFF77DFF0197AC
:102EF000002300930346324629462046FFF714FF7D
:102F000003B0F0BD18010020B003002000B583B06D
:102F1000054B196800230093292315220348FEF767
:102F20002DF803B05DF804FB1C01002058040020BC
:102F300000B583B0012808D80B784A780092152292
:102F400000210848FEF71AF808E00B5C0191009395
:102F50000346392200210348FEF73EF803B05DF82E
:102F600004FB00BF5804002000B585B0274B5A6C05
:102F700042F080625A645A6C02F080620192019AB7
:102F80005A6A42F080625A625A6A22F080625A6239
:102F90001A6B42F400021A631A6B02F400020292E6
:102FA000029A1A6942F400021A611A6922F40002B4
:102FB0001A615A6C42F000625A645A6C02F0006264
:102FC0000392039A5A6A42F000625A625A6A22F0E5
:102FD00000625A62002203215820FDF771FA58203E
:102FE000FDF79EFA002203215A20FDF769FA5A20C4
:102FF000FDF796FA002203216220FDF761FA6220B4
:10300000FDF78EFA05B05DF804FB00BF0038024002
:103010002DE9F04784B00746FFF7B0FEFFF782FEC8
:10302000112840F0AD80FFF79FFF574C574B2360AE
:103030002046FDF729FE6423019305230293002314
:1030400003930123E3600423A3600DEB03012046F7
:10305000FDF766FD47B94FF4F0724D4B1A604FF41F
:1030600048724C4B1A6007E04FF44872484B1A60A4
:103070004FF4F072474B1A60DFF81491D9F8003022
:10308000DFF81081D8F80020434C00252560052189
:1030900061602562E56165620221E16040F6FF71D1
:1030A000A161656123618F21A16240F21111E1628A
:1030B00003F22F114FF2244303FB01F33749A1FB25
:1030C00003135B0B23630C236363A363E363226437
:1030D0004FF4004363641023A364E5644FF400538A
:1030E00023654FF4805363654FF40063A3654FF489
:1030F0008063E3654FF4007323664FF48073636667
:10310000DFF884A021465046FDF7EEFD244E3E2315
:103110007361B623F361D9F8003003F1B60272622D
:1031200003F59772F2623366D8F8003073661D4873
:10313000082303604FF4C07343610723C361C56272
:10314000FEF7BCFD86F8345086F8355086F83650C8
:103150003561154B336021463046FEF705FA30469F
:10316000FEF754F95046FDF7F1FE00F04DFA0F4816
:10317000FFF792FE3946284600F086FA284600E01E
:10318000012004B0BDE8F08758040020006C014025
:10319000100000201C0000201C010020E31C754CC6
:1031A000B0030020A00100200068014014000020AE
:1031B00008B50120FFF72CFF08BD00BFF8B5074692
:1031C0000C461646064B1A683421064B01FB0233A7
:1031D000DD6DFFF703FE00FB047045F82060F8BDCD
:1031E00018010020B00300202DE9F04F83B0814684
:1031F0000F460092324B1B6803EB43039A00314B9E
:103200001A449368DA8801929D8805F1070B4FEA0A
:10321000EB0BC5EBCB085FFA88F84FF0000A48E0EB
:103220000AFB0BF3009A1A44BBF1010F03D0BBF168
:10323000020F03D008E0009AD65C0DE00099CE5C46
:10324000537843EA062607E00099CE5C53781B02C8
:1032500043EA064396781E43002424E02B1B434494
:10326000013B012202FA03F333420DD0144B1B68D9
:1032700003EB43039A0009EB0400124B9A583946BA
:1032800080B2FFF79BFF0DE00D4B1B6803EB430380
:103290009A000C4B1A4409EB04005268394680B27C
:1032A000FFF78CFF0134AC42D8D30137BFB20AF12B
:1032B000010A019B9A45B3D303B0BDE8F08F00BF6C
:1032C000180100208801002038B50A4B1B6803EB69
:1032D00043039C00084B1C44A3681C68203ADD880B
:1032E00002FB05F29B880733DB1003FB0242FFF76A
:1032F0007BFF38BD18010020880100202DE9F04136
:1033000005460F46164698461346002401E0013450
:1033100013465A1C1B78002BF9D1FFF75FFD294B90
:103320001B6803EB43039A00274B1A4493689B885E
:10333000B0FBF3F0B8F1010F03D0B8F1020F07D0E2
:103340000BE0001B00FB03F005EB5005ADB204E001
:10335000041B14FB03F0451BADB22BB2002B00DCA9
:103360000125002412E0424639462846FFF7ACFF0B
:10337000144B1B6803EB43039A00134B1A449368E6
:103380009B881D44ADB201360134A4B296F800808A
:10339000FFF724FD0B4B1B6803EB43039A000A4B1A
:1033A0001A4493689B8803FB140080B218F1000252
:1033B00018BF0122984238BF0022002AD3D1BDE8AD
:1033C000F08100BF180100208801002038B50446B4
:1033D0000D46FFF76FFDC18811FB04F103232A4658
:1033E00089B20020FFF78AFF38BD00BF2DE9F04306
:1033F00083B081464FF00008CDF80480204C0126B0
:10340000266010276760A660C4F80C801D4D4FF63B
:10341000FF7221462846FFF72BF93046FDF730F8BA
:10342000022323606760A660C4F80C804FF6FF7229
:1034300021462846FFF71CF9032323606760082311
:10344000A360C4F80C804FF6FF7221462846FFF7B0
:103450000FF94FF40C730193042323606760A66097
:10346000019BE3604FF6FF7221462846FFF700F903
:1034700049462846FFF71AF903B0BDE8F08300BFBC
:103480003002002074040020F0B58FB00646554B82
:103490009A6B42F001029A639A6B02F00102019268
:1034A000019A1A6B42F480021A631A6B02F48002CA
:1034B0000292029A1A6B42F008021A631A6B02F027
:1034C00008020392039A1A6B42F010021A631A6BF5
:1034D00002F010020492049A1A6B42F020021A635E
:1034E0001A6B02F020020592059A1A6B42F0400214
:1034F0001A631A6B02F040020692069A1A6B42F0A7
:1035000080021A631A6B02F080020792079A1A6B04
:1035100042F480721A631B6B03F480730893089B58
:1035200002230A9301230B9303270C970C230D937B
:103530000EAC4CF2037344F8143D21462A48FDF7C3
:10354000A1FD4FF68373099321462848FDF79AFDA4
:103550004FF63F03099321462548FDF793FD48F2B6
:103560003713099321462348FDF78CFD4FF62C7342
:10357000099321462048FDF785FD40F2FF6309933A
:1035800021461E48FDF77EFD1D4C00256560802309
:10359000A3604FF40073E3604FF4806323614FF442
:1035A000805363614FF48043A361E5614FF40033BE
:1035B00023626562A762E5622563124B2360346370
:1035C000A6632046FDF78AF82046FDF721F82A4633
:1035D0000F213820FCF774FF3820FCF7A1FF0FB053
:1035E000F0BD00BF00380240000C02400010024055
:1035F0000014024000180240001C0240002002405B
:103600005C0200201064024038B51B4C1B4B236049
:103610001B4D02232B60072169600422AA60E96028
:103620002B616B61AB6100216160A160E2602023CE
:103630002361402363614FF4C073A361E1614FF4E0
:10364000006323624FF480536362A1622046FFF758
:103650001BFF29462046FEF7E9FF18B10122094B5E
:103660001A7002E00022074B1A7040F20360FFF765
:10367000BDFE044B187838BD74040020400100A042
:1036800040020020200000202DE9F84F83468946A3
:10369000C04C21460020FFF74BFCBF490320FFF739
:1036A00047FCBE4D29460020FFF742FCBC490220E2
:1036B000FFF73EFC29460020FFF73AFCB9490020FD
:1036C000FFF736FC0A20FFF729FBB7490020FFF778
:1036D0002FFCB6490020FFF72BFC0A20FFF71EFB4A
:1036E000B3490020FFF724FCB2490020FFF720FC7B
:1036F000B1490020FFF71CFCDFF89483414600200D
:10370000FFF716FCAD490020FFF712FCAC49002082
:10371000FFF70EFC21460020FFF70AFCA949002014
:10372000FFF706FCA84E31460020FFF701FCA74931
:103730000020FFF7FDFBA64F39460020FFF7F8FBFE
:10374000A4490020FFF7F4FBA3490020FFF7F0FB9A
:10375000A2490020FFF7ECFBA1490020FFF7E8FB9E
:1037600041460020FFF7E4FB21460020FFF7E0FB85
:103770009C490220FFF7DCFB9B490020FFF7D8FBA8
:103780009A490020FFF7D4FB99490020FFF7D0FBAE
:1037900098490020FFF7CCFB97490020FFF7C8FBB2
:1037A00096490020FFF7C4FB31460020FFF7C0FB1D
:1037B00093490020FFF7BCFB39460020FFF7B8FB18
:1037C00090490020FFF7B4FB8F490020FFF7B0FBC2
:1037D0008E490220FFF7ACFB29460020FFF7A8FB2B
:1037E0008B490620FFF7A4FBDFF8A8A25146002072
:1037F000FFF79EFB87490E20FFF79AFB86490020C2
:10380000FFF796FB85490E20FFF792FBDFF88882D1
:1038100041460020FFF78CFB81490A20FFF788FB17
:10382000804F39460020FFF783FB7F490020FFF7D8
:103830007FFB29460020FFF77BFB7C490A20FFF72E
:1038400077FB7B490020FFF773FB7A490F20FFF7D6
:103850006FFB51460020FFF76BFB77490F20FFF706
:1038600067FB6D490020FFF763FB74490A20FFF7EF
:103870005FFB41460020FFF75BFB71490F20FFF71C
:1038800057FB39460020FFF753FB6E490F20FFF727
:103890004FFB6D490020FFF74BFB6C490A20FFF7F7
:1038A00047FB6B490020FFF743FB6A490A20FFF7FB
:1038B0003FFB29460020FFF73BFB67490A20FFF743
:1038C00037FB5B490020FFF733FB64490F20FFF70C
:1038D0002FFB51460020FFF72BFB61490F20FFF71C
:1038E00027FB4D490020FFF723FB5E490A20FFF725
:1038F0001FFB41460020FFF71BFB5B490F20FFF732
:1039000017FB39460020FFF713FB58490F20FFF73C
:103910000FFB31460020FFF70BFB55490020FFF756
:1039200007FB54490020FFF703FB53490020FFF732
:10393000FFFA21460020FFF7FBFA50490320FFF76A
:10394000F7FA21460020FFF7F3FA21460020FFF79F
:10395000EFFA4B491020FFF7EBFA21460020FFF762
:10396000E7FA48491020FFF7E3FA47490020FFF73C
:10397000DFFA7820FFF7D2F9BBF1000F00F08E805C
:10398000BBF1020F40F08E8040490020FFF7D0FAD3
:1039900088E000BF5C6300082063000860630008E3
:1039A0008063000864630008686300086C630008B3
:1039B00070630008746300087863000808650008F5
:1039C0000063000804630008086300080C63000833
:1039D000106300081463000828630008546300089B
:1039E0008463000830630008346400083864000809
:1039F0003C6400084064000844640008486400080F
:103A00004C640008506400085464000834630008E3
:103A1000386300084063000818630008E863000882
:103A20007C6400085063000868640008886400082B
:103A30002463000894640008A4640008B4640008C7
:103A4000C0640008D0640008C0630008E064000897
:103A50002C630008EC640008F8640008A063000808
:103A6000B0630008F8630008C4630008D46300086A
:103A70006C6400087064000874640008E463000863
:103A800010640008886300089C6300080C64000848
:103A90007C630008586400081C6300081849002073
:103AA000FFF746FAB9F1010F0BD116490020FFF7D5
:103AB0003FFA15490420FFF73BFA14490420FFF7A9
:103AC00037FA13490020FFF733FA12490020FFF7B5
:103AD0002FFA11490020FFF72BFA10490020FFF7B9
:103AE00027FA0F490020FFF723FA0E490020FFF7BD
:103AF0001FFA0D490020FFF71BFA0020BDE8F88FE0
:103B00002C64000830640008246400080464000881
:103B10005863000878640008046500085C640008C5
:103B2000606400085C6300086464000808B54FF036
:103B30007F40FFF7A5F90248FFF7AEF908BD00BFC7
:103B40001400002008B5FFF733FB4FF04041002080
:103B5000FFF750F9FFF7DAF90020FFF78BF96FF460
:103B60007F00FFF7B5F908BD08B50A6002228A6038
:103B7000FDF788FA08BD00BF10B50E4C80220E4933
:103B80002046FFF7F1FF40220C492046FFF7ECFFEB
:103B900004F5E05402220A492046FFF7E5FF4022DF
:103BA00008490948FFF7E0FF012208492046FFF7CE
:103BB000DBFF10BD00080240D0020020BC02002044
:103BC00014030020F802002000140240E402002048
:103BD00070B5194E80213046FDF73EFB012814BF19
:103BE00000200120154C2070154D02212846FDF7BC
:103BF00033FB012814BF00200120607040213046B3
:103C0000FDF72AFB012814BF00200120A07001212C
:103C10002846FDF721FB012814BF00200120E07099
:103C20004FF480710748FDF717FB012814BF0020EF
:103C30000120207170BD00BF001402400C03002061
:103C4000002402400008024008B5164B1B7823B13F
:103C500015490020FFF7BAFB08BD124B5B7823B172
:103C600012490020FFF7B2FB08BD0E4B9B7823B131
:103C70000F490020FFF7AAFB08BD0A4BDB7823B1F0
:103C80000C490020FFF7A2FB08BD064B1B7923B1AE
:103C900009490020FFF79AFB08BD08490020FFF7FB
:103CA00095FB08BD0C0300200C650008106500089A
:103CB0001865000820650008286500082C650008C4
:103CC00000B593B0012300934FF480330193022396
:103CD00006934FF480020792192208924FF4C8729B
:103CE00009920A9308230B936846FDF7ADFC00B1D7
:103CF000FEE7FDF769FC00B1FEE70F230D930223F9
:103D00000E9300230F934FF4A05310934FF480535E
:103D1000119306210DA8FDF707FF00B1FEE713B0D0
:103D20005DF804FB10B4BFF34F8FBFF36F8F1A4BD6
:103D30000021C3F850125A6942F400325A61BFF3AD
:103D40004F8FBFF36F8FC3F88410BFF34F8FD3F83B
:103D50008040C4F34E3000E01846C4F3C90200E0CE
:103D60001A4643F6E07303EA401343EA82730A49B2
:103D7000C1F86032531E002AF2D1431E0028EBD155
:103D8000BFF34F8F4B6943F480334B61BFF34F8FC9
:103D9000BFF36F8F10BC704700ED00E008B5FFF770
:103DA000C1FFFCF74DFBFFF78BFF08BD08B5FFF720
:103DB000F5FFFFF7C7FEFFF7B9FEFFF7DDFEFFF7E0
:103DC00007FFFFF741FFFAE7014B1868704700BF94
:103DD0008400002030B5141E05469BB0184604DA56
:103DE0008B232B604FF0FF301DE04FF40273ADF8D2
:103DF0000C3014BF04F1FF332346029305934FF6B2
:103E0000FF7300910491ADF80E3002461E9B694687
:103E1000284600F073F8431CBCBF8B232B6014B101
:103E2000009B00221A701BB030BD000007B5009344
:103E300013460A46014603480068FFF7CBFF03B06C
:103E40005DF804FB840000202DE9F0478E689E4257
:103E500082460C46914698463ED88A8912F4906F65
:103E60003AD0256809696F1A6569022305EB450593
:103E700095FBF3F57B1C43449D4238BF1D4653051B
:103E80000FD5294600F090FB064698B13A462169C5
:103E900000F016FBA38923F4906343F08003A38111
:103EA00013E02A4600F0DEFB064670B92169504651
:103EB00000F02CFB0C23CAF80030A38943F0400328
:103EC000A3814FF0FF30BDE8F087266165613E4475
:103ED000ED1B2660A5604646464528BF464632464D
:103EE0004946206800F0F7FAA3689B1BA36023688B
:103EF0001E4426600020BDE8F08700002DE9F04F49
:103F00009DB0804603938B891C060D4616460DD541
:103F10000B695BB9402100F047FB2860286118B9A4
:103F20000C23C8F80030CDE040236B6100230993D7
:103F300020238DF82930DFF89CB130238DF82A300A
:103F400037463C4614F8013B1BB9B7EB060910D0C5
:103F500003E0252BF9D02746F3E74B4632462946A6
:103F60004046FFF771FF013000F0A780099B4B44EA
:103F700009933B78002B00F0A08000234FF0FF3224
:103F800004930793059206938DF853301A930126F4
:103F9000052221784E4800F043FA671C049B38B193
:103FA0004B4A801A06FA00F0184304903C46EFE7AB
:103FB000D90644BF20228DF853201A0744BF2B2274
:103FC0008DF8532022782A2A03D0079A00210A204C
:103FD0000BE0039A111D12680391002A10DA524275
:103FE00043F00200079204900BE0274601343B782F
:103FF000303B092B03D800FB02320121F5E701B168
:1040000007923B782E2B1ED17B782A2B0AD1039B5B
:104010001A1D1B680392002BB8BF4FF0FF33023705
:10402000059310E000230593781C19460A240746DF
:1040300001303A78303A092A03D804FB01210123E0
:10404000F5E703B1059103223978224800F0E8F939
:1040500040B14023CBEB000003FA00F0049B18436F
:104060000490013739781C488DF8281006227E1CF0
:1040700000F0D6F988B1194B33B9039B073323F00D
:1040800007030833039314E003AB00932A46144B51
:1040900004A94046AFF3008007E003AB00932A4633
:1040A0000F4B04A9404600F093F8B0F1FF3F824661
:1040B00003D0099B5344099342E7AB895B0601D4C3
:1040C000099801E04FF0FF301DB0BDE8F08F00BF50
:1040D000386500083E6500084265000800000000E1
:1040E000493E00082DE9F04791461F460A698B6852
:1040F000DDF820809342B8BF1346C9F8003091F82C
:10410000432006460C4612B10133C9F8003023683B
:10411000990642BFD9F800300233C9F8003025684B
:1041200015F0060510D104F1190A07E001235246E3
:1041300039463046C04701301AD00135E368D9F816
:1041400000209B1A9D42F1DB94F843302268003333
:1041500018BF012392060FD5E1185A1C302081F8B0
:104160004300224494F8451082F84310023303E0E0
:104170004FF0FF30BDE8F08704F143023946304686
:10418000C0470130F4D02268D9F80050E36802F04B
:104190000602042A08BF5D1B2269A3680CBF25EA3A
:1041A000E57500259342C4BF9B1AED184FF0000936
:1041B0001A344D4509D00123224639463046C047BE
:1041C0000130D5D009F10109F3E70020BDE8F087FF
:1041D0002DE9F04317460A7E85B06E2A98460646BA
:1041E0000C460C9B01F1430E00F0AE8011D8632AFF
:1041F00022D009D8002A00F0BB80582A40F0CA809B
:1042000081F84520834955E0642A1ED0692A1CD0D4
:10421000C0E0732A00F0B08009D86F2A2ED0702A2F
:1042200040F0B8800A6842F020020A603EE0752A39
:1042300024D0782A3AD0ADE01A6801F14205111D68
:104240001960136884F84230A8E021681A6811F0F8
:10425000800F02D0111D196008E011F0400F02F12B
:104260000401196002D0B2F9003000E01368002B9D
:104270003CDA2D225B4284F8432037E021681A683B
:1042800011F0800F02D0111D196007E011F0400FEE
:1042900002F10401196001D0138800E01368227E46
:1042A0005C496F2A14BF0A2208221BE078225A496F
:1042B00084F845202268186812F0800F00F1040588
:1042C0001D6003D1550601D5038800E00368D007BF
:1042D00044BF42F0200222601BB9226822F0200273
:1042E00022601022002084F8430001E049490A229C
:1042F0006568A560002D08DB206820F004002060C0
:104300002BB9002D7DD175460CE0002B79D0754678
:10431000B3FBF2F002FB1033CB5C05F8013D034622
:104320000028F5D1082A0BD12368DA0708D52369BC
:1043300062689A42DEBF302305F8013C05F1FF3583
:10434000C5EB0E0323612EE008681A68496910F076
:10435000800F03D0101D1860136808E010F0400FA4
:1043600002F104001860136801D0198000E01960A0
:1043700000232361754616E01A68111D196015683F
:1043800062680021284600F04BF808B1401B6060CD
:10439000636804E004F1420584F8422001232361AC
:1043A000002384F84330CDF800803B4603AA214621
:1043B0003046FFF797FE013002D14FF0FF3026E084
:1043C00023692A4639463046C0470130F5D0236874
:1043D0009B0710D5002504F1190907E001234A467F
:1043E00039463046C0470130E7D00135E368039ACB
:1043F0009B1A9D42F2DBE068039B9842B8BF1846C7
:1044000005E00B7884F8423004F142058AE705B0F4
:10441000BDE8F083496500085A6500080000000007
:1044200001F0FF01102A2BDB10F0070F08D010F865
:10443000013B013A8B422DD010F0070F42B3F6D169
:10444000F0B441EA012141EA014122F007047FF082
:1044500000070023F0E80256083C85EA010586EAD9
:10446000010685FA47F5A3FA87F586FA47F6A5FA15
:1044700087F68EB9EED1F0BC01F0FF0102F0070221
:1044800032B110F8013B013A83EA010313B1F8D1CC
:104490000020704701387047002D06BF35460338AD
:1044A000073815F0010F07D1013015F4807F02BFE6
:1044B000013015F4C03F0130F0BC0138704700BF37
:1044C00010B5431E0A44914204D011F8014B03F881
:1044D000014FF8E710BD884210B501EB020301D887
:1044E000421E0BE09842FBD28118D21AD34204D06C
:1044F00013F8014D01F8014DF8E710BD994204D0C1
:1045000011F8014B02F8014FF8E710BD38B5054628
:10451000002946D051F8043C0C1F002BB8BFE4180A
:1045200000F0D6F81F4A1368114613B9636014608F
:1045300032E0A3420ED92268A018834204BF186853
:104540005B68636004BF121822600C6024E0A24222
:1045500003D813465A68002AF9D118681918A142DD
:104560000BD12168014458188242196014D1106897
:1045700052685A60014419600EE002D90C232B6086
:104580000AE021686018824204BF106852686260C5
:1045900004BF091821605C602846BDE8384000F07F
:1045A00098B838BD2C03002070B5CD1C25F003054C
:1045B00008350C2D38BF0C25002D064601DBA9421D
:1045C00002D90C23336046E000F082F8234B1C68CC
:1045D0001A462146A1B10B685B1B0ED40B2B03D9E5
:1045E0000B60CC18CD501EE08C420DBF63684B6849
:1045F0006360136018BF0C4615E00C464968E9E794
:10460000174C23681BB9304600F052F82060294649
:10461000304600F04DF8431C18D0C41C24F00304AD
:10462000A0420DD12560304600F053F804F10B0094
:10463000231D20F00700C31A0ED05A42E25070BD6D
:10464000211A304600F034F80130EBD10C233360EE
:10465000304600F03EF8002070BD00BF2C03002063
:1046600028030020F8B5074615460E4621B9114625
:10467000BDE8F840FFF798BF1AB9FFF747FF284693
:10468000F8BD00F027F885420ED929463846FFF7D5
:104690008BFF044650B131462A46FFF711FF3146E1
:1046A0003846FFF733FF01E03046F8BD2046F8BD3D
:1046B00038B5064C0023054608462360FEF7ACF9E2
:1046C000431C02D1236803B12B6038BD5403002082
:1046D0007047704751F8040C0028BEBF091851F804
:1046E000043CC01804387047000610160006101667
:1046F000537461636B206672616D653A0A00000055
:10470000205230203D2020253038580A000000007B
:10471000205231203D2020253038580A000000006A
:10472000205232203D2020253038580A0000000059
:10473000205233203D2020253038580A0000000048
:1047400020523132203D20253038580A0000000028
:10475000204C52203D2020253038580A000000000F
:10476000205043203D2020253038580A000000000A
:1047700020505352203D20253038580A00000000B8
:104780004653522F4641523A0A00000020434653F6
:1047900052203D2020253038580A0000204846533A
:1047A00052203D2020253038580A0000204446532E
:1047B00052203D2020253038580A00002041465321
:1047C00052203D2020253038580A0000204D4D460B
:1047D0004152203D20253038580A000020424641F1
:1047E00052203D2020253038580A00004D6973635F
:1047F0000A000000204C522F4558435F5245545543
:10480000524E3D20253038580A0000005B48617246
:10481000644661756C745D0A000000005B4275734C
:104820004661756C745D0A005B557361676546612E
:10483000756C745D0A0000000000000000000000BC
:104840000102030406070809000000000000000040
:104850000000000000000000000000000000000058
:104860000000000000000000000000000000000048
:104870000000000000000000000000000000000038
:104880000000000000000000000000000000000028
:10489000000000000000038000038000038000038C
:1048A00080000380000380000380000380000380F9
:1048B0000001000001000000000000000003800073
:1048C0000380000000000000000000000000000065
:1048D00000000000000000000000000000000000D8
:1048E000000E70000E70000E700004200004200006
:1048F0000420000420000000000000000000000070
:1049000000000000000000000000000000000000A7
:104910000000000000000000000000000000000097
:10492000000000000000066000066000066000064F
:1049300060000660003FF8003FF8000660000CC011
:10494000003FF8003FF8000CC0000CC0000CC00095
:104950000CC0000CC00000000000000000000000BF
:104960000000000000000000000000018000018045
:104970000007B0000FF0001870001870001C000055
:104980000F800007E00000F0001830001C30001C11
:1049900070001FE0001BC00001800001800001804A
:1049A0000001800000000000000000000000000086
:1049B0000000000000000780000FC0001CE000188D
:1049C00060001860001CE0000FF80007E0001FF016
:1049D0000007380006180006180007380003F0002A
:1049E00001E00000000000000000000000000000E6
:1049F00000000000000000000000000000000000B7
:104A00000000000003F00007F0000C60000C000044
:104A10000C00000600000700000F9C001DFC0018A1
:104A2000F0001870000FFC0007DC00000000000020
:104A30000000000000000000000000000000000076
:104A4000000000000000000000038000038000035D
:104A500080000100000100000100000100000000D2
:104A60000000000000000000000000000000000046
:104A70000000000000000000000000000000000036
:104A8000000000000000000000000000000000180E
:104A90000000380000700000F00000E00000E000BE
:104AA00001C00001C00001C00001C00001C0000140
:104AB000C00000E00000E00000700000700000385E
:104AC00000001800000000000000000000000000CE
:104AD0000000000000001800001C00000E00000E86
:104AE000000007000007000003800003800003802F
:104AF000000380000380000380000700000700001F
:104B00000F00000E00001C00001800000000000054
:104B10000000000000000000000000000000018014
:104B2000000180000180001DB8001FF80007E000B0
:104B300003C00003C0000660000660000000000023
:104B40000000000000000000000000000000000065
:104B50000000000000000000000000000000000055
:104B600000000000000000000000000001800001C3
:104B700080000180000180000180003FFC003FFCBC
:104B800000018000018000018000018000018000A0
:104B90000000000000000000000000000000000015
:104BA0000000000000000000000000000000000005
:104BB00000000000000000000000000000000000F5
:104BC00000000000000000000000000000000000E5
:104BD000000000E00000C00001C000018000018072
:104BE00000030000030000000000000000000000BF
:104BF00000000000000000000000000000000000B5
:104C000000000000000000000000001FF8001FF876
:104C10000000000000000000000000000000000094
:104C20000000000000000000000000000000000084
:104C30000000000000000000000000000000000074
:104C40000000000000000000000000000000000064
:104C50000000000000000000000000000000000054
:104C6000000003C00003C00003C0000000000000FB
:104C70000000000000000000000000000000000034
:104C8000001800001800003800003000007000001C
:104C9000600000600000C00000C0000180000180D2
:104CA000000300000300000600000600000E0000E4
:104CB0000C00001C0000180000180000000000009C
:104CC000000000000000000000000000000003C021
:104CD0000007E0000C30000C300018180018180015
:104CE0001818001818001818001818001818000CC8
:104CF00030000C300007E00003C00000000000009E
:104D000000000000000000000000000000000000A3
:104D10000000000000000080000780001F80001DD0
:104D2000800001800001800001800001800001807E
:104D3000000180000180000180000180001FF80058
:104D40001FF800000000000000000000000000004C
:104D5000000000000000000000000000000007C08C
:104D6000001FF00038300030180030180000180024
:104D700000300000600001C0000380000600000C4D
:104D800000001800003FF8003FF80000000000009D
:104D90000000000000000000000000000000000013
:104DA00000000000000003C0000FE0000C700000D5
:104DB000300000300000600003C00003E00000701D
:104DC000000018000018000018001838001FF0003C
:104DD0000FC0000000000000000000000000000004
:104DE000000000000000000000000000000000E0E3
:104DF0000001E00001E000036000066000066000C2
:104E00000C60000C60001860003060003FF8003F4C
:104E1000F80000600003F80003F800000000000044
:104E20000000000000000000000000000000000082
:104E30000000000000001FF0001FF0001800001824
:104E400000001800001BC0001FF0001C30000018FC
:104E5000000018000018000018003030003FF0007B
:104E60000FC0000000000000000000000000000073
:104E7000000000000000000000000000000000F83A
:104E80000003F8000700000E00000C0000180000EE
:104E90001BC0001FF0001C30001818001818001864
:104EA00018000C38000FF00003E0000000000000C4
:104EB00000000000000000000000000000000000F2
:104EC0000000000000001FF8001FF800181800186C
:104ED000380000300000300000700000600000600A
:104EE0000000E00000C00000C00001C00001800020
:104EF0000180000000000000000000000000000031
:104F0000000000000000000000000000000007E0BA
:104F1000000FF0001C38001818001818000C3000A2
:104F200007E00007E0000C300018180018180018FF
:104F300018001C38000FF00007E00000000000001F
:104F40000000000000000000000000000000000061
:104F500000000000000007C0000FF0001C30001827
:104F600018001818001818000C38000FF80003D8A3
:104F70000000180000300000700000E0001FC000BA
:104F80001F00000000000000000000000000000002
:104F90000000000000000000000000000000000011
:104FA0000000000000000000000003C00003C0007B
:104FB00003C000000000000000000000000000002E
:104FC000000003C00003C00003C000000000000098
:104FD00000000000000000000000000000000000D1
:104FE00000000000000000000000000000000000C1
:104FF000000000F00000F00000F0000000000000E1
:105000000000000000000000E00001C0000180007E
:10501000018000030000020000000000000000000A
:105020000000000000000000000000000000000080
:1050300000000000001C00003C0000F00003C00065
:105040000F00003C0000F000003C00000F000003D7
:10505000C00000F000003C00001C00000000000048
:105060000000000000000000000000000000000040
:105070000000000000000000000000000000000030
:1050800000000000007FFC007FFC0000000000002A
:10509000007FFC007FFC000000000000000000001A
:1050A0000000000000000000000000000000000000
:1050B00000000000000000000000000000000000F0
:1050C000000000007000007800001E000007800053
:1050D00001E000007800001E0000780001E00007F9
:1050E00080001E000078000070000000000000003A
:1050F00000000000000000000000000000000000B0
:1051000000000000000000000007C0000FE00018D1
:10511000700018300018300000700000E00003C07C
:1051200000038000030000000000000000070000F2
:105130000700000000000000000000000000000068
:10514000000000000000000000000000000003E07C
:105150000007F0000E38000C180018780018F8004E
:1051600019D80019980019980019980018F8001813
:1051700078001800000C00000E180007F80003E08B
:10518000000000000000000000000000000000001F
:105190000000000000000000001F80001FC0000190
:1051A000C0000360000360000630000630000C30D1
:1051B000000FF8001FF800180C00300C00FC7F00F6
:1051C000FC7F000000000000000000000000000064
:1051D00000000000000000000000000000000000CF
:1051E000007FE0007FF00018380018180018180041
:1051F0001838001FF0001FF800181C00180C0018C9
:105200000C00180C007FF8007FF000000000000088
:10521000000000000000000000000000000000008E
:1052200000000000000000000003EC000FFC001C68
:105230001C00180C00300C00300000300000300062
:1052400000300000300000180C001C1C000FF8009B
:1052500003F000000000000000000000000000005B
:10526000000000000000000000000000000000003E
:10527000007FC0007FF000183800181800180C00DC
:10528000180C00180C00180C00180C00180C001852
:1052900018001838007FF0007FE0000000000000D8
:1052A00000000000000000000000000000000000FE
:1052B0000000000000000000007FF8007FF80018E8
:1052C00018001818001998001980001F80001F800E
:1052D000001980001998001818001818007FF800AD
:1052E0007FF8000000000000000000000000000047
:1052F00000000000000000000000000000000000AE
:10530000003FFC003FFC000C0C000C0C000CCC001F
:105310000CC0000FC0000FC0000CC0000CC0000C7F
:1053200000000C00003FC0003FC000000000000073
:10533000000000000000000000000000000000006D
:1053400000000000000000000003EC000FFC001C47
:105350001C00180C00300C0030000030000030FE43
:105360000030FE00300C00380C001C1C000FFC004C
:1053700003F000000000000000000000000000003A
:10538000000000000000000000000000000000001D
:10539000007E7E007E7E0018180018180018180085
:1053A0001818001FF8001FF8001818001818001827
:1053B00018001818007E7E007E7E000000000000AD
:1053C00000000000000000000000000000000000DD
:1053D0000000000000000000001FF8001FF800019E
:1053E00080000180000180000180000180000180B8
:1053F000000180000180000180000180001FF80092
:105400001FF8000000000000000000000000000085
:10541000000000000000000000000000000000008C
:105420000007FE0007FE00003000003000003000E2
:1054300000300000300030300030300030300030BC
:1054400030003060003FE0000F80000000000000EE
:10545000000000000000000000000000000000004C
:105460000000000000000000007F3E007F3E0018AA
:10547000300018600018C0001980001B80001FC099
:10548000001CE0001870001830001838007F1F0062
:105490007F1F00000000000000000000000000006E
:1054A00000000000000000000000000000000000FC
:1054B000007F80007F80000C00000C00000C0000CA
:1054C0000C00000C00000C00000C0C000C0C000C7C
:1054D0000C000C0C007FFC007FFC000000000000B2
:1054E00000000000000000000000000000000000BC
:1054F000000000000000000000F00F00F81F00385E
:105500001C003C3C003C3C00366C00366C0033CC4C
:105510000033CC00318C00300C00300C00FE7F00DA
:10552000FE7F0000000000000000000000000000FE
:10553000000000000000000000000000000000006B
:105540000078FE0078FE001C18001E18001F1800CE
:105550001B18001B980019D80018D80018F800185C
:1055600078001838007F18007F1800000000000045
:10557000000000000000000000000000000000002B
:1055800000000000000000000003C0000FF0001C3D
:105590003800181800381C00300C00300C00300C9B
:1055A00000300C00381C001818001C38000FF000E8
:1055B00003C0000000000000000000000000000028
:1055C00000000000000000000000000000000000DB
:1055D000003FF0003FF8000C1C000C0C000C0C000D
:1055E0000C0C000C18000FF8000FE0000C00000C71
:1055F00000000C00003FC0003FC0000000000000A1
:10560000000000000000000000000000000000009A
:1056100000000000000000000003C0000FF0001CAC
:105620003800181800381C00300C00300C00300C0A
:1056300000300C00381C001818001C38000FF00057
:1056400007C00007CC000FFC000C38000000000071
:10565000000000000000000000000000000000004A
:10566000007FE0007FF000183800181800181800BC
:105670001838001FF0001FC00018E0001870001854
:1056800030001838007F1E007F0E00000000000070
:10569000000000000000000000000000000000000A
:1056A00000000000000000000007D8000FF8001CF8
:1056B00038001818001818001E00000FC00003F072
:1056C000000078001818001818001C38001FF0009F
:1056D0001BE00000000000000000000000000000CF
:1056E00000000000000000000000000000000000BA
:1056F000003FFC003FFC00318C00318C00318C00FD
:10570000318C0001800001800001800001800001D7
:1057100080000180000FF0000FF00000000000008A
:105720000000000000000000000000000000000079
:105730000000000000000000007E7E007E7E001859
:105740001800181800181800181800181800181851
:10575000001818001818001818000C30000FF0007E
:1057600003C0000000000000000000000000000076
:105770000000000000000000000000000000000029
:10578000007F7F007F7F00180C000C18000C1800B1
:105790000C180006300006300003600003600003B0
:1057A000600001C00001C000008000000000000097
:1057B00000000000000000000000000000000000E9
:1057C000000000000000000000FE3F80FE3F80302F
:1057D000060030060030860019CC0019CC001B6C86
:1057E000001B6C001E7C000E38000E38000C1800E8
:1057F0000C18000000000000000000000000000085
:105800000000000000000000000000000000000098
:10581000007E7E007E7E001818000C3000066000BE
:1058200003C00001800001800003C0000660000C7E
:1058300030001818007E7E007E7E00000000000010
:105840000000000000000000000000000000000058
:105850000000000000000000007C7E007C7E00183C
:1058600018000C300006600006600003C0000180D4
:10587000000180000180000180000180000FF00025
:105880000FF0000000000000000000000000000019
:105890000000000000000000000000000000000008
:1058A000001FF8001FF800181800183000186000DA
:1058B00018C0000180000300000618000C18001832
:1058C00018003018003FF8003FF80000000000000A
:1058D00000000000000000000000000000000000C8
:1058E00000000000000001F00001F0000180000154
:1058F00080000180000180000180000180000180A3
:105900000001800001800001800001800001800012
:1059100001800001800001F00001F00000000000A3
:1059200000000000000000001800001800001C002B
:10593000000C00000E00000600000600000300003E
:1059400003000001800001800000C00000C00000D2
:105950006000006000007000003000003800001897
:10596000000018000000000000000000000000001F
:105970000000000000000F80000F80000180000187
:105980008000018000018000018000018000018012
:105990000001800001800001800001800001800082
:1059A0000180000180000F80000F800000000000D7
:1059B000000000000000000000000000800001C0A6
:1059C0000003E0000770000630000C1800180C00FF
:1059D00010040000000000000000000000000000B3
:1059E00000000000000000000000000000000000B7
:1059F00000000000000000000000000000000000A7
:105A00000000000000000000000000000000000096
:105A10000000000000000000000000000000000086
:105A20000000000000000000000000000000000076
:105A30000000000000000000000000000000000066
:105A40000000FFFF00FFFF000000000300000380D4
:105A50000000E00000600000000000000000000006
:105A60000000000000000000000000000000000036
:105A70000000000000000000000000000000000026
:105A80000000000000000000000000000000000016
:105A90000000000000000000000000000000000006
:105AA00000000FC0001FE00000300000300007F0D1
:105AB000001FF0003830003030003070001FFC0054
:105AC0000FBC00000000000000000000000000000B
:105AD000000000000000000000000000000078004E
