:020000040800F2
:1000000000000520DD020008E94D0008ED4D000864
:10001000F14D0008F54D0008F94D00080000000002
:10002000000000000000000000000000FD4D00087E
:10003000014E000800000000054E0008094E0008AF
:10004000D9350008D9350008D9350008D935000858
:10005000D9350008D9350008D9350008D935000848
:10006000D9350008D9350008D9350008D935000838
:10007000D9350008D9350008D9350008D935000828
:10008000D9350008D9350008D9350008D935000818
:10009000D9350008D9350008D9350008D935000808
:1000A000D9350008D9350008D9350008D9350008F8
:1000B000D9350008D9350008D9350008D9350008E8
:1000C000D9350008D9350008D9350008D9350008D8
:1000D000D9350008D9350008D9350008D9350008C8
:1000E000114E00082D320008D9350008D935000816
:1000F000D9350008D9350008D9350008D9350008A8
:10010000D9350008D9350008D9350008D935000897
:10011000D9350008D9350008D9350008D935000887
:100120002D4E0008D9350008D9350008D93500080A
:10013000D9350008D9350008D9350008D935000867
:10014000D9350008D9350008D9350008D935000857
:100150003D4E0008D9350008D9350008D9350008CA
:10016000D9350008D9350008D9350008D935000837
:10017000D9350008D9350008D9350008000000003D
:10018000D9350008D9350008D9350008D935000817
:10019000D9350008D9350008D9350008D935000807
:1001A000D9350008D9350008D9350008D9350008F7
:1001B000D9350008D9350008D9350008D9350008E7
:1001C000D9350008D935000800B583B003F06CF9C3
:1001D000304B314A1360314A1360314B314A03E0EE
:1001E00011681960043304322F498B42F8D32A4B2B
:1001F0001A682E4B9A4204D1284B1A682C4B9A420B
:1002000000D0FEE7234B2B4A13602B4A13602B4B85
:1002100002E000221A600433294A9342F9D3254BA5
:100220001B6813B9244B1B6803B1FEE703F048F9C0
:10023000694601A803F0E2F8224C234B1C1BA410D2
:10024000002504E01F4B53F8253098470135AC4298
:10025000F8DC1E4C1E4B1C1BA410002504E01B4B9D
:1002600053F8253098470135AC42F8DC00990198E5
:1002700004F09EFD0546174C174B1C1BA41004E010
:10028000013C144B53F824309847002CF8DC2846E6
:1002900003F090F8BABADECA00000020B0000020D7
:1002A0000000002088510C08B40000207856341259
:1002B00032547698B400002058060020B400002084
:1002C0005C060020340400083404000834040008EC
:1002D00044040008440400084404000808B5FFF77B
:1002E00073FF00BF00BEFEE71EF0040F0CBFEFF36C
:1002F0000880EFF309807146414A10472DE9F0412B
:1003000082B004468846134B5E6B9F6B9D6A1B6BE5
:1003100013F0020F0DD00F4BDB6A002B09DA4BF6FE
:10032000AB6103F049F920B14FF00042094BDA62AA
:100330000CE0094803F06AF8CDF800803B463246ED
:100340002946204603F0C0F800BEFEE702B0BDE833
:10035000F08100BF00ED00E0245B000800BEFEE776
:100360001EF0040F0CBFEFF30880EFF30980714615
:10037000244A10472DE9F04182B004468846084BD4
:100380005E6B9F6B9D6A074803F040F8CDF80080D4
:100390003B4632462946204603F096F800BEFEE76B
:1003A00000ED00E0345B00081EF0040F0CBFEFF31B
:1003B0000880EFF309807146134A10472DE9F04198
:1003C00082B004468846084B5E6B9F6B9D6A074867
:1003D00003F01CF8CDF800803B4632462946204603
:1003E00003F072F800BEFEE700ED00E0405B00089D
:1003F00000BEFEE700BEFEE700BEFEE7704700005D
:0C040000FD02000875030008BD030008A1
:10040C0088510C0800000020B400002088510C0812
:10041C000000001000000010B40000205C0600205A
:10042C0000000010000000104D4E0008114F000895
:08043C00954F0008195000085B
:1004500008B5074A136843F400731360032000F0E3
:1004600025F80F2002F006FE01F076FD002008BD01
:10047000003C0240024A136801331360704700BF1A
:100480005C040020014B1868704700BF5C0400202A
:1004900010B582B00190FFF7F5FF0446FFF7F2FFB9
:1004A000001B019B9842F9D302B010BD064AD368E5
:1004B00023F4E0631B041B0C000200F4E06018430B
:1004C000024B0343D360704700ED00E00000FA05E3
:1004D00030B4144BDB68C3F30223C3F10704042CCC
:1004E00028BF04241D1D062D01D9DD1E00E00025B6
:1004F000012303FA04F4013C2140A940AB40013B35
:100500001A400A43002806DA00F00F001201D2B2A6
:10051000054B1A5403E01201D2B2044B1A5430BCFA
:10052000704700BF00ED00E014ED00E000E400E0E3
:10053000420900F01F00012303FA00F0014B43F8C9
:100540002200704700E100E00138B0F1807F0AD25C
:10055000064B5860F021064A82F82310002098606C
:1005600007221A6070470120704700BF10E000E0CA
:1005700000ED00E0042805D1054A136843F00403A8
:1005800013607047024A136823F004031360704736
:1005900010E000E00268D3B2103B0949A1FB03134D
:1005A0001B090849C95CC165032B04D9064B1340DC
:1005B0000433836502E0044B13408365806D70470C
:1005C000ABAAAAAA005A000800FCFFFF836A82694E
:1005D000BAB9012B09D013B1022B0CD034E0C36A95
:1005E00013F0807F32D100207047C36AB3F1C07F1F
:1005F0002ED000207047C36A13F0807F2AD10020DC
:100600007047B2F5005F13D1032B03D8DFE803F086
:100610002404240A00207047C36A13F0807F1DD190
:1006200000207047C36AB3F1C07F19D00020704723
:10063000022B17D9032B01D000207047C36A13F097
:10064000807F11D100207047002070470120704743
:10065000012070470120704701207047012070473A
:1006600001207047012070470120704770B5044693
:10067000FFF708FF002C5AD00546002384F83430D9
:10068000022384F835302268136823F001031360D5
:100690000AE0FFF7F7FE401B052805D92023636514
:1006A000032084F8350070BD23681A6812F0010F2A
:1006B000EFD11A681F4810406168A2681143E268D0
:1006C00011432269114362691143A2691143E2692E
:1006D0000A43216A114340EA0102616A042903D1F5
:1006E000E06A216B01430A431A602668756925F0A8
:1006F0000705636A1D43042B0BD1A36A1D432046E3
:10070000FFF764FF28B140236365012084F83500BA
:1007100070BD75612046FFF73DFFE26D3F239340BA
:10072000836000206065012384F8353070BD0120AE
:1007300070BD00BF3F8010E030B338B5044690F87C
:100740003530DBB2022B21D00268136823F001039D
:100750001360036800251D6003685D6003689D6089
:100760000368DD6003681D61036821225A61FFF799
:1007700011FFE26D3F2393408360656584F8355037
:1007800084F83450284638BD01207047022038BD17
:10079000F0B583B0044600230193714B1B68714D83
:1007A000A5FB0335AD0A876D3E68C26D08239340F3
:1007B0001E4210D003681A6812F0040F0BD01A689A
:1007C00022F004021A60C26D08239340BB60436D9F
:1007D00043F001034365E26D634B93401E4209D031
:1007E0002268526912F0800F04D0BB60636D43F041
:1007F00002036365E26D5D4B93401E4209D022689F
:10080000126812F0020F04D0BB60636D43F0040362
:100810006365E26D102393401E4224D02268126863
:1008200012F0080F1FD0BB6023681A6812F4802FE3
:100830000DD01B6813F4002F04D1236C9BB120460C
:10084000984710E0A36C73B1204698470BE01A68F4
:1008500012F4807F03D11A6822F008021A60236C18
:100860000BB120469847E26D202393401E4252D0A0
:100870002268126812F0100F4DD0BB6094F835302A
:10088000DBB2052B22D12268136823F01603136014
:100890002268536923F080035361236C0BB9A36C66
:1008A00023B12268136823F008031360E26D3F232D
:1008B0009340BB60002384F83430012384F8353042
:1008C000236D002B49D02046984746E023681A68DC
:1008D00012F4802F0DD01B6813F4002F04D1636C29
:1008E000CBB12046984716E0E36BA3B1204698476A
:1008F00011E01A6812F4807F09D11A6822F0100200
:100900001A60002384F83430012384F83530E36B17
:100910000BB120469847636DFBB1636D13F0010F77
:1009200017D0052384F835302268136823F00103BB
:100930001360019B013301939D4204D323681B681C
:1009400013F0010FF5D1002384F83430012384F82B
:100950003530E36C0BB12046984703B0F0BD00BFC3
:100960000C000020B5814E1B0100800004008000B7
:10097000F0B407687E6C06F04046264D95FAA5F562
:10098000B5FA85F503FA05F5049C2C4334437C64E1
:100990000368DA634368B3F5403F36D101F07F4422
:1009A00001F47F0501F47F43C9B282681AB92B4371
:1009B0002343194326E0012A03D145EA03021143E8
:1009C00020E0022A07D1EA0C9C0AD30243EA44132E
:1009D00043EAD10116E0032A0AD1E40FEA0CDD0A4A
:1009E000930243EA451343EAC43343EAD10109E0E1
:1009F000240F2E0D1A0B360246EA021646EA04357B
:100A000045EA11110368996301E00368D960F0BCFD
:100A1000704700BF0000FF3F704700BF002845D06F
:100A200010B5044690F8513013F0FF0F04D10023A5
:100A300080F85030FFF7F0FF022384F8513021682E
:100A40000B6823F44032636813430B6021684B6BDF
:100A500023F00702A36813434B6321680B6C144A0D
:100A60001A40E36813430B642068436B23F480113E
:100A700023694FF4801292FAA2F2B2FA82F2934002
:100A80000B4343632068436B23F4001163694FF405
:100A9000001292FAA2F2B2FA82F293400B4343633D
:100AA00000206065012384F8513010BD012070479B
:100AB00000C0FFFF10B582B090F85040012C12D05A
:100AC0000446012084F85000022084F85100049864
:100AD00000902046FFF74CFF2268136843F00103A3
:100AE0001360002000E0022002B010BD70B582B09B
:100AF00004460D460023019303681B6813F0010FA1
:100B00003CD0FFF7BFFC064633E05A680192019AD9
:100B100012F0210F19D0019A12F0200F03D0626D4C
:100B200042F002026265019A12F0010F03D0626D79
:100B300042F00102626521229A60042384F8513058
:100B4000002384F8503001206FE0B5F1FF3F10D052
:100B500025B1FFF797FC801B85420AD2636D43F0F5
:100B600020036365032084F85100002384F850308B
:100B70005BE023685A6812F0020FC6D02368DA6976
:100B800012F0200F03D15B6A13F0200F44D0FFF75F
:100B900079FC06463BE05A680192019A12F0290F4F
:100BA00021D0019A12F0080F03D0626D42F00402C6
:100BB0006265019A12F0200F03D0626D42F00202CA
:100BC0006265019A12F0010F03D0626D42F00102DA
:100BD000626529229A60042384F85130002384F846
:100BE0005030012021E0B5F1FF3F10D025B1FFF7D3
:100BF00049FC801B85420AD2636D43F02003636584
:100C0000032084F85100002384F850300DE023685D
:100C10005A6812F0100FBED0236812229A60012386
:100C200084F85130002084F8500002B070BD00BF3D
:100C300090F85030012B7ED070B4012380F85030F2
:100C4000022380F851304A000A44D30003445E6A0C
:100C50009C6A4FF4403292FAA2F2B2FA82F29440C5
:100C600034431A6B4FF4801595FAA5F5B5FA85F55E
:100C7000AA4022435C6B4FF4001393FAA3F3B3FA38
:100C800083F304FA03F31343093E012E08D801EB62
:100C90004104E2000244D26A02F07F421A430CE0AF
:100CA00001EB4104E2000244D26A4FF07F4494FA1F
:100CB000A4F4B4FA84F4A2401A43D1B90468656A72
:100CC0001F4B2B401A43626204684A000A44D30057
:100CD00003441A6AA2615B6A093B012B23D80268AC
:100CE00001EB4101CB000344DB6A23F07F439362B5
:100CF00019E00468E569124B2B401A43E26104686D
:100D00004A000A44D30003441A6A22615B6A093B21
:100D1000012B08D8026801EB4101CB000344DB6AD8
:100D200023F07F431362012380F85130002380F8C1
:100D30005030184601E00220704770BC704700BF79
:100D4000F0FFCC0042EA811242EA0323009A43EA10
:100D50000243C366704700BF704700BF002800F021
:100D6000A58070B504460E46437C13F0FF0F01D1F9
:100D7000FFF7F2FF032363742268D2F8303443F0A4
:100D80008073C2F83034FFF77DFB054606E0FFF7BD
:100D900079FB401BB0F57A7F00F28A802368D3F894
:100DA0000C2412F4805FF2D0D3F83014424A0A4087
:100DB000C3F830242168D1F8300432687368DB024C
:100DC00043EA8202B36842EA03430343C1F8303482
:100DD0002268D2F8303443F00103C2F83034FFF710
:100DE00051FB054605E0FFF74DFB401BB0F57A7F50
:100DF00060D82368D3F80C2412F4807FF3D0D3F8A2
:100E0000A02042F00602C3F8A0202268D2F8943055
:100E100023F00303C2F894302268D2F89410636878
:100E20000B4343F00103C2F894302268D2F8A43097
:100E300023F00303C2F8A4302268D2F8A410E368B8
:100E40000B43C2F8A4302268936823F0FF03936039
:100E500022689168A3680B439360726802B901220B
:100E6000164B03FB02F3B26803FA02F2316846F252
:100E7000A81303FB01F3B2FBF3F32168D1F81824A4
:100E800022F03F02C1F818242168D1F81824134336
:100E9000C1F8183423680020C3F8C4002368C3F8DD
:100EA000C800A06160610123637470BD01207047B8
:100EB000032070BD032070BD0386FCFF00093D00C8
:100EC000704700BF58B310B504460323437402684B
:100ED000D2F8043423F00803C2F8043402685368DB
:100EE00023F0010353600268D2F8A03023F0060318
:100EF000C2F8A0300268D2F8303423F00103C2F8FF
:100F000030340268D2F8303423F08073C2F83034C1
:100F1000FFF7D6FF002060616074207410BD0120CF
:100F2000704700BF037C012B00F0208130B4012307
:100F300003740268536B23F0010353630268D2F811
:100F4000003423F00103C2F800340268936B23F0ED
:100F5000030393630268946BCB6823439363026833
:100F6000D46B844B2340D3630268D46B0B69234357
:100F7000D3630468226C804B1A4022640468256C99
:100F80004A692A4322640268546C2340536402680D
:100F9000546C8B69234353640268D36823F00303C2
:100FA000D3600268D4680B682343D3600268536936
:100FB00023F007035361046865694B6A0A6A1A43A0
:100FC000CB6913432B4363610268136923F00F035A
:100FD0001361026814694B68234313610268D2F8F5
:100FE000003423F00E03C2F800340268D2F8003453
:100FF0004C6843EA4403C2F800344B68032B09D120
:101000000268136923F480731361026814698B68A2
:10101000234313610468A26C584B1A40A26404680D
:10102000A56C8A6A2A43A2640268D46C2340D36404
:101030000268D46CCB6A2343D3640268146D504BAE
:10104000234013650268146D0B6B2343136504681A
:10105000626D4C4B1A4062650468656D4A6B2A43A9
:1010600062650468A26D1A40A2650468A56D8A6B6A
:101070002A43A2650268D46D2340D3650268D46D0B
:10108000CB6B2343D3650268146E3A4B234013663F
:101090000268146E0B6C234313660268936B23F48F
:1010A000004393630268946B4B6C23439363026821
:1010B000936923F47F039361026893698C6C43EA1C
:1010C000044393610268936923F0FF03936102680C
:1010D0009469CB6C234393610268936B23F40053B0
:1010E00093630268946B0B6D234393630268936B65
:1010F00023F4805393630268946B4B6D2343936393
:101100000268936B23F4006393630268946B8B6DA6
:10111000234393630268936B23F4806393630268B1
:10112000946BCB6D234393630268936B23F400733A
:1011300093630268946B0B6E234393630268936B13
:1011400023F4807393630268946B4B6E2343936321
:101150000268936B23F4804393630268946B8B6EF5
:101160002343936300230374184601E00220704771
:1011700030BC704700C0FFFF00E0FFFF00F0FFFF42
:101180000080FFFF00FCFFFF037C012B11D0012337
:1011900003740268536843F0010353600268D2F895
:1011A000043443F00803C2F80434002303741846DF
:1011B00070470220704700BF2DE9F04383B0047CE4
:1011C000012C22D0994690460F4605460123037410
:1011D000FFF758F9064609E0FFF754F9801BB0F510
:1011E0007A7F03D900232B7403200FE02868446F13
:1011F00014F0010FF0D00A9B00934B46424639464B
:10120000FFF7A0FD0020287400E0022003B0BDE835
:10121000F08300BF2DE9F04383B00B9E047C012CCA
:101220004AD01F4691468846054601230374FFF7BE
:1012300029F9044609E0FFF725F9001BB0F57A7F8C
:1012400003D900232B74032037E02868406F10F087
:10125000010FF0D0002420E07CB92A68335D0A99A0
:1012600041EA0323611C715C43EA0143A11C715CE8
:1012700043EA0163136703340FE02A68335D611C9E
:10128000715C43EA0123A11C715C43EA0143E11C48
:10129000715C43EA016313670434BC42DCD37B1CFA
:1012A000C3F307220092DBB24A4641462868FFF7A3
:1012B00049FD0020287400E0022003B0BDE8F0835F
:1012C000F0B583B00024D8E00123A3400A6803EA04
:1012D0000205AB4240F0D0804A68122A18BF022AA9
:1012E00010D1E608083650F826C004F0070297002F
:1012F0000F22BA402CEA020E0A69BA404EEA0202F4
:1013000040F82620026867000326BE40F64302EA42
:10131000060E4A6802F00302BA404EEA0202026078
:101320004A6802F1FF3E112A18BFBEF1010F01D930
:10133000122A10D1826806EA020ECA68BA404EEA42
:1013400002028260426822EA03034A68C2F3001282
:10135000A2401A434260C3681E408B68BB403343BF
:10136000C3604B6813F0805F00F08680454B5A6C79
:1013700042F480425A645B6C03F480430193019B06
:10138000A608B21C404B53F8227004F003039B00E4
:101390000F229A4027EA02073C4A904225D002F5E4
:1013A0008062904223D002F58062904221D002F503
:1013B000806290421FD002F5806290421DD002F5FB
:1013C000806290421BD002F58062904219D002F5F3
:1013D0008062904217D002F58062904215D002F5EB
:1013E0008062904213D1092212E0002210E0012213
:1013F0000EE002220CE003220AE0042208E00522AB
:1014000006E0062204E0072202E0082200E00A22A9
:1014100002FA03F33B4302361B4A42F826301C4BC8
:101420001A68EB4302EA03064F6817F4803F01D0C5
:1014300045EA0206164A1660526803EA02064F6839
:1014400017F4003F01D045EA0206114A566092683F
:1014500003EA02064F6817F4801F01D045EA02062E
:101460000B4A9660D26813404E6816F4001F01D0F4
:1014700045EA0203064AD36001340F2C7FF624AFFD
:1014800003B0F0BD003802400038014000000240C7
:10149000003C01400AB181617047090481617047D5
:1014A00008B5044B5B69034203D0024B586103F05B
:1014B0007BFB08BD003C014003689A6912F0020FF3
:1014C00001D000229A6203689A6912F0010F03D1D9
:1014D0009A6942F001029A61704700BF30B4056812
:1014E0006868064C0440C1F3090141EA0242134313
:1014F000029818432043686030BC7047009800FC95
:1015000070B504460D46164603689B6913F0100F2C
:1015100014D1002070BDB5F1FF3F0FD025B1FEF70B
:10152000B1FF801B854209D2202384F8413000237B
:1015300084F8423084F84030032070BD23689A69F3
:1015400012F0200FE7D01022DA6123682025DD6138
:101550002046FFF7B1FF2268536823F0FF7323F49E
:101560008B3323F4FF7323F001035360042363647C
:1015700084F84150002384F8423084F84030012040
:1015800070BD00BF70B504460D4616461CE03246DD
:1015900029462046FFF7B4FFE8B9B5F1FF3F13D065
:1015A00025B1FEF76FFF801B85420DD2636C43F0BF
:1015B00020036364202384F84130002384F8423000
:1015C00084F84030032070BD23689B6913F0020F3C
:1015D000DDD0002070BD012070BD00BFF8B505460C
:1015E0000F4616461C4613E0B4F1FF3F10D02CB155
:1015F000FEF748FF069BC01A844209D2202385F8D3
:101600004130002385F8423085F840300320F8BD92
:101610002B689B6937EA03030CBF01230023B34205
:10162000E2D00020F8BD00BF70B582B00446164677
:101630001D464FF4005300934FF08073EAB2FFF75A
:101640004DFF079A06992046FFF79CFF20B1636C77
:10165000042B24D1012325E0012D03D12368F6B208
:101660009E6210E02368320A9A62079A0699204621
:10167000FFF788FF20B1636C042B12D1012311E026
:101680002368F6B29E62079B0093069B002280218E
:101690002046FFF7A3FF034620B1032302E0032304
:1016A00000E00323184602B070BD00BF70B582B0E1
:1016B000044616461D464FF4005300930023EAB239
:1016C000FFF70CFF079A06992046FFF75BFF20B152
:1016D000636C042B24D1012325E0012D03D1236861
:1016E000F6B29E6210E02368320A9A62079A06995F
:1016F0002046FFF747FF20B1636C042B12D1012372
:1017000011E02368F6B29E62079B0093069B0022BD
:1017100040212046FFF762FF034620B1032302E089
:10172000032300E00323184602B070BD70B50546E0
:101730000C46164619E0324621462846FFF7E0FEE1
:10174000D0B924B1FEF79EFE801B84420DD26B6C93
:1017500043F020036B64202385F84130002385F893
:10176000423085F84030032070BD2B689B6913F030
:10177000200FE0D0002070BD012070BD704700BF79
:10178000002857D010B5044690F8413013F0FF0FF1
:1017900004D1002380F84030FFF7F0FF242384F8C1
:1017A00041302268136823F00103136022686368E4
:1017B00023F0706313612268936823F400439360FD
:1017C000E368012B05D12268A36843F400439360CA
:1017D00004E02268A36843F404439360E368022BA7
:1017E00003D123684FF400625A6022685168124B9B
:1017F0000B4353602268D36823F40043D36022680C
:10180000216963690B43A16943EA0123D36022681C
:10181000E169236A0B4313602268136843F00103F4
:10182000136000206064202384F84130206384F832
:10183000420010BD0120704700800002704700BFC9
:10184000A8B110B50446242380F84130026813681B
:1018500023F001031360FFF7F1FF0020606484F8B8
:101860004100206384F8420084F8400010BD01204C
:10187000704700BF2DE9F04782B0BDF82C5090F8BA
:101880004140E4B2202C40F0C7800A9C002D18BFD4
:10189000002C00F0C38090F84040012C00F0C08084
:1018A000984691460E4604464FF0010A80F840A043
:1018B000FEF7E8FD07460090192352464FF4004119
:1018C0002046FFF78BFE002840F0AC80212384F8EF
:1018D0004130402384F84230002363640A9A6262F4
:1018E0006585636301970C9B009343464A463146E6
:1018F0002046FFF799FE60B1636C042B04D10023EE
:1019000084F84030534694E0002384F840300323A9
:101910008FE0638D9BB2FF2B0AD9FF222285002323
:1019200000934FF0807331462046FFF7D7FD0BE060
:10193000628D92B22285002300934FF00073D2B2E1
:1019400031462046FFF7CAFD3A460C992046FFF77C
:1019500019FE20B1636C042B66D1012369E0226873
:10196000636A591C61621B789362638D9BB2013B71
:101970009BB26385238D013B9BB2238533BB638D73
:101980009BB21BB300970C9B002280212046FFF7DF
:1019900025FE00284AD1638D9BB2FF2B0AD9FF2276
:1019A0002285002300934FF0807331462046FFF7D5
:1019B00095FD0BE0628D92B22285002300934FF0DB
:1019C0000073D2B231462046FFF788FD638D9BB28B
:1019D000002BB9D13A460C992046FFF7A7FE0346E3
:1019E00020B1636C042B23D1012322E02268202143
:1019F000D1612068426822F0FF7222F48B3222F417
:101A0000FF7222F00102426084F84110002284F843
:101A1000422084F840200CE002230AE0012308E081
:101A2000022306E0032304E0032302E0032300E093
:101A30000323184602B0BDE8F08700BF2DE9F04748
:101A400082B0BDF82C5090F84140E4B2202C40F018
:101A5000C6800A9C002D18BF002C00F0C28090F8B0
:101A60004040012C00F0BF80984691460E46044647
:101A70004FF0010A80F840A0FEF704FD07460090F1
:101A8000192352464FF400412046FFF7A7FD0028D6
:101A900040F0AB80222384F84130402384F8423068
:101AA000002363640A9A62626585636301970C9BF5
:101AB000009343464A4631462046FFF7F7FD60B1A2
:101AC000636C042B04D1002384F84030534693E028
:101AD000002384F8403003238EE0638D9BB2FF2BFC
:101AE0000BD9FF2222854FF4105300934FF08073DF
:101AF00031462046FFF7F2FC0CE0628D92B222855F
:101B00004FF4105300934FF00073D2B23146204689
:101B1000FFF7E4FC00970C9B002204212046FFF70E
:101B20005DFD002863D1636A5A1C62622268526AB2
:101B30001A70228D013A92B22285638D9BB2013BCD
:101B40009BB263852ABB638D9BB213B300970C9B3A
:101B500080212046FFF742FD00284AD1638D9BB2C9
:101B6000FF2B0AD9FF222285002300934FF08073B8
:101B700031462046FFF7B2FC0BE0628D92B222851F
:101B8000002300934FF00073D2B231462046FFF796
:101B9000A5FC638D9BB2002BBCD13A460C99204624
:101BA000FFF7C4FD034620B1636C042B23D101234E
:101BB00022E022682021D1612068426822F0FF7271
:101BC00022F48B3222F4FF7222F00102426084F888
:101BD0004110002284F8422084F840200CE00223C7
:101BE0000AE0012308E0022306E0032304E00323C4
:101BF00002E0032300E00323184602B0BDE8F087AB
:101C000090F84100704700BFF0B54D680468E36884
:101C1000C3F30B431D44D2011444D4F8883003F4B9
:101C20007043C4F88830046816190B68E468C4F37C
:101C30000B442344013343EA0543C6F88830CD689A
:101C40000468E368C3F30A031D441444D4F88C30D9
:101C500003F47043C4F88C30046816198B68E46888
:101C6000C4F30A042344013343EA0543C6F88C3025
:101C700003681344D3F8944024F00704C3F8944055
:101C8000036813440C69C3F8944091F831E091F86B
:101C900032308F6906681644D6F89C400025C6F895
:101CA0009C500668164491F8304044EA0E2444EAF9
:101CB000034343EA0763C6F89C3003681344D3F830
:101CC000984024F0FF04C3F89840036813444C691B
:101CD000C3F8984003681344D3F8A0602D4C3440F7
:101CE000C3F8A04003681344CE690C6A3443C3F8B8
:101CF000A04003681344D3F8AC40C3F8AC50036869
:101D000013444C6AC3F8AC400B695BB1012B0BD098
:101D1000022B18BF042B09D0032B09D0072B09D1A4
:101D2000022708E0042706E0032704E0022702E078
:101D3000022700E0012704681444D4F8B03003F00F
:101D4000E023C4F8B0300468144404F184058C6ABC
:101D500004FB07F64B680C681C1B04FB07F30333FA
:101D600043EA0643EB6203681344D3F8B4500A4CC9
:101D70002C40C3F8B44003681344C96AC3F8B410D4
:101D800003681A44D2F8843043F00103C2F8843067
:101D9000F0BD00BFF8F8FFFF00F8FFFF704700BF7D
:101DA000002878D038B5044690F8A13013F0FF0F22
:101DB00004D1002380F8A030FFF7F0FF022384F85D
:101DC000A1302268936923F0704393612168886988
:101DD0006368A2681343E2681A4323691343034309
:101DE0008B6121688A682D4B1A408A606569216879
:101DF0008868A26942EA054202438A602168CA688B
:101E00001A40CA60E5692168C868226A42EA054248
:101E10000243CA6021680A691A400A61656A21683A
:101E20000869A26A42EA054202430A6122685169CE
:101E30000B405361E06A22685169236B43EA004317
:101E40000B43536194F8353094F83620120420681F
:101E5000C16A01F07F41C1622168C86A42EA032277
:101E600094F8343013430343CB622268536B43F03E
:101E7000040353632268536B43F0020353632268E5
:101E8000936943F0010393610020C4F8A400012387
:101E900084F8A13038BD0120704700BF00F800F081
:101EA00090F8A030012B27D02DE9F04196460F463F
:101EB00006464FF0010880F8A080022380F8A13088
:101EC000342404FB020438340D460FCD0FC40FCD6B
:101ED0000FC40FCD0FC42B682360724639463046BD
:101EE000FFF792FE3368C3F8248086F8A1800020B3
:101EF00086F8A000BDE8F081022070474B6A0BB164
:101F00004FF00053C3600B6A13B94FF0804300E0F9
:101F100000238360CB6913B94FF0004300E0002336
:101F200043604B6B013B83614A6B8B6B1344013BFA
:101F300003624A6B8B6B1A440B6C1344013B836244
:101F40004A6B8B6B1A440B6C1344CA6B1344013BF2
:101F500003630020704700BF704700BF10B582B018
:101F60001C4B1A6C42F080521A641B6C03F08053B5
:101F70000193019B184A136843F480331360FEF702
:101F800081FA044605E0FEF77DFA001BB0F57A7F82
:101F90001AD8114B5B6813F4803FF4D00E4A1368D3
:101FA00043F400331360FEF76DFA044605E0FEF7D4
:101FB00069FA001BB0F57A7F08D8074B5B6813F409
:101FC000003FF4D0002002E0032000E0032002B034
:101FD00010BD00BF003802400070004070B582B0F4
:101FE0000446036813F0010F65D0A44B9B6803F00F
:101FF0000C03042B0AD0A14B9B6803F00C03082BA5
:102000000DD19E4B5B6813F4800F08D09B4B1B686F
:1020100013F4003F4FD06368002B4CD1DBE16368C1
:10202000B3F5803F05D1954A136843F480331360BC
:1020300020E04BB9914B1A6822F480321A601A687A
:1020400022F480221A6015E0B3F5A02F09D18B4B42
:102050001A6842F480221A601A6842F480321A60C8
:1020600008E0864B1A6822F480321A601A6822F45B
:1020700080221A6063687BB1FEF704FA054605E02A
:10208000FEF700FA401B642800F2A7817B4B1B6817
:1020900013F4003FF4D00EE0FEF7F4F9054605E036
:1020A000FEF7F0F9401B642800F29981734B1B681E
:1020B00013F4003FF4D1236813F0020F5ED06F4B8E
:1020C0009B6813F00C0F0AD06C4B9B6803F00C0359
:1020D000082B1BD1694B5B6813F4800F16D1674B3B
:1020E0001B6813F0020F03D0E368012B40F07981E5
:1020F0006248036823F0F8012369F82292FAA2F2F9
:10210000B2FA82F293400B43036037E0E3680BB30B
:102110005A4A136843F001031360FEF7B3F905460A
:1021200005E0FEF7AFF9401B022800F25C81534B3B
:102130001B6813F0020FF4D05048036823F0F80135
:102140002369F82292FAA2F2B2FA82F293400B4388
:10215000036013E0494A136823F001031360FEF79C
:1021600091F9054605E0FEF78DF9401B022800F2C3
:102170003C81424B1B6813F0020FF4D1236813F02B
:10218000080F2AD06369A3B13C4A536F43F001039F
:102190005367FEF777F9054605E0FEF773F9401B34
:1021A000022800F22481354B5B6F13F0020FF4D04C
:1021B00013E0324A536F23F001035367FEF762F9CD
:1021C000054605E0FEF75EF9401B022800F211818A
:1021D0002A4B5B6F13F0020FF4D1236813F0040F46
:1021E00000F08480254B1B6C13F0805F0BD1234BD8
:1021F0001A6C42F080521A641B6C03F080530193F6
:10220000019B012500E000251D4B1B6813F4807F16
:1022100013D11B4A136843F480731360FEF732F93D
:10222000064605E0FEF72EF9801B642800F2E380E5
:10223000134B1B6813F4807FF4D0A368012B05D1E6
:102240000E4A136F43F00103136724E04BB90B4BA5
:102250001A6F22F001021A671A6F22F004021A673D
:1022600019E0052B0ED1054B1A6F42F004021A67D4
:102270001A6F42F001021A670DE000BF00380240F9
:1022800000700040644B1A6F22F001021A671A6F47
:1022900022F004021A67A3688BB1FEF7F3F8064632
:1022A00007E0FEF7EFF8801B41F28833984200F216
:1022B000A480594B1B6F13F0020FF2D010E0FEF711
:1022C000E1F8064607E0FEF7DDF8801B41F28833AF
:1022D000984200F29480504B1B6F13F0020FF2D122
:1022E00025B14D4A136C23F080531364A369002B6E
:1022F00000F08780484A926802F00C02082A00F039
:102300008280022B52D1444A136823F080731360F9
:10231000FEF7B8F8054604E0FEF7B4F8401B0228C3
:1023200073D83D4B1B6813F0007FF5D1E169236A38
:102330001943636A47F6C07292FAA2F2B2FA82F2C5
:1023400093401943A36A5B085A1E4FF4403393FA33
:10235000A3F3B3FA83F302FA03F30B43E26A4FF0F9
:10236000706191FAA1F1B1FA81F18A401343226BB5
:102370004FF0E04191FAA1F1B1FA81F18A401343A3
:10238000254A5360136843F080731360FEF77AF8B0
:10239000044604E0FEF776F8001B022837D81E4BEF
:1023A0001B6813F0007FF5D0002033E01A4A136851
:1023B00023F080731360FEF765F8044604E0FEF72F
:1023C00061F8001B022824D8134B1B6813F0007F10
:1023D000F5D100201EE001201CE003201AE00320BC
:1023E00018E0012016E0032014E0032012E003208F
:1023F00010E003200EE003200CE003200AE003209D
:1024000008E0002006E0012004E0032002E00320B1
:1024100000E0032002B070BD00380240244B9B68EE
:1024200003F00C03042B3FD0082B01D02148704748
:1024300010B41F4B586800F03F005B6813F4800F26
:1024400010D01D4BB3FBF0F0194B5A6847F6C07122
:102450000A4091FAA1F3B3FA83F322FA03F303FBE0
:1024600000F310E0134BB3FBF0F0114B5A6847F642
:10247000C07402EA040194FAA4F2B2FA82F221FAD8
:1024800002F202FB00F30A4A506800F440324FF4B3
:10249000403090FAA0F0B0FA80F022FA00F001305B
:1024A0004000B3FBF0F001E00348704710BC7047F8
:1024B000003802400024F40040787D0170B5604B84
:1024C0001B6803F00F038B420BD25D4A136823F0A5
:1024D0000F030B431360136803F00F03994240F09E
:1024E0009E80036813F0020F06D0564CA36823F0B9
:1024F000F00283681343A3600D460446036813F09B
:10250000010F4DD04268012A05D14E4B1B6813F4D0
:10251000003F0DD185E0022A05D14A4B1B6813F01C
:10252000007F05D17FE0474B1B6813F0020F7CD082
:1025300044498B6823F0030313438B60FDF7A2FF2C
:1025400006466368012B0ED106E0FDF79BFF801B5A
:1025500041F2883398426AD83A4B9B6803F00C03E7
:10256000042BF2D11CE0022B15D106E0FDF78AFF07
:10257000801B41F2883398425BD8324B9B6803F052
:102580000C03082BF2D10BE0FDF77CFF801B41F21E
:10259000883398424FD82B4B9B6813F00C0FF3D124
:1025A000274B1B6803F00F039D420AD2244A13688D
:1025B00023F00F032B431360136803F00F039D42B6
:1025C0003BD1236813F0040F06D01E498B6823F417
:1025D000E052E36813438B60236813F0080F07D0C1
:1025E000184A936823F46043216943EAC103936066
:1025F000FFF714FF134B9B6803F0F002F02393FAEC
:10260000A3F3B3FA83F322FA03F30F4AD35CD8405F
:102610000E4B18600F2000F02DFD002070BD012032
:1026200070BD012070BD012070BD012070BD032070
:1026300070BD032070BD032070BD012070BD00BFC0
:10264000003C024000380240505B00080C000020B3
:10265000014B1868704700BF0C000020F0B583B034
:102660000446036813F0010F0CD04E4B9A6822F415
:1026700000029A609968426B0A439A60436B1BB1EF
:10268000002702E0002700E00127236813F4002F51
:1026900010D04449D1F88C3023F44012E36B13433B
:1026A000C1F88C30E36BB3F5801F00D101271BB15B
:1026B000002502E0002500E00125236813F4801FB7
:1026C0000FD03849D1F88C3023F44002236C1343E7
:1026D000C1F88C30236CB3F5800F00D1012703B90A
:1026E0000125236813F0807F00D0012713F0200F0D
:1026F0006AD02C4B1A6C42F080521A641B6C03F0A7
:1027000080530193019B284A136843F4807313603C
:10271000FDF7B8FE064605E0FDF7B4FE801B642811
:1027200000F29B83204B1B6813F4807FF4D01D4B79
:102730001B6F13F4407326D0226B02F44072934255
:1027400021D0184B1A6F22F44072196F41F4803176
:102750001967196F21F4803119671A671B6F13F01D
:10276000010F10D0FDF78EFE064607E0FDF78AFE4A
:10277000801B41F28833984200F27183094B1B6F32
:1027800013F0020FF2D0236B03F44072B2F5407FD6
:102790000ED10448826822F4F811044A1A400A4310
:1027A00082600AE00038024000700040FFFCFF0F2A
:1027B000974A936823F4F8139360954A116F236B3B
:1027C000C3F30B030B431367236813F0100F0CD0F4
:1027D0008F4BD3F88C2022F08072C3F88C20D3F872
:1027E0008C10A26B0A43C3F88C20236813F4804F2B
:1027F00008D08749D1F8903023F44032636E1343F8
:10280000C1F89030236813F4004F08D08049D1F804
:10281000903023F44022A36E1343C1F89030236814
:1028200013F4803F08D07A49D1F8903023F4401255
:10283000E36E1343C1F89030236813F4003F08D0CF
:102840007349D1F8903023F44002236F1343C1F849
:102850009030236813F0400F08D06D49D1F89030C4
:1028600023F00302636C1343C1F89030236813F024
:10287000800F08D06649D1F8903023F00C02A36C89
:102880001343C1F89030236813F4807F08D0604967
:10289000D1F8903023F03002E36C1343C1F890304C
:1028A000236813F4007F08D05949D1F8903023F001
:1028B000C002236D1343C1F89030236813F4806F76
:1028C00008D05349D1F8903023F44072636D13431C
:1028D000C1F89030236813F4006F08D04C49D1F848
:1028E000903023F44062A36D1343C1F89030236805
:1028F00013F4805F08D04649D1F8903023F4405259
:10290000E36D1343C1F89030236813F4005F08D0DF
:102910003F49D1F8903023F44042236E1343C1F86D
:102920009030236813F4800F08D03949D1F89030E3
:1029300023F08062A36F1343C1F89030236813F42F
:10294000001F0DD03249D1F8903023F00062E36FC0
:102950001343C1F89030E36FB3F1006F00D101254C
:10296000236813F0080F00D0012513F4802F08D03E
:102970002749D1F8903023F04072636F1343C1F8B8
:102980009030236813F4000F09D02149D1F890301A
:1029900023F08052D4F880301343C1F8903023687C
:1029A00013F0806F09D01A49D1F8903023F000520B
:1029B000D4F884301343C1F89030236813F0006FCB
:1029C00009D01349D1F88C3023F00072D4F8883044
:1029D0001343C1F88C30236813F0805F09D00C4991
:1029E000D1F88C3023F08062D4F88C301343C1F8D6
:1029F0008C3027B92368B3F1007F40F02781044A67
:102A0000136823F080631360FDF73CFD064607E082
:102A100000380240FDF736FD801B642800F2218259
:102A2000904B1B6813F0006FF4D1236813F0010F73
:102A30003BD0636BCBBB8B48D0F8846006F4403648
:102A40004FF4403292FAA2F3B3FA83F3DE40D0F8A7
:102A5000841001F070674FF0706393FAA3F1B1FA3C
:102A600081F127FA01F1676847F6C07E9EFAAEFE53
:102A7000BEFA8EFE07FA0EF792FAA2F2B2FA82F2CC
:102A800006FA02F23A4393FAA3F3B3FA83F301FA94
:102A900003F31A43A3684FF0E04191FAA1F1B1FAB0
:102AA00081F18B401343C0F88430236813F4002F66
:102AB00003D0E26BB2F5801F06D013F4801F47D01D
:102AC000236CB3F5800F43D16648D0F8842002F41C
:102AD00040324FF4403E9EFAAEF3B3FA83F322FA4B
:102AE00003F6D0F8841001F0E0414FF0E04393FA90
:102AF000A3F2B2FA82F2D14047F6C07797FAA7F76D
:102B0000B7FA87F7626802FA07F79EFAAEF2B2FAEE
:102B100082F206FA02F247EA0206E2684FF07067B4
:102B200097FAA7F7B7FA87F7BA40324393FAA3F3B5
:102B3000B3FA83F301FA03F31343C0F88430D0F8F7
:102B40008C3023F01F02636A013B1343C0F88C30C2
:102B5000236813F0807F3BD0424ED6F8840000F00B
:102B600070604FF0706292FAA2F3B3FA83F3D84028
:102B7000D6F8841001F0E04E4FF0E04797FAA7F145
:102B8000B1FA81F32EFA03F1636847F6C07E9EFA2C
:102B9000AEFEBEFA8EFE03FA0EFE4FF4403393FAF9
:102BA000A3F3B3FA83FC236903FA0CF34EEA03039D
:102BB00092FAA2F2B2FA82F200FA02F21A4397FAF9
:102BC000A7F3B3FA83F301FA03F31343C6F884308F
:102BD000236813F0007F25D0626847F6C07393FA2C
:102BE000A3F3B3FA83F39A4023694FF4403191FA87
:102BF000A1F1B1FA81F18B401343E2684FF07061AB
:102C000091FAA1F1B1FA81F18A401A43A3684FF019
:102C1000E04191FAA1F1B1FA81F18B401343114ADD
:102C2000C2F884300F4A136843F080631360FDF7E5
:102C300029FC064605E0FDF725FC801B642800F210
:102C40001281084B1B6813F0006FF4D0002D00F0C8
:102C50000C81044A136823F080531360FDF712FCC3
:102C6000054607E000380240FDF70CFC401B6428D5
:102C700000F2FD80804B1B6813F0005FF4D12368E5
:102C800013F4002F01D0E26B2AB113F4801F47D058
:102C9000236C002B44D17848D0F8885005F4403597
:102CA0004FF4403292FAA2F3B3FA83F3DD40D0F846
:102CB000881001F0E0464FF0E04393FAA3F1B1FA37
:102CC00081F126FA01F1676947F6C07696FAA6F611
:102CD000B6FA86F607FA06F692FAA2F2B2FA82F28B
:102CE00005FA02F246EA0205A2694FF0706696FA0A
:102CF000A6F6B6FA86F6B2402A4393FAA3F3B3FADD
:102D000083F301FA03F31343C0F88830D0F88C3012
:102D100023F4F853A26A013A43EA0223C0F88C3044
:102D2000236813F4001F3DD0E36FB3F1006F39D176
:102D3000514ED6F8880000F070604FF0706292FA41
:102D4000A2F3B3FA83F3D840D6F8881001F0E0413B
:102D50004FF0E04595FAA5F3B3FA83F3D9406769DC
:102D600047F6C07393FAA3F3B3FA83F307FA03FEAB
:102D7000236A4FF4403797FAA7F7B7FA87F7BB40B3
:102D80004EEA030392FAA2F2B2FA82F200FA02F2D7
:102D90001A4395FAA5F3B3FA83F301FA03F3134345
:102DA000C6F88830236813F0080F41D0324DD5F8AB
:102DB000882002F070624FF0706191FAA1F3B3FACB
:102DC00083F322FA03F6D5F8883003F440334FF446
:102DD000403090FAA0F2B2FA82F223FA02F2676966
:102DE00047F6C07393FAA3F3B3FA83F39F4090FAC4
:102DF000A0F3B3FA83F302FA03F33B4391FAA1F28F
:102E0000B2FA82F206FA02F21343E2694FF0E041AD
:102E100091FAA1F1B1FA81F18A401343C5F88830E3
:102E2000D5F88C3023F44032E36A1343C5F88C3074
:102E3000114A136843F080531360FDF723FB0446E7
:102E400004E0FDF71FFB001B642812D80A4B1B6827
:102E500013F0005FF5D000200CE003200AE003200F
:102E600008E0032006E0032004E0002002E0032045
:102E700000E0032003B0F0BD00380240704700BFFF
:102E800010B504460368DA6812F4807F0BD09B68A3
:102E900013F4805F07D000F095F92268D368DBB2A5
:102EA00063F4C073D3602368DA6812F4007F0CD037
:102EB0009B6813F4005F08D0204600F083F8226876
:102EC000D368DBB263F42073D3604FF40032024B5B
:102ED0005A610123637710BD003C014038B5036897
:102EE000DA6812F0400F14D104464FF0FF32DA6076
:102EF000FDF7C8FA054605E0FDF7C4FA401BB0F53A
:102F00007A7F08D82368DB6813F0400FF4D00020E4
:102F100038BD002038BD032038BD00BF002849D08F
:102F200038B50446437F13F0FF0F03D10023037726
:102F3000FFF7A4FF022363772368CA225A6223683B
:102F400053225A622046FFF7C9FF024630B1236878
:102F5000FF225A620423637701222EE021688868E9
:102F6000174B03408B6020688568636821691943AB
:102F700063690B432B4383602368E168196121680F
:102F80000B69A06843EA00430B612168CB6823F01A
:102F90008003CB602168CB6C23F00803CB642168ED
:102FA000C86CA3690343CB642368FF2159620123E2
:102FB000637702E0012210467047104638BD00BF1B
:102FC000BFFF8FFF704700BF704700BFE8B138B543
:102FD00004460D4690F82C3013F0FF0F04D1002367
:102FE00080F82D30FFF7F0FF022384F82C30211DEC
:102FF000206800F023F962682946206800F05AF939
:10300000012384F82C30002038BD0120704700BF18
:1030100038B590F82C30DBB2022B14D00D460446A4
:10302000022380F82C30006800F092F92B68022B04
:1030300004D1052384F82C30002038BD012384F806
:103040002C30002038BD022038BD00BF90F82C3055
:10305000DBB2022B0CD010B50446022380F82C30D2
:10306000006800F0A1F9012384F82C30002010BD85
:1030700002207047F0B5B3B005460023319301221A
:1030800024922A934FF480332593474B0C9324A822
:10309000FEF7A4FF00287CD132A8202340F8C83DC9
:1030A000FFF7DCFA0446002875D1404A136F43F459
:1030B000004313673E4E3F4B336000277760632326
:1030C000B3600923F36037617761B7613046FFF77A
:1030D00025FF3068CA23436253234362836823F485
:1030E00080738360C368DBB263F4C073C3603197DD
:1030F0000AE0319A531C31932F4B1B682F49A1FBD7
:103100000313B2EB531F48D0C36813F0010FF0D084
:103110000123C361836843F480738360836843F44D
:1031200080538360264B1A6842F400321A609A6812
:1031300042F400329A601E4B1868C36813F0400FC7
:1031400014D14FF0FF33C360002331930AE0319A6A
:10315000531C3193184B1B681849A1FB0313B2EBA6
:10316000531F1CD0C36813F0400FF0D00022426000
:1031700002600F4B1B68D96821F08001D960FF21E4
:10318000596229462920FDF7A3F92920FDF7D0F936
:1031900006E0012404E0012402E0012400E001240F
:1031A000204633B0F0BD00BF0003190000380240D4
:1031B00060040020002800400C000020ABAAAAAA4E
:1031C000003C014010B582B0044600230193FDF796
:1031D00051F92368CA225A62236853225A6223682B
:1031E0004FF0FF32DA600AE0019A531C01930D4B55
:1031F0001B680D48A0FB0303B2EB531F04D02168EA
:10320000CB6813F0400FEFD000234B6022681360AF
:103210002268D36823F08003D3602368FF225A62B8
:1032200002B010BD0C000020ABAAAAAA08B5024843
:10323000FFF726FE08BD00BF6004002030B40B6815
:10324000012B16D003681A4C1C404A688B681A433D
:10325000CB681A430B691A434B691A438B691A43AB
:10326000CB691A430B6A13434A6A1343234303602F
:103270001AE0046824F4F842CC690B6A1C434B6AD8
:10328000234342EA03044368094D1D404A688B68A2
:103290001A43CB681A430B691A434B6913438A6973
:1032A00013432B4304604360002030BC704700BFD1
:1032B0000080FFFFF0B5012A20D0836803F0704E34
:1032C0000B685A1E4E68013E42EA06178D68013DA2
:1032D00047EA0526CC68013C46EA04350A69013A0A
:1032E00045EA02444B69013B44EA03528B69013BC6
:1032F00042EA03634EEA0303836024E08368134ACF
:103300001A40CF68013F4B69013B1B0543EA073375
:1033100042EA0307C36803F0704E0B685E1E4C68F8
:10332000013C46EA04158A68013A45EA02240B6921
:10333000013B44EA03428B69013B42EA03634EEAE4
:1033400003038760C3600020F0BD00BFFF0F0FFFC5
:1033500070B582B004461546002301930A684B6895
:1033600013438A68013A43EA4213CA6843EA422394
:103370000193019B0361FDF785F8064608E0B5F16E
:10338000FF3F05D055B1FDF77DF8801B854207D37F
:10339000A36913F0200FF2D1002002E0032000E027
:1033A000032002B070BD00BF436943EA410141619F
:1033B00000207047FEE700BF08B50D4B1B6813B92E
:1033C0000C4A0B4B1A600A4B1A68C31C23F0030308
:1033D000134409498B4206D901F080FE0C23036097
:1033E0004FF0FF3008BD02490B60104608BD00BF1A
:1033F000B80000205C06002000FC042001230360CC
:10340000014B0B60704700BF040000200FB400B5F3
:1034100083B004AB53F8042B01938021064801F0DC
:10342000C5FF002803DD0146034800F039F803B06A
:103430005DF804EB04B07047C00000202DE9F043B4
:1034400085B004460F46435613BB04252846214643
:10345000ABBE04461FE03546102E28BF10250023C2
:1034600006E014F9011B04AA1A4402F8101C0133E7
:10347000AB42F6D304AA1344002203F8102CE94609
:103480004FF0040840464946ABBE8046761B00E03C
:103490000E46002EDFD1384605B0BDE8F08300BFF0
:1034A00008B5FFF7CBFF08BD08B500F097F8024B51
:1034B000024A9A6008BD00BF00ED00E0000000086D
:1034C00008B500F0ABF808BDF8B504460D46174640
:1034D0001E462648FFF79AFF21682548FFF796FF0A
:1034E00061682448FFF792FFA1682348FFF78EFF29
:1034F000E1682248FFF78AFF21692148FFF786FF2C
:1035000061692048FFF782FFA1691F48FFF77EFF2E
:10351000E1691E48FFF77AFF1D48FFF777FF29464C
:103520001C48FFF773FF1C4CE16A1C48FFF76EFF55
:10353000216B1B48FFF76AFFE16B1A48FFF766FF34
:1035400015F0800F03D039461748FFF75FFF15F4D9
:10355000004F03D031461548FFF758FF1448FFF7D6
:1035600055FF06991348FFF751FFF8BD085A0008A8
:10357000185A0008285A0008385A0008485A000803
:10358000585A0008685A0008785A0008885A0008F3
:10359000985A0008A45A000800ED00E0B45A000848
:1035A000C45A0008D45A0008E45A0008F45A000823
:1035B000045B00080C5B000883691A888A4207D103
:1035C0000268033A012A05D802338361012070475B
:1035D0000020704700207047FEE700000B4B1A6880
:1035E00042F001021A60002199601868084A0240FE
:1035F0001A60084A5A601A6822F480221A60D96058
:103600004FF00062044B9A60704700BF00380240E0
:10361000FFFFF6FE1030002400ED00E0224B9B6817
:1036200003F00C03042B07D0082B09D0002B2DD15D
:103630001E4A1F4B1A602CE01E4A1D4B1A6028E0E0
:10364000194B5A685B6803F03F0312F4800F09D0EE
:10365000184AB2FBF3F2144B5B68C3F3881303FB05
:1036600002F208E0114AB2FBF3F30F4A5168C1F3CA
:10367000881101FB03F20C4B5B68C3F30143013378
:103680005B00B2FBF3F30A4A136002E0074A084BFF
:103690001A60054B9B68C3F30313074AD15C044AC5
:1036A0001368CB4013607047003802400024F400D8
:1036B0000C00002040787D01505B000870B58AB096
:1036C000494B83424BD1494C236B43F0080323639E
:1036D000236B03F008030093009B236B43F002036A
:1036E0002363236B03F002030193019B4FF4805388
:1036F00005931223069300250795022308930423BC
:10370000099305A93A48FDF7DBFD802305930B23B8
:10371000099305A93748FDF7D3FD236C43F0807367
:103720002364236C03F080730293029B236A43F0AB
:1037300080732362236A23F0807323622A460F2159
:103740005F20FCF7C5FE5F20FCF7F2FE2A460F2142
:103750006020FCF7BDFE6020FCF7EAFE41E0234C50
:10376000236B43F002032363236B03F002030393F1
:10377000039B4FF48073059312230693002507954E
:1037800002230893042309931A4E05A93046FDF736
:1037900097FD4FF40073059305A93046FDF790FDA2
:1037A000236C43F400132364236C03F40013049389
:1037B000049B236A43F400132362236A23F4001357
:1037C00023622A460F211F20FCF782FE1F20FCF7F0
:1037D000AFFE2A460F212020FCF77AFE2020FCF7BE
:1037E000A7FE0AB070BD00BF4001002000380240B3
:1037F000000C02400004024010B50446FEF700FA37
:10380000B8B90C4B9C4202D10B4B236001E00B4B2F
:1038100023600B4B63600023A3600122E2602361FD
:103820006361E36123622046FFF748FF2046FDF70E
:10383000A7FF10BD40010020006000400054004080
:103840003227914010B50446FDF7FAFF2046FFF7F6
:10385000D3FF10BD70B584B006460C464FF47A71A4
:103860000291BDF824100191089900912146FEF7BC
:1038700001F8054618B121463046FFF7E3FF284618
:1038800004B070BD70B584B006460C464FF47A7132
:103890000291BDF824100191089900912146FEF78C
:1038A000CDF8054618B121463046FFF7CBFF284634
:1038B00004B070BD08B50248FFF79EFF08BD00BF09
:1038C0004001002010B584B004AC04F8012D0123A0
:1038D000019300940A4601460248FFF7BBFF04B07B
:1038E00010BD00BF4001002000B585B004AA002330
:1038F00002F8013D0123019300920A460146044863
:10390000FFF7C0FF9DF80F0005B05DF804FB00BF96
:103910004001002000B583B00193009201230A46C4
:1039200001460348FFF7AEFF03B05DF804FB00BF9C
:103930004001002008B5FCF7ABFD08BD1120704721
:10394000F0B583B004460D4616461F460F484FF4A7
:103950004033436000238360089BC3600C4B0360CB
:10396000FDF75CF880B921460848FDF761F958B9C0
:10397000009733462A4609990448FDF79BF818B981
:103980000A210248FDF7B2F803B0F0BDA004002000
:1039900000B0024070B586B0144B1A6B42F400724E
:1039A0001A631B6B03F400730093009B4FF40045F4
:1039B0000195012602960396032304930C4C01A95A
:1039C0002046FDF77DFC002229462046FDF762FDDA
:1039D0001420FCF75DFD324629462046FDF75AFDCE
:1039E0000A20FCF755FD06B070BD00BF003802404C
:1039F00000240240014B1868704700BF10000020EF
:103A0000014B1868704700BF1C00002070B58EB0D5
:103A100004460E4600250195FFF7ECFF0290039542
:103A2000FFF7EEFF049005950A96FF23069307958E
:103A30008DF834508DF835508DF836504FF4C06302
:103A4000089307230993FFF7D5FF0B90FFF7D8FFE3
:103A50000C90224601A90A48FEF722FA094A6100A1
:103A60000819830013444FF0FF30586006489860EF
:103A70000C44A3004FF07F41D1500EB070BD00BF89
:103A8000F8040020FC01002014000020014B186005
:103A9000704700BF8C010020034B1B6803EB4303FE
:103AA0009A00024B985070478C010020FC010020C6
:103AB000044B1B6803EB43039A00034B1A449060CA
:103AC000704700BF8C010020FC010020F0B583B0DE
:103AD00007460B4B1C6834230A4A03FB0423DD6DA5
:103AE000FFF788FF0646FFF78BFF0197002300933F
:103AF0000346324629462046FFF722FF03B0F0BDB9
:103B00008C010020F804002000B583B0054B196833
:103B100000230093292315220348FDF74DFB03B032
:103B20005DF804FB900100208404002000B583B000
:103B3000012808D80B784A780092152200210848FD
:103B4000FDF73AFB08E00B5C019100930346392234
:103B500000210348FDF75EFB03B05DF804FB00BFE6
:103B60008404002000B585B0274B5A6C42F0806277
:103B70005A645A6C02F080620192019A5A6A42F0C9
:103B800080625A625A6A22F080625A621A6B42F468
:103B900000021A631A6B02F400020292029A1A6976
:103BA00042F400021A611A6922F400021A615A6C86
:103BB00042F000625A645A6C02F000620392039A67
:103BC0005A6A42F000625A625A6A22F000625A62ED
:103BD000002203215820FCF77BFC5820FCF7A8FCAE
:103BE000002203215A20FCF773FC5A20FCF7A0FCAA
:103BF000002203216220FCF76BFC6220FCF798FC9A
:103C000005B05DF804FB00BF003802402DE9F04725
:103C100084B00746FFF7BEFEFFF790FE112840F084
:103C2000AD80FFF79FFF574C574B23602046FDF7B1
:103C300049F964230193052302930023039301238D
:103C4000E3600423A3600DEB03012046FDF786F833
:103C500047B94FF4F0724D4B1A604FF448724C4B19
:103C60001A6007E04FF44872484B1A604FF4F07244
:103C7000474B1A60DFF81491D9F80030DFF8108153
:103C8000D8F80020434C002525600521616025629D
:103C9000E56165620221E16040F6FF71A161656145
:103CA00023618F21A16240F21111E16203F22F1111
:103CB0004FF2244303FB01F33749A1FB03135B0BD2
:103CC00023630C236363A363E36322644FF4004321
:103CD00063641023A364E5644FF4005323654FF439
:103CE000805363654FF40063A3654FF48063E3651D
:103CF0004FF4007323664FF480736366DFF884A08B
:103D000021465046FDF70EF9244E3E237361B6233B
:103D1000F361D9F8003003F1B602726203F59772CD
:103D2000F2623366D8F8003073661D4808230360DA
:103D30004FF4C07343610723C361C562FEF78EFC75
:103D400086F8345086F8355086F836503561154B74
:103D5000336021463046FEF7D1F83046FEF720F8B2
:103D60005046FDF711FA00F04BF90F48FFF7A0FE9F
:103D70003946284600F098FA284600E0012004B0B1
:103D8000BDE8F08784040020006C01401000002092
:103D90001C00002090010020E31C754CF80400205A
:103DA00014020020006801401400002008B5012022
:103DB000FFF72CFF08BD00BFF8B507460C461646B6
:103DC000064B1A683421064B01FB0233DD6DFFF709
:103DD00011FE00FB047045F82060F8BD8C01002046
:103DE000F80400202DE9F04383B081464FF000082D
:103DF000CDF80480204C0126266010276760A6605D
:103E0000C4F80C801D4D4FF6FF7221462846FFF77F
:103E1000FFF83046FCF73CFB022323606760A66096
:103E2000C4F80C804FF6FF7221462846FFF7F0F8E1
:103E30000323236067600823A360C4F80C804FF657
:103E4000FF7221462846FFF7E3F84FF40C73019305
:103E5000042323606760A660019BE3604FF6FF7256
:103E600021462846FFF7D4F849462846FFF7EEF8E2
:103E700003B0BDE8F08300BFA402002024060020A8
:103E8000F0B58FB00646554B9A6B42F001029A632B
:103E90009A6B02F001020192019A1A6B42F48002BD
:103EA0001A631A6B02F480020292029A1A6B42F0B1
:103EB00008021A631A6B02F008020392039A1A6B43
:103EC00042F010021A631A6B02F010020492049A74
:103ED0001A6B42F020021A631A6B02F0200205925C
:103EE000059A1A6B42F040021A631A6B02F0400204
:103EF0000692069A1A6B42F080021A631A6B02F05D
:103F000080020792079A1A6B42F480721A631B6B45
:103F100003F480730893089B02230A9301230B93F5
:103F200003270C970C230D930EAC4CF2037344F84B
:103F3000143D21462A48FDF7C3F94FF683730993D0
:103F400021462848FDF7BCF94FF63F030993214667
:103F50002548FDF7B5F948F2371309932146234860
:103F6000FDF7AEF94FF62C73099321462048FDF773
:103F7000A7F940F2FF63099321461E48FDF7A0F917
:103F80001D4C002565608023A3604FF40073E3603F
:103F90004FF4806323614FF4805363614FF4804397
:103FA000A361E5614FF4003323626562A762E562B5
:103FB0002563124B23603463A6632046FCF7BCFBE9
:103FC0002046FCF753FB2A460F213820FCF780FAE5
:103FD0003820FCF7ADFA0FB0F0BD00BF003802404A
:103FE000000C024000100240001402400018024081
:103FF000001C024000200240D00200201064024059
:1040000038B51B4C1B4B23601B4D02232B60072133
:1040100069600422AA60E9602B616B61AB610021D9
:104020006160A160E26020232361402363614FF45B
:10403000C073A361E1614FF4006323624FF48053C6
:104040006362A1622046FFF71BFF29462046FEF768
:10405000BDFF18B10122094B1A7002E00022074B84
:104060001A7040F20360FFF7BDFE044B187838BDAC
:1040700024060020400100A0B402002020000020FF
:1040800070B506460D461B4C23681B4A10789847AE
:10409000636854209847C4B2112C08D0154B5B6854
:1040A00070209847C0B27022134B1A7003E054225C
:1040B000114B1A700020112818BF112C17D10D4A6E
:1040C0000E4B1A60AE4203D201220D4B1A7002E071
:1040D0000C220B4B1A70074B9B68074C20789847B3
:1040E000064B1B68DB6820789847002070BD0320D2
:1040F00070BD00BF240000203803002044030020CE
:104100003903002030B583B005463C4B1B681B6962
:104110003B4A107898472870002868D16BE0374BED
:104120001B685B6961000DEB010201A80144344882
:1041300000789847334B1B7813F0080F0AD002AA77
:1041400002EB440232F8041C32F8080C22F8040C8A
:1041500022F8081C13F0020F09D002AA02EB440156
:1041600031F8040C40F21F32121A21F8042C13F01B
:10417000040F09D002AB03EB440232F8081C40F2F2
:10418000DF135B1A22F8083C02AB03EB440333F85D
:10419000040C1D4B53F82430984202D9C31A9AB22A
:1041A00001E01B1A9AB202AB03EB440333F8081C7C
:1041B000164B53F82430994202D9CB1A9BB201E036
:1041C0005B1A9BB21344052B05DD0F4B43F824000B
:1041D0000E4B43F824100C4B53F8242005EB4403FA
:1041E0005A800A4A52F82420DA80013400E0002480
:1041F0002B789C4293D3002003B030BD44030020B1
:104200003803002039030020300300203C03002045
:1042100000B587B00C4B1A6B42F480721A631B6BAB
:1042200003F480730093009B4FF400530193002329
:104230000293012303930323049301A90348FDF789
:104240003FF807B05DF804FB003802400020024050
:1042500000B587B0FFF7DCFF4FF400530193012353
:104260000393022304930C4B029301A90B48FDF71F
:1042700027F800220F212820FCF72AF92820FCF734
:1042800057F9074B1B689B69064A1078984700202E
:1042900007B05DF804FB00BF0000211000200240C1
:1042A00044030020380300202DE9F84F8346894657
:1042B000C04C21460020FFF739FCBF490320FFF71F
:1042C00035FCBE4D29460020FFF730FCBC490220DA
:1042D000FFF72CFC29460020FFF728FCB9490020F5
:1042E000FFF724FC0A20FFF725FBB7490020FFF762
:1042F0001DFCB6490020FFF719FC0A20FFF71AFB46
:10430000B3490020FFF712FCB2490020FFF70EFC72
:10431000B1490020FFF70AFCDFF8948341460020F2
:10432000FFF704FCAD490020FFF700FCAC4900207A
:10433000FFF7FCFB21460020FFF7F8FBA94900200E
:10434000FFF7F4FBA84E31460020FFF7EFFBA7492B
:104350000020FFF7EBFBA64F39460020FFF7E6FBF6
:10436000A4490020FFF7E2FBA3490020FFF7DEFB92
:10437000A2490020FFF7DAFBA1490020FFF7D6FB96
:1043800041460020FFF7D2FB21460020FFF7CEFB7D
:104390009C490220FFF7CAFB9B490020FFF7C6FBA0
:1043A0009A490020FFF7C2FB99490020FFF7BEFBA6
:1043B00098490020FFF7BAFB97490020FFF7B6FBAA
:1043C00096490020FFF7B2FB31460020FFF7AEFB15
:1043D00093490020FFF7AAFB39460020FFF7A6FB10
:1043E00090490020FFF7A2FB8F490020FFF79EFBBA
:1043F0008E490220FFF79AFB29460020FFF796FB23
:104400008B490620FFF792FBDFF8A8A25146002057
:10441000FFF78CFB87490E20FFF788FB86490020B9
:10442000FFF784FB85490E20FFF780FBDFF88882C9
:1044300041460020FFF77AFB81490A20FFF776FB0F
:10444000804F39460020FFF771FB7F490020FFF7BE
:104450006DFB29460020FFF769FB7C490A20FFF726
:1044600065FB7B490020FFF761FB7A490F20FFF7CE
:104470005DFB51460020FFF759FB77490F20FFF7FE
:1044800055FB6D490020FFF751FB74490A20FFF7E7
:104490004DFB41460020FFF749FB71490F20FFF714
:1044A00045FB39460020FFF741FB6E490F20FFF71F
:1044B0003DFB6D490020FFF739FB6C490A20FFF7EF
:1044C00035FB6B490020FFF731FB6A490A20FFF7F3
:1044D0002DFB29460020FFF729FB67490A20FFF73B
:1044E00025FB5B490020FFF721FB64490F20FFF704
:1044F0001DFB51460020FFF719FB61490F20FFF714
:1045000015FB4D490020FFF711FB5E490A20FFF71C
:104510000DFB41460020FFF709FB5B490F20FFF729
:1045200005FB39460020FFF701FB58490F20FFF734
:10453000FDFA31460020FFF7F9FA55490020FFF750
:10454000F5FA54490020FFF7F1FA53490020FFF72C
:10455000EDFA21460020FFF7E9FA50490320FFF762
:10456000E5FA21460020FFF7E1FA21460020FFF797
:10457000DDFA4B491020FFF7D9FA21460020FFF75A
:10458000D5FA48491020FFF7D1FA47490020FFF734
:10459000CDFA7820FFF7CEF9BBF1000F00F08E8046
:1045A000BBF1020F40F08E8040490020FFF7BEFAB9
:1045B00088E000BF74760008387600087876000836
:1045C000987600087C7600088076000884760008DB
:1045D000887600088C76000890760008207800081D
:1045E000187600081C76000820760008247600085B
:1045F000287600082C760008407600086C760008C3
:104600009C760008487600084C7700085077000830
:1046100054770008587700085C7700086077000836
:1046200064770008687700086C7700084C7600080B
:1046300050760008587600083076000800770008A9
:10464000947700086876000880770008A077000853
:104650003C760008AC770008BC770008CC770008EF
:10466000D8770008E8770008D8760008F8770008BF
:10467000447600080478000810780008B87600082E
:10468000C876000810770008DC760008EC76000891
:1046900084770008887700088C770008FC7600088B
:1046A00028770008A0760008B47600082477000870
:1046B00094760008707700083476000818490020C6
:1046C000FFF734FAB9F1010F0BD116490020FFF7BB
:1046D0002DFA15490420FFF729FA14490420FFF7A1
:1046E00025FA13490020FFF721FA12490020FFF7AD
:1046F0001DFA11490020FFF719FA10490020FFF7B1
:1047000015FA0F490020FFF711FA0E490020FFF7B4
:104710000DFA0D490020FFF709FA0020BDE8F88FD7
:1047200044770008487700083C7700081C770008A9
:1047300070760008907700081C78000874770008ED
:1047400078770008747600087C770008704700BF0F
:1047500000207047704700BF002305E0054AD25C87
:10476000824205D00133DBB2012BF7D9FF2070471D
:10477000184670474C03002010B50446FFF7ECFFC5
:10478000FF2808D10020FFF7E7FF012803D8024BDC
:104790001C54FFF78FF810BD4C03002010B50446E1
:1047A000FFF788F8A821E0B2FFF79EF810BD00BF20
:1047B00000B583B000238DF807300221C0B2FFF7A7
:1047C00093F88DF807009DF8073003F00F038DF87C
:1047D00007309DF80730DBB2022B02D900238DF899
:1047E00007309DF80720044B5A7000229A709DF8FC
:1047F000070003B05DF804FB4803002070B582B0E9
:10480000164CA3786678B34226D22BB1012B01D087
:10481000002602E0092600E0032614460D46042384
:104820000DEB03023146C0B2FFF774F89DF8043077
:104830001B029DF8052003F4706313432B809DF841
:1048400006301B029DF8072003F470631343238096
:10485000024A93780133937002B070BD4803002080
:1048600008B50122A421C0B2FFF72CF808BD00BF93
:1048700008B50022A421C0B2FFF724F808BD00BF8C
:1048800008B5FFF7F5FF08BD09285BD8DFE800F0A1
:1048900005410D161F272F384A5301EB8101CB002C
:1048A0009918294B53F821007047C1EB411301EBD4
:1048B00083039918254B53F821007047C1EB41132E
:1048C00001EB83039918224B53F82100704740F203
:1048D000771303FB01211F4B53F82100704740F26F
:1048E000771303FB01211C4B53F821007047C1EBE8
:1048F000411301EB83039918184B53F821007047BB
:10490000C1EB411301EB83039918154B53F82100B8
:104910007047C1EB411301EB83039918114B53F816
:1049200021007047C1EB411301EB830399180E4B33
:1049300053F821007047322303FB01210B4B53F83E
:104940002100704700207047B4480408443208082A
:10495000D85505088874090824780008FC49060819
:10496000203E070890540308B4610408682609082B
:1049700009280AD8DFE800F0050B0B0B0B0B0B0B1B
:104980000B072820704764207047002070477D2067
:10499000704700BF092810D8DFE800F00511111199
:1049A000070A1111110D2820704740F27710704747
:1049B00040F27710704732207047002070477D200A
:1049C000704700BF2DE9F047074689469046FFF73C
:1049D000CFFF82463846FFF7DDFF064600255545E6
:1049E00019D20024B44213D2224629463846FFF792
:1049F0004BFFB0F17F4F08D305EB090304EB08012F
:104A0000024689B298B2FFF7D7F90134A4B2E9E7B8
:104A10000135ADB2E3E7BDE8F08700BF08B50A464F
:104A200001460920FFF7CEFF08BD00BF08B540F2E0
:104A30009911AE20FFF7F2FF08BD00BF08B54FF097
:104A4000FF30FFF743F8234B1B78042B40D8DFE8F7
:104A500003F0031E373A3D004FF493723C210220CD
:104A6000FFF7B0FF4FF49372F5210820FFF7AAFF7C
:104A70004FF493724FF4D7710320FFF7A3FF4FF465
:104A8000937240F267210120FFF79CFF08BD31229D
:104A900040F2C1110420FFF795FF31224FF41C7141
:104AA0000520FFF78FFFE522A2210620FFF78AFFEE
:104AB0003122A2210720FFF785FFFFF7B7FF08BDCE
:104AC000FFF7B4FF08BDFFF7B1FF08BDFFF7AEFF6A
:104AD00008BD00BF4E030020AE3880B264280BD85A
:104AE000A1F2991189B2322906D808B50022034BE8
:104AF0001A70FFF7A3FF08BD704700BF4E030020E8
:104B000008B500235888D988264B1B78042B47D832
:104B1000DFE803F003413B3E4400A0F13B037D2B63
:104B200009D8A1F593737D2B05D802221D4B1A706D
:104B3000FFF784FF08BDA0F1F4037D2B09D8A1F590
:104B400093737D2B05D80322164B1A70FFF776FF5F
:104B500008BDA0F2AD137D2B09D8A1F593737D2B71
:104B600005D801220F4B1A70FFF768FF08BDA0F2AD
:104B700066207D2814D8A1F593717D2910D80422D0
:104B8000084B1A70FFF75AFF08BDFFF7A5FF08BDD5
:104B9000FFF7A2FF08BDFFF79FFF08BDFFF79CFFCF
:104BA00008BD00BF4E030020B0F5005F09D108B575
:104BB000002001230370FFF7A5FA08B9FFF7A0FF53
:104BC00008BD704708B54FF07F40FEF765FF02480B
:104BD000FEF76EFF08BD00BF1400002008B5FFF708
:104BE000E5F84FF040410020FEF710FFFEF78CFF84
:104BF0000020FEF74BFF4FF0FF30FEF767FF08BDC8
:104C000008B50A6002228A6000224A60FCF758FB5D
:104C100008BD00BF30B583B0174B1A6B42F02002BD
:104C20001A631A6B02F020020092009A1A6B42F487
:104C300000721A631B6B03F400730193019B0F4D09
:104C400080220F492846FFF7DBFF0E4C10220E4949
:104C50002046FFF7D5FF02220C492046FFF7D0FF80
:104C600040220B492846FFF7CBFF01220949204685
:104C7000FFF7C6FF03B030BD003802400014024009
:104C8000A0030020002402408C03002064030020C5
:104C9000780300205003002000B593B00123009357
:104CA0004FF480330193022306934FF4800207925E
:104CB000192208924FF4C87209920A9309230B93A0
:104CC00007230C936846FDF789F900B1FEE7FDF76D
:104CD00045F900B1FEE70F230D9302230E93002345
:104CE0000F934FF4A05310934FF480531193072167
:104CF0000DA8FDF7E3FB00B1FEE7FDF7A9FC094BAA
:104D0000A3FB00308009FBF71FFC0420FBF732FCFB
:104D100000220F214FF0FF30FBF7DAFB13B05DF8F4
:104D200004FB00BFD34D621010B4BFF34F8FBFF32D
:104D30006F8F1A4B0021C3F850125A6942F40032A7
:104D40005A61BFF34F8FBFF36F8FC3F88410BFF367
:104D50004F8FD3F88040C4F34E3000E01846C4F3C0
:104D6000C90200E01A4643F6E07303EA401343EA3F
:104D700082730A49C1F86032531E002AF2D1431EE1
:104D80000028EBD1BFF34F8F4B6943F480334B6165
:104D9000BFF34F8FBFF36F8F10BC704700ED00E083
:104DA00008B5FFF7C1FFFBF753FBFFF775FF08BD21
:104DB00008B5FFF7F5FFFFF72DFFFEF71BFE84B2E6
:104DC000FEF718FE81B22046FFF75AF9FFF740FAC6
:104DD000FFF704FFFFF7F6FE0022024B1A70FFF701
:104DE0002DFEFEE74E030020704700BFFEE700BF28
:104DF000FEE700BFFEE700BFFEE700BF704700BF51
:104E0000704700BF704700BF08B5FBF733FB08BD14
:104E100008B5054B5B6913F4005F03D04FF40050F5
:104E2000FCF73EFB08BD00BF003C014008B5024B4B
:104E3000D86BFBF7ADFC08BDA005002008B5024B00
:104E4000186CFBF7A5FC08BDA0050020244B1A68D0
:104E5000D0075CBF01221A60224B1A68D1075CBFE1
:104E600001221A60204B1A68D2075CBF01221A6027
:104E70001E4B1A68D0075CBF01221A601C4B1A68CF
:104E8000D1075CBF01221A601A4B1A68D2075CBFB7
:104E900001221A60184B1A68D0075CBF01221A6001
:104EA000164B1A68D1075CBF01221A60144B1A68AE
:104EB000D2075CBF01221A60124B1A68D0075CBF90
:104EC00001221A60104B1A68D1075CBF01221A60D8
:104ED0000E4B1A68D2075CBF01221A60704700BFF0
:104EE000E0030020DC030020D8030020D4030020CE
:104EF000D0030020CC030020C8030020C4030020FE
:104F0000C0030020BC030020B8030020B40300202D
:104F1000184B1A68D1075CBF01221A60164B1A6839
:104F2000D2075CBF01221A60144B1A68D0075CBF1D
:104F300001221A60124B1A68D1075CBF01221A6065
:104F4000104B1A68D2075CBF01221A600E4B1A6818
:104F5000D0075CBF01221A600C4B1A68D1075CBFF6
:104F600001221A600A4B1A68D2075CBF01221A603C
:104F7000704700BF00040020FC030020F80300205D
:104F8000F4030020F0030020EC030020E8030020DD
:104F9000E4030020184B1A68D1075CBF01221A6095
:104FA000164B1A68D2075CBF01221A60144B1A68AC
:104FB000D0075CBF01221A60124B1A68D1075CBF90
:104FC00001221A60104B1A68D2075CBF01221A60D6
:104FD0000E4B1A68D0075CBF01221A600C4B1A688E
:104FE000D1075CBF01221A600A4B1A68D2075CBF66
:104FF00001221A60704700BF200400201C0400201A
:105000001804002014040020100400200C040020C8
:105010000804002004040020244B1A68D0075CBF59
:1050200001221A60224B1A68D1075CBF01221A6064
:10503000204B1A68D2075CBF01221A601E4B1A6807
:10504000D0075CBF01221A601C4B1A68D1075CBFF5
:1050500001221A601A4B1A68D2075CBF01221A603B
:10506000184B1A68D0075CBF01221A60164B1A68E9
:10507000D1075CBF01221A60144B1A68D2075CBFCB
:1050800001221A60124B1A68D0075CBF01221A6015
:10509000104B1A68D1075CBF01221A600E4B1A68C8
:1050A000D2075CBF01221A60704700BF5004002085
:1050B0004C04002048040020440400204004002048
:1050C0003C04002038040020340400203004002078
:1050D0002C0400202804002024040020014B186820
:1050E000704700BFAC00002000000000000000007E
:1050F00001F0FF01102A2BDB10F0070F08D010F889
:10510000013B013A8B422DD010F0070F42B3F6D18C
:10511000F0B441EA012141EA014122F007047FF0A5
:1051200000070023F0E80256083C85EA010586EAFC
:10513000010685FA47F5A3FA87F586FA47F6A5FA38
:1051400087F68EB9EED1F0BC01F0FF0102F0070244
:1051500032B110F8013B013A83EA010313B1F8D1EF
:105160000020704701387047002D06BF35460338D0
:10517000073815F0010F07D1013015F4807F02BF09
:10518000013015F4C03F0130F0BC0138704700BF5A
:1051900010B5431E0A44914204D011F8014B03F8A4
:1051A000014FF8E710BD884210B501EB020301D8AA
:1051B000421E0BE09842FBD28118D21AD34204D08F
:1051C00013F8014D01F8014DF8E710BD994204D0E4
:1051D00011F8014B02F8014FF8E710BD38B505464C
:1051E000002946D051F8043C0C1F002BB8BFE4182E
:1051F00000F0EAF81F4A1368114613B9636014609F
:1052000032E0A3420ED92268A018834204BF186876
:105210005B68636004BF121822600C6024E0A24245
:1052200003D813465A68002AF9D118681918A14200
:105230000BD12168014458188242196014D11068BA
:1052400052685A60014419600EE002D90C232B60A9
:105250000AE021686018824204BF106852686260E8
:1052600004BF091821605C602846BDE8384000F0A2
:10527000ACB838BD5804002070B5CD1C25F003052E
:1052800008350C2D38BF0C25002D064601DBA94240
:1052900002D90C23336046E000F096F8234B1C68DB
:1052A0001A462146A1B10B685B1B0ED40B2B03D908
:1052B0000B60CC18CD501EE08C420DBF63684B686C
:1052C0006360136018BF0C4615E00C464968E9E7B7
:1052D000174C23681BB9304600F02CF82060294693
:1052E000304600F027F8431C18D0C41C24F00304F7
:1052F000A0420DD12560304600F067F804F10B00A4
:10530000231D20F00700C31A0ED05A42E25070BD90
:10531000211A304600F00EF80130EBD10C23336037
:10532000304600F052F8002070BD00BF5804002045
:105330005404002038B5064C002305460846236077
:10534000FEF73AF8431C02D1236803B12B6038BD45
:105350008004002030B5141E05469BB0184604DAC0
:105360008B232B604FF0FF301DE04FF40273ADF83C
:105370000C3014BF04F1FF332346029305934FF61C
:10538000FF7300910491ADF80E3002461E9B6946F2
:10539000284600F075F8431CBCBF8B232B6014B16A
:1053A000009B00221A701BB030BD000007B50093AF
:1053B00013460A46014603480068FFF7CBFF03B0D7
:1053C0005DF804FBAC000020704770472DE9F04702
:1053D0008E689E4282460C46914698463ED88A89FF
:1053E00012F4906F3AD0256809696F1A6569022333
:1053F00005EB450595FBF3F57B1C43449D4238BF07
:105400001D4653050FD52946FFF736FF064698B1CE
:105410003A462169FFF7BCFEA38923F4906343F069
:105420008003A38113E02A4600F0BAFA064670B959
:1054300021695046FFF7D2FE0C23CAF80030A38939
:1054400043F04003A3814FF0FF30BDE8F0872661B1
:1054500065613E44ED1B2660A5604646464528BF73
:105460004646324649462068FFF79DFEA3689B1BCF
:10547000A36023681E4426600020BDE8F08700007A
:105480002DE9F04F9DB0804603938B891C060D4695
:1054900016460DD50B695BB94021FFF7EDFE28607C
:1054A000286118B90C23C8F80030CDE040236B61A7
:1054B0000023099320238DF82930DFF89CB1302395
:1054C0008DF82A3037463C4614F8013B1BB9B7EB40
:1054D000060910D003E0252BF9D02746F3E74B4609
:1054E000324629464046FFF771FF013000F0A780A1
:1054F000099B4B4409933B78002B00F0A0800023CC
:105500004FF0FF3204930793059206938DF85330C2
:105510001A930126052221784E48FFF7E9FD671C02
:10552000049B38B14B4A801A06FA00F018430490E5
:105530003C46EFE7D90644BF20228DF853201A07D6
:1055400044BF2B228DF8532022782A2A03D0079AB1
:1055500000210A200BE0039A111D12680391002A12
:1055600010DA524243F00200079204900BE0274603
:1055700001343B78303B092B03D800FB0232012178
:10558000F5E701B107923B782E2B1ED17B782A2BB1
:105590000AD1039B1A1D1B680392002BB8BF4FF062
:1055A000FF330237059310E000230593781C19465A
:1055B0000A24074601303A78303A092A03D804FB16
:1055C00001210123F5E703B105910322397822482F
:1055D000FFF78EFD40B14023CBEB000003FA00F053
:1055E000049B18430490013739781C488DF8281023
:1055F00006227E1CFFF77CFD88B1194B33B9039B53
:10560000073323F007030833039314E003AB00933D
:105610002A46144B04A94046AFF3008007E003ABD1
:1056200000932A460F4B04A9404600F093F8B0F1CE
:10563000FF3F824603D0099B5344099342E7AB895D
:105640005B0601D4099801E04FF0FF301DB0BDE8C2
:10565000F08F00BF54510C085A510C085E510C08D1
:1056600000000000CD5300082DE9F04791461F4689
:105670000A698B68DDF820809342B8BF1346C9F8E9
:10568000003091F8432006460C4612B10133C9F8A8
:1056900000302368990642BFD9F800300233C9F8B8
:1056A0000030256815F0060510D104F1190A07E04D
:1056B0000123524639463046C04701301AD00135E1
:1056C000E368D9F800209B1A9D42F1DB94F843303F
:1056D0002268003318BF012392060FD5E1185A1C27
:1056E000302081F84300224494F8451082F843109A
:1056F000023303E04FF0FF30BDE8F08704F14302CE
:1057000039463046C0470130F4D02268D9F80050FD
:10571000E36802F00602042A08BF5D1B2269A36841
:105720000CBF25EAE57500259342C4BF9B1AED180E
:105730004FF000091A344D4509D00123224639465D
:105740003046C0470130D5D009F10109F3E7002008
:10575000BDE8F0872DE9F04317460A7E85B06E2A32
:10576000984606460C460C9B01F1430E00F0AE80B5
:1057700011D8632A22D009D8002A00F0BB80582A09
:1057800040F0CA8081F84520834955E0642A1ED044
:10579000692A1CD0C0E0732A00F0B08009D86F2AB3
:1057A0002ED0702A40F0B8800A6842F020020A60C9
:1057B0003EE0752A24D0782A3AD0ADE01A6801F18B
:1057C0004205111D1960136884F84230A8E0216871
:1057D0001A6811F0800F02D0111D196008E011F055
:1057E000400F02F10401196002D0B2F9003000E06C
:1057F0001368002B3CDA2D225B4284F8432037E00B
:1058000021681A6811F0800F02D0111D196007E09D
:1058100011F0400F02F10401196001D0138800E07B
:105820001368227E5C496F2A14BF0A2208221BE0FB
:1058300078225A4984F845202268186812F0800FAF
:1058400000F104051D6003D1550601D5038800E071
:105850000368D00744BF42F0200222601BB92268CF
:1058600022F0200222601022002084F8430001E090
:1058700049490A226568A560002D08DB206820F0F0
:10588000040020602BB9002D7DD175460CE0002B63
:1058900079D07546B3FBF2F002FB1033CB5C05F810
:1058A000013D03460028F5D1082A0BD12368DA0709
:1058B00008D5236962689A42DEBF302305F8013CAF
:1058C00005F1FF35C5EB0E0323612EE008681A6869
:1058D000496910F0800F03D0101D1860136808E0AC
:1058E00010F0400F02F104001860136801D0198015
:1058F00000E0196000232361754616E01A68111D47
:1059000019601568626800212846FFF7F1FB08B1AD
:10591000401B6060636804E004F1420584F84220A3
:1059200001232361002384F84330CDF800803B46F7
:1059300003AA21463046FFF797FE013002D14FF00F
:10594000FF3026E023692A4639463046C0470130F9
:10595000F5D023689B0710D5002504F1190907E04D
:1059600001234A4639463046C0470130E7D0013569
:10597000E368039A9B1A9D42F2DBE068039B98421E
:10598000B8BF184605E00B7884F8423004F14205B0
:105990008AE705B0BDE8F08365510C0876510C0824
:1059A000F8B5074615460E4621B91146BDE8F84040
:1059B000FFF762BC1AB9FFF711FC2846F8BD00F0EA
:1059C00015F885420ED929463846FFF755FC04469E
:1059D00050B131462A46FFF7DBFB31463846FFF728
:1059E000FDFB01E03046F8BD2046F8BD51F8040C3F
:1059F0000028BEBF091851F8043CC018043870478D
:105A00000006101600061016537461636B20667250
:105A1000616D653A0A000000205230203D202025AB
:105A20003038580A00000000205231203D20202547
:105A30003038580A00000000205232203D20202536
:105A40003038580A00000000205233203D20202525
:105A50003038580A0000000020523132203D202505
:105A60003038580A00000000204C52203D202025EC
:105A70003038580A00000000205043203D202025E7
:105A80003038580A0000000020505352203D202595
:105A90003038580A000000004653522F4641523A0F
:105AA0000A0000002043465352203D202025303874
:105AB000580A00002048465352203D202025303807
:105AC000580A00002044465352203D2020253038FB
:105AD000580A00002041465352203D2020253038EE
